{
  "contractName": "EIP721",
  "abi": [
    {
      "constant": true,
      "inputs": [],
      "name": "name",
      "outputs": [
        {
          "name": "",
          "type": "string"
        }
      ],
      "payable": false,
      "stateMutability": "view",
      "type": "function"
    },
    {
      "constant": true,
      "inputs": [],
      "name": "symbol",
      "outputs": [
        {
          "name": "",
          "type": "string"
        }
      ],
      "payable": false,
      "stateMutability": "view",
      "type": "function"
    },
    {
      "anonymous": false,
      "inputs": [
        {
          "indexed": true,
          "name": "_from",
          "type": "address"
        },
        {
          "indexed": true,
          "name": "_to",
          "type": "address"
        },
        {
          "indexed": false,
          "name": "_tokenId",
          "type": "uint256"
        }
      ],
      "name": "Transfer",
      "type": "event"
    },
    {
      "anonymous": false,
      "inputs": [
        {
          "indexed": true,
          "name": "_owner",
          "type": "address"
        },
        {
          "indexed": true,
          "name": "_approved",
          "type": "address"
        },
        {
          "indexed": false,
          "name": "_tokenId",
          "type": "uint256"
        }
      ],
      "name": "Approval",
      "type": "event"
    },
    {
      "anonymous": false,
      "inputs": [
        {
          "indexed": true,
          "name": "_owner",
          "type": "address"
        },
        {
          "indexed": true,
          "name": "_operator",
          "type": "address"
        },
        {
          "indexed": false,
          "name": "_approved",
          "type": "bool"
        }
      ],
      "name": "ApprovalForAll",
      "type": "event"
    },
    {
      "constant": false,
      "inputs": [
        {
          "name": "_from",
          "type": "address"
        },
        {
          "name": "_to",
          "type": "address"
        },
        {
          "name": "_tokenId",
          "type": "uint256"
        }
      ],
      "name": "transferFrom",
      "outputs": [],
      "payable": true,
      "stateMutability": "payable",
      "type": "function"
    },
    {
      "constant": false,
      "inputs": [
        {
          "name": "_from",
          "type": "address"
        },
        {
          "name": "_to",
          "type": "address"
        },
        {
          "name": "_tokenId",
          "type": "uint256"
        }
      ],
      "name": "safeTransferFrom",
      "outputs": [],
      "payable": true,
      "stateMutability": "payable",
      "type": "function"
    },
    {
      "constant": false,
      "inputs": [
        {
          "name": "_from",
          "type": "address"
        },
        {
          "name": "_to",
          "type": "address"
        },
        {
          "name": "_tokenId",
          "type": "uint256"
        },
        {
          "name": "_data",
          "type": "bytes"
        }
      ],
      "name": "safeTransferFrom",
      "outputs": [],
      "payable": true,
      "stateMutability": "payable",
      "type": "function"
    },
    {
      "constant": false,
      "inputs": [
        {
          "name": "_approved",
          "type": "address"
        },
        {
          "name": "_tokenId",
          "type": "uint256"
        }
      ],
      "name": "approve",
      "outputs": [],
      "payable": true,
      "stateMutability": "payable",
      "type": "function"
    },
    {
      "constant": false,
      "inputs": [
        {
          "name": "_operator",
          "type": "address"
        },
        {
          "name": "_approved",
          "type": "bool"
        }
      ],
      "name": "setApprovalForAll",
      "outputs": [],
      "payable": false,
      "stateMutability": "nonpayable",
      "type": "function"
    },
    {
      "constant": true,
      "inputs": [],
      "name": "totalSupply",
      "outputs": [
        {
          "name": "",
          "type": "uint256"
        }
      ],
      "payable": false,
      "stateMutability": "view",
      "type": "function"
    },
    {
      "constant": true,
      "inputs": [
        {
          "name": "_tokenId",
          "type": "uint256"
        }
      ],
      "name": "ownerOf",
      "outputs": [
        {
          "name": "",
          "type": "address"
        }
      ],
      "payable": false,
      "stateMutability": "view",
      "type": "function"
    },
    {
      "constant": true,
      "inputs": [
        {
          "name": "_index",
          "type": "uint256"
        }
      ],
      "name": "tokenByIndex",
      "outputs": [
        {
          "name": "",
          "type": "uint256"
        }
      ],
      "payable": false,
      "stateMutability": "view",
      "type": "function"
    },
    {
      "constant": true,
      "inputs": [
        {
          "name": "_owner",
          "type": "address"
        },
        {
          "name": "_index",
          "type": "uint256"
        }
      ],
      "name": "tokenOfOwnerByIndex",
      "outputs": [
        {
          "name": "_tokenId",
          "type": "uint256"
        }
      ],
      "payable": false,
      "stateMutability": "view",
      "type": "function"
    },
    {
      "constant": true,
      "inputs": [
        {
          "name": "_owner",
          "type": "address"
        }
      ],
      "name": "balanceOf",
      "outputs": [
        {
          "name": "",
          "type": "uint256"
        }
      ],
      "payable": false,
      "stateMutability": "view",
      "type": "function"
    },
    {
      "constant": true,
      "inputs": [
        {
          "name": "_tokenId",
          "type": "uint256"
        }
      ],
      "name": "getApproved",
      "outputs": [
        {
          "name": "",
          "type": "address"
        }
      ],
      "payable": false,
      "stateMutability": "view",
      "type": "function"
    },
    {
      "constant": true,
      "inputs": [
        {
          "name": "_owner",
          "type": "address"
        },
        {
          "name": "_operator",
          "type": "address"
        }
      ],
      "name": "isApprovedForAll",
      "outputs": [
        {
          "name": "",
          "type": "bool"
        }
      ],
      "payable": false,
      "stateMutability": "view",
      "type": "function"
    },
    {
      "constant": true,
      "inputs": [
        {
          "name": "_tokenId",
          "type": "uint256"
        }
      ],
      "name": "tokenURI",
      "outputs": [
        {
          "name": "",
          "type": "string"
        }
      ],
      "payable": false,
      "stateMutability": "view",
      "type": "function"
    },
    {
      "constant": true,
      "inputs": [
        {
          "name": "interfaceID",
          "type": "bytes4"
        }
      ],
      "name": "supportsInterface",
      "outputs": [
        {
          "name": "",
          "type": "bool"
        }
      ],
      "payable": false,
      "stateMutability": "view",
      "type": "function"
    }
  ],
  "bytecode": "0x608060405234801561001057600080fd5b50612007806100206000396000f3006080604052600436106100e6576000357c0100000000000000000000000000000000000000000000000000000000900463ffffffff16806301ffc9a7146100eb57806306fdde031461014f578063081812fc146101df578063095ea7b31461024c57806318160ddd1461028c57806323b872dd146102b75780632f745c591461031757806342842e0e146103785780634f6ccce7146103d85780636352211e1461041957806370a082311461048657806395d89b41146104dd578063a22cb4651461056d578063b88d4fde146105bc578063c87b56dd14610634578063e985e9c5146106da575b600080fd5b3480156100f757600080fd5b5061013560048036038101908080357bffffffffffffffffffffffffffffffffffffffffffffffffffffffff19169060200190929190505050610755565b604051808215151515815260200191505060405180910390f35b34801561015b57600080fd5b506101646108a9565b6040518080602001828103825283818151815260200191508051906020019080838360005b838110156101a4578082015181840152602081019050610189565b50505050905090810190601f1680156101d15780820380516001836020036101000a031916815260200191505b509250505060405180910390f35b3480156101eb57600080fd5b5061020a60048036038101908080359060200190929190505050610947565b604051808273ffffffffffffffffffffffffffffffffffffffff1673ffffffffffffffffffffffffffffffffffffffff16815260200191505060405180910390f35b61028a600480360381019080803573ffffffffffffffffffffffffffffffffffffffff169060200190929190803590602001909291905050506109df565b005b34801561029857600080fd5b506102a1610a98565b6040518082815260200191505060405180910390f35b610315600480360381019080803573ffffffffffffffffffffffffffffffffffffffff169060200190929190803573ffffffffffffffffffffffffffffffffffffffff16906020019092919080359060200190929190505050610aa5565b005b34801561032357600080fd5b50610362600480360381019080803573ffffffffffffffffffffffffffffffffffffffff16906020019092919080359060200190929190505050610c26565b6040518082815260200191505060405180910390f35b6103d6600480360381019080803573ffffffffffffffffffffffffffffffffffffffff169060200190929190803573ffffffffffffffffffffffffffffffffffffffff16906020019092919080359060200190929190505050610d32565b005b3480156103e457600080fd5b5061040360048036038101908080359060200190929190505050611005565b6040518082815260200191505060405180910390f35b34801561042557600080fd5b506104446004803603810190808035906020019092919050505061103b565b604051808273ffffffffffffffffffffffffffffffffffffffff1673ffffffffffffffffffffffffffffffffffffffff16815260200191505060405180910390f35b34801561049257600080fd5b506104c7600480360381019080803573ffffffffffffffffffffffffffffffffffffffff1690602001909291905050506110d3565b6040518082815260200191505060405180910390f35b3480156104e957600080fd5b506104f2611144565b6040518080602001828103825283818151815260200191508051906020019080838360005b83811015610532578082015181840152602081019050610517565b50505050905090810190601f16801561055f5780820380516001836020036101000a031916815260200191505b509250505060405180910390f35b34801561057957600080fd5b506105ba600480360381019080803573ffffffffffffffffffffffffffffffffffffffff1690602001909291908035151590602001909291905050506111e2565b005b610632600480360381019080803573ffffffffffffffffffffffffffffffffffffffff169060200190929190803573ffffffffffffffffffffffffffffffffffffffff1690602001909291908035906020019092919080359060200190820180359060200191909192939192939050505061131e565b005b34801561064057600080fd5b5061065f60048036038101908080359060200190929190505050611620565b6040518080602001828103825283818151815260200191508051906020019080838360005b8381101561069f578082015181840152602081019050610684565b50505050905090810190601f1680156106cc5780820380516001836020036101000a031916815260200191505b509250505060405180910390f35b3480156106e657600080fd5b5061073b600480360381019080803573ffffffffffffffffffffffffffffffffffffffff169060200190929190803573ffffffffffffffffffffffffffffffffffffffff1690602001909291905050506116d5565b604051808215151515815260200191505060405180910390f35b60006380ac58cd7c0100000000000000000000000000000000000000000000000000000000027bffffffffffffffffffffffffffffffffffffffffffffffffffffffff1916827bffffffffffffffffffffffffffffffffffffffffffffffffffffffff191614806108265750635b5e139f7c0100000000000000000000000000000000000000000000000000000000027bffffffffffffffffffffffffffffffffffffffffffffffffffffffff1916827bffffffffffffffffffffffffffffffffffffffffffffffffffffffff1916145b80610891575063780e9d637c0100000000000000000000000000000000000000000000000000000000027bffffffffffffffffffffffffffffffffffffffffffffffffffffffff1916827bffffffffffffffffffffffffffffffffffffffffffffffffffffffff1916145b1561089f57600190506108a4565b600090505b919050565b60008054600181600116156101000203166002900480601f01602080910402602001604051908101604052809291908181526020018280546001816001161561010002031660029004801561093f5780601f106109145761010080835404028352916020019161093f565b820191906000526020600020905b81548152906001019060200180831161092257829003601f168201915b505050505081565b60008160006005600083815260200190815260200160002060009054906101000a900473ffffffffffffffffffffffffffffffffffffffff1673ffffffffffffffffffffffffffffffffffffffff16141515156109a357600080fd5b6007600084815260200190815260200160002060009054906101000a900473ffffffffffffffffffffffffffffffffffffffff16915050919050565b60008160006005600083815260200190815260200160002060009054906101000a900473ffffffffffffffffffffffffffffffffffffffff1673ffffffffffffffffffffffffffffffffffffffff1614151515610a3b57600080fd5b82610a4581611769565b1515610a5057600080fd5b6005600085815260200190815260200160002060009054906101000a900473ffffffffffffffffffffffffffffffffffffffff169250610a91838686611898565b5050505050565b6000600280549050905090565b8060006005600083815260200190815260200160002060009054906101000a900473ffffffffffffffffffffffffffffffffffffffff1673ffffffffffffffffffffffffffffffffffffffff1614151515610aff57600080fd5b838383610b0b81611769565b80610b7457503373ffffffffffffffffffffffffffffffffffffffff166007600083815260200190815260200160002060009054906101000a900473ffffffffffffffffffffffffffffffffffffffff1673ffffffffffffffffffffffffffffffffffffffff16145b1515610b7f57600080fd5b8273ffffffffffffffffffffffffffffffffffffffff166005600083815260200190815260200160002060009054906101000a900473ffffffffffffffffffffffffffffffffffffffff1673ffffffffffffffffffffffffffffffffffffffff16141515610bec57600080fd5b60008273ffffffffffffffffffffffffffffffffffffffff1614151515610c1257600080fd5b610c1d878787611a08565b50505050505050565b60008060006005600083815260200190815260200160002060009054906101000a900473ffffffffffffffffffffffffffffffffffffffff1673ffffffffffffffffffffffffffffffffffffffff1614151515610c8257600080fd5b600460008573ffffffffffffffffffffffffffffffffffffffff1673ffffffffffffffffffffffffffffffffffffffff1681526020019081526020016000208054905083101515610cd257600080fd5b600460008573ffffffffffffffffffffffffffffffffffffffff1673ffffffffffffffffffffffffffffffffffffffff16815260200190815260200160002083815481101515610d1e57fe5b906000526020600020015491505092915050565b60008160006005600083815260200190815260200160002060009054906101000a900473ffffffffffffffffffffffffffffffffffffffff1673ffffffffffffffffffffffffffffffffffffffff1614151515610d8e57600080fd5b848484610d9a81611769565b80610e0357503373ffffffffffffffffffffffffffffffffffffffff166007600083815260200190815260200160002060009054906101000a900473ffffffffffffffffffffffffffffffffffffffff1673ffffffffffffffffffffffffffffffffffffffff16145b1515610e0e57600080fd5b8273ffffffffffffffffffffffffffffffffffffffff166005600083815260200190815260200160002060009054906101000a900473ffffffffffffffffffffffffffffffffffffffff1673ffffffffffffffffffffffffffffffffffffffff16141515610e7b57600080fd5b60008273ffffffffffffffffffffffffffffffffffffffff1614151515610ea157600080fd5b610eac888888611a08565b863b94506000851115610ffb5763f0b9e5ba7c0100000000000000000000000000000000000000000000000000000000028773ffffffffffffffffffffffffffffffffffffffff1663f0b9e5ba8a896040518363ffffffff167c0100000000000000000000000000000000000000000000000000000000028152600401808373ffffffffffffffffffffffffffffffffffffffff1673ffffffffffffffffffffffffffffffffffffffff168152602001828152602001806020018281038252600081526020016020019350505050602060405180830381600087803b158015610f9457600080fd5b505af1158015610fa8573d6000803e3d6000fd5b505050506040513d6020811015610fbe57600080fd5b81019080805190602001909291905050507bffffffffffffffffffffffffffffffffffffffffffffffffffffffff1916141515610ffa57600080fd5b5b5050505050505050565b60006002805490508210151561101a57600080fd5b60028281548110151561102957fe5b90600052602060002001549050919050565b60008160006005600083815260200190815260200160002060009054906101000a900473ffffffffffffffffffffffffffffffffffffffff1673ffffffffffffffffffffffffffffffffffffffff161415151561109757600080fd5b6005600084815260200190815260200160002060009054906101000a900473ffffffffffffffffffffffffffffffffffffffff16915050919050565b6000808273ffffffffffffffffffffffffffffffffffffffff16141515156110fa57600080fd5b600460008373ffffffffffffffffffffffffffffffffffffffff1673ffffffffffffffffffffffffffffffffffffffff168152602001908152602001600020805490509050919050565b60018054600181600116156101000203166002900480601f0160208091040260200160405190810160405280929190818152602001828054600181600116156101000203166002900480156111da5780601f106111af576101008083540402835291602001916111da565b820191906000526020600020905b8154815290600101906020018083116111bd57829003601f168201915b505050505081565b3373ffffffffffffffffffffffffffffffffffffffff168273ffffffffffffffffffffffffffffffffffffffff161415151561121d57600080fd5b80600860003373ffffffffffffffffffffffffffffffffffffffff1673ffffffffffffffffffffffffffffffffffffffff16815260200190815260200160002060008473ffffffffffffffffffffffffffffffffffffffff1673ffffffffffffffffffffffffffffffffffffffff16815260200190815260200160002060006101000a81548160ff0219169083151502179055508173ffffffffffffffffffffffffffffffffffffffff163373ffffffffffffffffffffffffffffffffffffffff167f17307eab39ab6107e8899845ad3d59bd9653f200f220920489ca2b5937696c3183604051808215151515815260200191505060405180910390a35050565b60008360006005600083815260200190815260200160002060009054906101000a900473ffffffffffffffffffffffffffffffffffffffff1673ffffffffffffffffffffffffffffffffffffffff161415151561137a57600080fd5b86868661138681611769565b806113ef57503373ffffffffffffffffffffffffffffffffffffffff166007600083815260200190815260200160002060009054906101000a900473ffffffffffffffffffffffffffffffffffffffff1673ffffffffffffffffffffffffffffffffffffffff16145b15156113fa57600080fd5b8273ffffffffffffffffffffffffffffffffffffffff166005600083815260200190815260200160002060009054906101000a900473ffffffffffffffffffffffffffffffffffffffff1673ffffffffffffffffffffffffffffffffffffffff1614151561146757600080fd5b60008273ffffffffffffffffffffffffffffffffffffffff161415151561148d57600080fd5b6114988a8a8a611a08565b883b945060008511156116145763f0b9e5ba7c0100000000000000000000000000000000000000000000000000000000027bffffffffffffffffffffffffffffffffffffffffffffffffffffffff19168973ffffffffffffffffffffffffffffffffffffffff1663f0b9e5ba8c8b8b8b6040518563ffffffff167c0100000000000000000000000000000000000000000000000000000000028152600401808573ffffffffffffffffffffffffffffffffffffffff1673ffffffffffffffffffffffffffffffffffffffff168152602001848152602001806020018281038252848482818152602001925080828437820191505095505050505050602060405180830381600087803b1580156115ad57600080fd5b505af11580156115c1573d6000803e3d6000fd5b505050506040513d60208110156115d757600080fd5b81019080805190602001909291905050507bffffffffffffffffffffffffffffffffffffffffffffffffffffffff191614151561161357600080fd5b5b50505050505050505050565b6060600960008381526020019081526020016000208054600181600116156101000203166002900480601f0160208091040260200160405190810160405280929190818152602001828054600181600116156101000203166002900480156116c95780601f1061169e576101008083540402835291602001916116c9565b820191906000526020600020905b8154815290600101906020018083116116ac57829003601f168201915b50505050509050919050565b6000600860008473ffffffffffffffffffffffffffffffffffffffff1673ffffffffffffffffffffffffffffffffffffffff16815260200190815260200160002060008373ffffffffffffffffffffffffffffffffffffffff1673ffffffffffffffffffffffffffffffffffffffff16815260200190815260200160002060009054906101000a900460ff16905092915050565b60003373ffffffffffffffffffffffffffffffffffffffff166005600084815260200190815260200160002060009054906101000a900473ffffffffffffffffffffffffffffffffffffffff1673ffffffffffffffffffffffffffffffffffffffff1614806118915750600860006005600085815260200190815260200160002060009054906101000a900473ffffffffffffffffffffffffffffffffffffffff1673ffffffffffffffffffffffffffffffffffffffff1673ffffffffffffffffffffffffffffffffffffffff16815260200190815260200160002060003373ffffffffffffffffffffffffffffffffffffffff1673ffffffffffffffffffffffffffffffffffffffff16815260200190815260200160002060009054906101000a900460ff165b9050919050565b8273ffffffffffffffffffffffffffffffffffffffff168273ffffffffffffffffffffffffffffffffffffffff16141515156118d357600080fd5b60006007600083815260200190815260200160002060009054906101000a900473ffffffffffffffffffffffffffffffffffffffff1673ffffffffffffffffffffffffffffffffffffffff16148015611942575060008273ffffffffffffffffffffffffffffffffffffffff16145b1561194c57600080fd5b816007600083815260200190815260200160002060006101000a81548173ffffffffffffffffffffffffffffffffffffffff021916908373ffffffffffffffffffffffffffffffffffffffff1602179055508173ffffffffffffffffffffffffffffffffffffffff168373ffffffffffffffffffffffffffffffffffffffff167f8c5be1e5ebec7d5bd14f71427d1e84f3dd0314c0f7b2291e5b200ac8c7c3b925836040518082815260200191505060405180910390a3505050565b60006007600083815260200190815260200160002060009054906101000a900473ffffffffffffffffffffffffffffffffffffffff1673ffffffffffffffffffffffffffffffffffffffff16141515611a6857611a6783600083611898565b5b611a728382611ae6565b611a7c8282611e22565b8173ffffffffffffffffffffffffffffffffffffffff168373ffffffffffffffffffffffffffffffffffffffff167fddf252ad1be2c89b69c2b068fc378daa952ba7f163c4a11628f55a4df523b3ef836040518082815260200191505060405180910390a3505050565b600080600080600360008681526020019081526020016000205493506002805490509250600260018403815481101515611b1c57fe5b9060005260206000200154600285815481101515611b3657fe5b90600052602060002001819055508360036000600260018703815481101515611b5b57fe5b9060005260206000200154815260200190815260200160002081905550600260018403815481101515611b8a57fe5b90600052602060002001600090556001600281818054905003915081611bb09190611f8a565b5060066000868152602001908152602001600020549150600460008773ffffffffffffffffffffffffffffffffffffffff1673ffffffffffffffffffffffffffffffffffffffff168152602001908152602001600020805490509050600460008773ffffffffffffffffffffffffffffffffffffffff1673ffffffffffffffffffffffffffffffffffffffff16815260200190815260200160002060018203815481101515611c5b57fe5b9060005260206000200154600460008873ffffffffffffffffffffffffffffffffffffffff1673ffffffffffffffffffffffffffffffffffffffff16815260200190815260200160002083815481101515611cb257fe5b90600052602060002001819055508160066000600460008a73ffffffffffffffffffffffffffffffffffffffff1673ffffffffffffffffffffffffffffffffffffffff16815260200190815260200160002060018503815481101515611d1457fe5b9060005260206000200154815260200190815260200160002081905550600460008773ffffffffffffffffffffffffffffffffffffffff1673ffffffffffffffffffffffffffffffffffffffff16815260200190815260200160002060018203815481101515611d8057fe5b90600052602060002001600090556001600460008873ffffffffffffffffffffffffffffffffffffffff1673ffffffffffffffffffffffffffffffffffffffff16815260200190815260200160002081818054905003915081611de39190611f8a565b506005600086815260200190815260200160002060006101000a81549073ffffffffffffffffffffffffffffffffffffffff0219169055505050505050565b60028190806001815401808255809150509060018203906000526020600020016000909192909190915055506001600280549050036003600083815260200190815260200160002081905550816005600083815260200190815260200160002060006101000a81548173ffffffffffffffffffffffffffffffffffffffff021916908373ffffffffffffffffffffffffffffffffffffffff160217905550600460008373ffffffffffffffffffffffffffffffffffffffff1673ffffffffffffffffffffffffffffffffffffffff1681526020019081526020016000208190806001815401808255809150509060018203906000526020600020016000909192909190915055506001600460008473ffffffffffffffffffffffffffffffffffffffff1673ffffffffffffffffffffffffffffffffffffffff168152602001908152602001600020805490500360066000838152602001908152602001600020819055505050565b815481835581811115611fb157818360005260206000209182019101611fb09190611fb6565b5b505050565b611fd891905b80821115611fd4576000816000905550600101611fbc565b5090565b905600a165627a7a72305820a59a977a34f65825310882eb81f1bbdbae06a8537896e6c39c8628c5460429b60029",
  "source": "pragma solidity ^0.4.21;\nimport \"./EIP721Interface.sol\";\nimport \"./EIP721MetadataInterface.sol\";\nimport \"./EIP721EnumerableInterface.sol\";\nimport \"./EIP721TokenReceiverInterface.sol\";\n\n/*\nThis is a full implementation of all ERC721's features.\nInfluenced by OpenZeppelin's implementation with some stylistic changes.\nhttps://github.com/OpenZeppelin/zeppelin-solidity/tree/master/contracts/token/ERC721\n*/\n\ncontract EIP721 is EIP721Interface, EIP721MetadataInterface, EIP721EnumerableInterface, ERC165Interface {\n    string public name;\n    string public symbol;\n\n    // all tokens\n    uint256[] internal allTokens;\n    // mapping of token IDs to its index in all Tokens array.\n    mapping(uint256 => uint256) internal allTokensIndex;\n    // Array of tokens owned by a specific owner\n    mapping(address => uint256[]) internal ownedTokens;\n    // Mapping from token ID to owner\n    mapping(uint256 => address) internal ownerOfToken;\n    // Mapping of the token ID to where it is in the owner's array.\n    mapping(uint256 => uint256) internal ownedTokensIndex;\n\n    // Mapping of a token to a specifically approved owner.\n    mapping(uint256 => address) internal approvedOwnerOfToken;\n\n    // An operator is allowed to manage all assets of another owner.\n    mapping(address => mapping (address => bool)) internal operators;\n\n    mapping(uint256 => string) internal tokenURIs;\n\n    // base ERC721 interface = 0x80ac58cd\n    // metadata interface = 0x5b5e139f\n    // enumerable interface = 0x780e9d63\n    bytes4 internal constant ERC721_BASE_INTERFACE_SIGNATURE = 0x80ac58cd;\n    bytes4 internal constant ERC721_METADATA_INTERFACE_SIGNATURE = 0x5b5e139f;\n    bytes4 internal constant ERC721_ENUMERABLE_INTERFACE_SIGNATURE = 0x780e9d63;\n    bytes4 internal constant ONERC721RECEIVED_FUNCTION_SIGNATURE = 0xf0b9e5ba;\n\n    /* Modifiers */\n    modifier tokenExists(uint256 _tokenId) {\n        require(ownerOfToken[_tokenId] != 0);\n        _;\n    }\n\n    // checks: is the owner of the token == msg.sender?\n    // OR has the owner of the token granted msg.sender access to operate?\n    modifier allowedToOperate(uint256 _tokenId) {\n        require(checkIfAllowedToOperate(_tokenId));\n        _;\n    }\n\n    modifier allowedToTransfer(address _from, address _to, uint256 _tokenId) {\n        require(checkIfAllowedToOperate(_tokenId) || approvedOwnerOfToken[_tokenId] == msg.sender);\n        require(ownerOfToken[_tokenId] == _from);\n        require(_to != 0); //not allowed to burn in transfer method\n        _;\n    }\n\n    /// @notice Transfer ownership of an NFT -- THE CALLER IS RESPONSIBLE\n    ///  TO CONFIRM THAT `_to` IS CAPABLE OF RECEIVING NFTS OR ELSE\n    ///  THEY MAY BE PERMANENTLY LOST\n    /// @dev Throws unless `msg.sender` is the current owner, an authorized\n    ///  operator, or the approved address for this NFT. Throws if `_from` is\n    ///  not the current owner. Throws if `_to` is the zero address. Throws if\n    ///  `_tokenId` is not a valid NFT.\n    /// @param _from The current owner of the NFT\n    /// @param _to The new owner\n    /// @param _tokenId The NFT to transfer\n    function transferFrom(address _from, address _to, uint256 _tokenId) external payable\n    tokenExists(_tokenId)\n    allowedToTransfer(_from, _to, _tokenId) {\n        //transfer token\n        settleTransfer(_from, _to, _tokenId);\n    }\n\n    /// @notice Transfers the ownership of an NFT from one address to another address\n    /// @dev Throws unless `msg.sender` is the current owner, an authorized\n    ///  operator, or the approved address for this NFT. Throws if `_from` is\n    ///  not the current owner. Throws if `_to` is the zero address. Throws if\n    ///  `_tokenId` is not a valid NFT. When transfer is complete, this function\n    ///  checks if `_to` is a smart contract (code size > 0). If so, it calls\n    ///  `onERC721Received` on `_to` and throws if the return value is not\n    ///  `bytes4(keccak256(\"onERC721Received(address,uint256,bytes)\"))`.\n    /// @param _from The current owner of the NFT\n    /// @param _to The new owner\n    /// @param _tokenId The NFT to transfer\n    /// @param _data Additional data with no specified format, sent in call to `_to`\n    function safeTransferFrom(address _from, address _to, uint256 _tokenId, bytes _data) external payable\n    tokenExists(_tokenId)\n    allowedToTransfer(_from, _to, _tokenId) {\n        settleTransfer(_from, _to, _tokenId);\n\n        // check if a smart contract\n        uint256 size;\n        assembly { size := extcodesize(_to) }  // solhint-disable-line no-inline-assembly\n        if (size > 0) {\n            // call on onERC721Received.\n            require(EIP721TokenReceiverInterface(_to).onERC721Received(_from, _tokenId, _data) == ONERC721RECEIVED_FUNCTION_SIGNATURE);\n        }\n    }\n\n    /// @notice Transfers the ownership of an NFT from one address to another address\n    /// @dev This works identically to the other function with an extra data parameter,\n    ///  except this function just sets data to \"\"\n    /// @param _from The current owner of the NFT\n    /// @param _to The new owner\n    /// @param _tokenId The NFT to transfer\n    function safeTransferFrom(address _from, address _to, uint256 _tokenId) external payable\n    tokenExists(_tokenId)\n    allowedToTransfer(_from, _to, _tokenId) {\n        settleTransfer(_from, _to, _tokenId);\n\n        // check if a smart contract\n        uint256 size;\n        assembly { size := extcodesize(_to) }  // solhint-disable-line no-inline-assembly\n        if (size > 0) {\n            // call on onERC721Received.\n            require(EIP721TokenReceiverInterface(_to).onERC721Received(_from, _tokenId, \"\") == 0xf0b9e5ba);\n        }\n    }\n\n    /// @notice Set or reaffirm the approved address for an NFT\n    /// @dev The zero address indicates there is no approved address.\n    /// @dev Throws unless `msg.sender` is the current NFT owner, or an authorized\n    ///  operator of the current owner.\n    /// @param _approved The new approved NFT controller\n    /// @param _tokenId The NFT to approve\n    function approve(address _approved, uint256 _tokenId) external payable\n    tokenExists(_tokenId)\n    allowedToOperate(_tokenId) {\n        address owner = ownerOfToken[_tokenId];\n        internalApprove(owner, _approved, _tokenId);\n    }\n\n    /// @notice Enable or disable approval for a third party (\"operator\") to manage\n    ///  all of `msg.sender`'s assets.\n    /// @dev Emits the ApprovalForAll event. The contract MUST allow\n    ///  multiple operators per owner.\n    /// @param _operator Address to add to the set of authorized operators.\n    /// @param _approved True if the operator is approved, false to revoke approval\n    function setApprovalForAll(address _operator, bool _approved) external {\n        require(_operator != msg.sender); // can't make oneself an operator\n        operators[msg.sender][_operator] = _approved;\n        emit ApprovalForAll(msg.sender, _operator, _approved);\n    }\n\n    /* public View Functions */\n    /// @notice Count NFTs tracked by this contract\n    /// @return A count of valid NFTs tracked by this contract, where each one of\n    ///  them has an assigned and queryable owner not equal to the zero address\n    function totalSupply() external view returns (uint256) {\n        return allTokens.length;\n    }\n\n    /// @notice Find the owner of an NFT\n    /// @param _tokenId The identifier for an NFT\n    /// @dev NFTs assigned to zero address are considered invalid, and queries\n    ///  about them do throw.\n    /// @return The address of the owner of the NFT\n    function ownerOf(uint256 _tokenId) external view\n    tokenExists(_tokenId) returns (address) {\n        return ownerOfToken[_tokenId];\n    }\n\n    /// @notice Enumerate valid NFTs\n    /// @dev Throws if `_index` >= `totalSupply()`.\n    /// @param _index A counter less than `totalSupply()`\n    /// @return The token identifier for the `_index`th NFT,\n    ///  (sort order not specified)\n    function tokenByIndex(uint256 _index) external view returns (uint256) {\n        require(_index < allTokens.length);\n        return allTokens[_index];\n    }\n\n    /// @notice Enumerate NFTs assigned to an owner\n    /// @dev Throws if `_index` >= `balanceOf(_owner)` or if\n    ///  `_owner` is the zero address, representing invalid NFTs.\n    /// @param _owner An address where we are interested in NFTs owned by them\n    /// @param _index A counter less than `balanceOf(_owner)`\n    /// @return The token identifier for the `_index`th NFT assigned to `_owner`,\n    ///   (sort order not specified)\n    function tokenOfOwnerByIndex(address _owner, uint256 _index) external view\n    tokenExists(_tokenId) returns (uint256 _tokenId) {\n        require(_index < ownedTokens[_owner].length);\n        return ownedTokens[_owner][_index];\n    }\n\n    /// @notice Count all NFTs assigned to an owner\n    /// @dev NFTs assigned to the zero address are considered invalid, and this\n    ///  function throws for queries about the zero address.\n    /// @param _owner An address for whom to query the balance\n    /// @return The number of NFTs owned by `_owner`, possibly zero\n    function balanceOf(address _owner) external view returns (uint256) {\n        require(_owner != 0);\n        return ownedTokens[_owner].length;\n    }\n\n    /// @notice Get the approved address for a single NFT\n    /// @dev Throws if `_tokenId` is not a valid NFT\n    /// @param _tokenId The NFT to find the approved address for\n    // todo: The approved address for this NFT, or the zero address if there is none\n    function getApproved(uint256 _tokenId) external view\n    tokenExists(_tokenId) returns (address) {\n        return approvedOwnerOfToken[_tokenId];\n    }\n\n    /// @notice Query if an address is an authorized operator for another address\n    /// @param _owner The address that owns the NFTs\n    /// @param _operator The address that acts on behalf of the owner\n    /// @return True if `_operator` is an approved operator for `_owner`, false otherwise\n    function isApprovedForAll(address _owner, address _operator) external view returns (bool) {\n        return operators[_owner][_operator];\n    }\n\n    /// @notice A distinct Uniform Resource Identifier (URI) for a given asset.\n    /// @dev Throws if `_tokenId` is not a valid NFT. URIs are defined in RFC\n    ///  3986. The URI may point to a JSON file that conforms to the \"ERC721\n    ///  Metadata JSON Schema\".\n    function tokenURI(uint256 _tokenId) external view returns (string) {\n        return tokenURIs[_tokenId];\n    }\n\n    /// @notice Query if a contract implements an interface\n    /// @param interfaceID The interface identifier, as specified in ERC-165\n    /// @dev Interface identification is specified in ERC-165. This function\n    ///  uses less than 30,000 gas.\n    /// @return `true` if the contract implements `interfaceID` and\n    /// `interfaceID` is not 0xffffffff, `false` otherwise\n    function supportsInterface(bytes4 interfaceID) external view returns (bool) {\n\n        if (interfaceID == ERC721_BASE_INTERFACE_SIGNATURE ||\n        interfaceID == ERC721_METADATA_INTERFACE_SIGNATURE ||\n        interfaceID == ERC721_ENUMERABLE_INTERFACE_SIGNATURE) {\n            return true;\n        } else { return false; }\n    }\n\n    /* -- Internal Functions -- */\n    function checkIfAllowedToOperate(uint256 _tokenId) internal view returns (bool) {\n        return ownerOfToken[_tokenId] == msg.sender || operators[ownerOfToken[_tokenId]][msg.sender];\n    }\n\n    function internalApprove(address _owner, address _approved, uint256 _tokenId) internal {\n        require(_approved != _owner); //can't approve to owner to itself\n\n        // Note: the following code is equivalent to: require(getApproved(_tokenId) != 0) || _approved != 0);\n        // However: I found the following easier to read & understand.\n        if (approvedOwnerOfToken[_tokenId] == 0 && _approved == 0) {\n            revert(); // add reason for revert?\n        } else {\n            approvedOwnerOfToken[_tokenId] = _approved;\n            emit Approval(_owner, _approved, _tokenId);\n        }\n    }\n\n    function settleTransfer(address _from, address _to, uint256 _tokenId) internal {\n        //clear pending approvals if there are any\n        if (approvedOwnerOfToken[_tokenId] != 0) {\n            internalApprove(_from, 0, _tokenId);\n        }\n\n        removeToken(_from, _tokenId);\n        addToken(_to, _tokenId);\n\n        emit Transfer(_from, _to, _tokenId);\n    }\n\n    function addToken(address _to, uint256 _tokenId) internal {\n        // add new token to all tokens\n        allTokens.push(_tokenId);\n        // add new token to index of all tokens.\n        allTokensIndex[_tokenId] = allTokens.length-1;\n\n        // set token to be owned by address _to\n        ownerOfToken[_tokenId] = _to;\n        // add that token to an array keeping track of tokens owned by that address\n        ownedTokens[_to].push(_tokenId);\n        // add newly pushed to index.\n        ownedTokensIndex[_tokenId] = ownedTokens[_to].length-1;\n    }\n\n    function removeToken(address _from, uint256 _tokenId) internal {\n\n        // remove token from allTokens array.\n        uint256 allIndex = allTokensIndex[_tokenId];\n        uint256 allTokensLength = allTokens.length;\n        //1) Put last item into index of token to be removed.\n        allTokens[allIndex] = allTokens[allTokensLength - 1];\n        //2) Take last item that beens moved to the removed token & update its index\n        allTokensIndex[allTokens[allTokensLength-1]] = allIndex;\n        //3) delete last item (since it's now a duplicate)\n        delete allTokens[allTokensLength-1];\n        //4) reduce length of array\n        allTokens.length -= 1;\n\n        // remove token from owner array.\n        // get the index of where this token is in the owner's array\n        uint256 ownerIndex = ownedTokensIndex[_tokenId];\n        uint256 ownerLength = ownedTokens[_from].length;\n        /* Remove Token From Index */\n        //1) Put last item into index of token to be removed.\n        ownedTokens[_from][ownerIndex] = ownedTokens[_from][ownerLength-1];\n        //2) Take last item that beens moved to the removed token & update its index\n        ownedTokensIndex[ownedTokens[_from][ownerLength-1]] = ownerIndex;\n        //3) delete last item (since it's now a duplicate)\n        delete ownedTokens[_from][ownerLength-1];\n        //4) reduce length of array\n        ownedTokens[_from].length -= 1;\n\n        delete ownerOfToken[_tokenId];\n    }\n}\n",
  "sourcePath": "/Users/simondlr/code/ethereum/contracts-badges/contracts/eip721/EIP721.sol",
  "compiler": {
    "name": "solc",
    "version": "0.4.23+commit.124ca40d.Emscripten.clang"
  },
  "schemaVersion": "2.0.0",
  "updatedAt": "2018-05-09T21:20:21.982Z"
}