{
  "contractName": "ERC721",
  "abi": [
    {
      "constant": true,
      "inputs": [],
      "name": "name",
      "outputs": [
        {
          "name": "",
          "type": "string"
        }
      ],
      "payable": false,
      "stateMutability": "view",
      "type": "function"
    },
    {
      "constant": true,
      "inputs": [],
      "name": "totalSupply",
      "outputs": [
        {
          "name": "",
          "type": "uint256"
        }
      ],
      "payable": false,
      "stateMutability": "view",
      "type": "function"
    },
    {
      "constant": true,
      "inputs": [
        {
          "name": "",
          "type": "uint256"
        }
      ],
      "name": "tokenOwner",
      "outputs": [
        {
          "name": "",
          "type": "address"
        }
      ],
      "payable": false,
      "stateMutability": "view",
      "type": "function"
    },
    {
      "constant": true,
      "inputs": [
        {
          "name": "",
          "type": "uint256"
        }
      ],
      "name": "allowed",
      "outputs": [
        {
          "name": "",
          "type": "address"
        }
      ],
      "payable": false,
      "stateMutability": "view",
      "type": "function"
    },
    {
      "constant": true,
      "inputs": [
        {
          "name": "",
          "type": "address"
        }
      ],
      "name": "balances",
      "outputs": [
        {
          "name": "",
          "type": "uint256"
        }
      ],
      "payable": false,
      "stateMutability": "view",
      "type": "function"
    },
    {
      "constant": true,
      "inputs": [
        {
          "name": "",
          "type": "uint256"
        }
      ],
      "name": "tokenMetadata",
      "outputs": [
        {
          "name": "",
          "type": "string"
        }
      ],
      "payable": false,
      "stateMutability": "view",
      "type": "function"
    },
    {
      "constant": true,
      "inputs": [],
      "name": "symbol",
      "outputs": [
        {
          "name": "",
          "type": "string"
        }
      ],
      "payable": false,
      "stateMutability": "view",
      "type": "function"
    },
    {
      "constant": true,
      "inputs": [
        {
          "name": "",
          "type": "uint256"
        }
      ],
      "name": "tokenIndexInOwnerArray",
      "outputs": [
        {
          "name": "",
          "type": "uint256"
        }
      ],
      "payable": false,
      "stateMutability": "view",
      "type": "function"
    },
    {
      "constant": true,
      "inputs": [
        {
          "name": "",
          "type": "address"
        },
        {
          "name": "",
          "type": "uint256"
        }
      ],
      "name": "ownedTokens",
      "outputs": [
        {
          "name": "",
          "type": "uint256"
        }
      ],
      "payable": false,
      "stateMutability": "view",
      "type": "function"
    },
    {
      "anonymous": false,
      "inputs": [
        {
          "indexed": true,
          "name": "from",
          "type": "address"
        },
        {
          "indexed": true,
          "name": "to",
          "type": "address"
        },
        {
          "indexed": true,
          "name": "tokenId",
          "type": "uint256"
        }
      ],
      "name": "Transfer",
      "type": "event"
    },
    {
      "anonymous": false,
      "inputs": [
        {
          "indexed": true,
          "name": "owner",
          "type": "address"
        },
        {
          "indexed": true,
          "name": "approved",
          "type": "address"
        },
        {
          "indexed": false,
          "name": "tokenId",
          "type": "uint256"
        }
      ],
      "name": "Approval",
      "type": "event"
    },
    {
      "constant": true,
      "inputs": [
        {
          "name": "_owner",
          "type": "address"
        },
        {
          "name": "_index",
          "type": "uint256"
        }
      ],
      "name": "tokenOfOwnerByIndex",
      "outputs": [
        {
          "name": "",
          "type": "uint256"
        }
      ],
      "payable": false,
      "stateMutability": "view",
      "type": "function"
    },
    {
      "constant": true,
      "inputs": [
        {
          "name": "_owner",
          "type": "address"
        }
      ],
      "name": "getAllTokens",
      "outputs": [
        {
          "name": "",
          "type": "uint256[]"
        }
      ],
      "payable": false,
      "stateMutability": "view",
      "type": "function"
    },
    {
      "constant": true,
      "inputs": [
        {
          "name": "_owner",
          "type": "address"
        }
      ],
      "name": "balanceOf",
      "outputs": [
        {
          "name": "",
          "type": "uint256"
        }
      ],
      "payable": false,
      "stateMutability": "view",
      "type": "function"
    },
    {
      "constant": true,
      "inputs": [
        {
          "name": "_tokenId",
          "type": "uint256"
        }
      ],
      "name": "ownerOf",
      "outputs": [
        {
          "name": "",
          "type": "address"
        }
      ],
      "payable": false,
      "stateMutability": "view",
      "type": "function"
    },
    {
      "constant": false,
      "inputs": [
        {
          "name": "_to",
          "type": "address"
        },
        {
          "name": "_tokenId",
          "type": "uint256"
        }
      ],
      "name": "approve",
      "outputs": [],
      "payable": false,
      "stateMutability": "nonpayable",
      "type": "function"
    },
    {
      "constant": false,
      "inputs": [
        {
          "name": "_from",
          "type": "address"
        },
        {
          "name": "_to",
          "type": "address"
        },
        {
          "name": "_tokenId",
          "type": "uint256"
        }
      ],
      "name": "transferFrom",
      "outputs": [],
      "payable": false,
      "stateMutability": "nonpayable",
      "type": "function"
    },
    {
      "constant": false,
      "inputs": [
        {
          "name": "_to",
          "type": "address"
        },
        {
          "name": "_tokenId",
          "type": "uint256"
        }
      ],
      "name": "transfer",
      "outputs": [],
      "payable": false,
      "stateMutability": "nonpayable",
      "type": "function"
    },
    {
      "constant": false,
      "inputs": [
        {
          "name": "_tokenId",
          "type": "uint256"
        }
      ],
      "name": "takeOwnership",
      "outputs": [],
      "payable": false,
      "stateMutability": "nonpayable",
      "type": "function"
    }
  ],
  "bytecode": "0x6060604052341561000f57600080fd5b6116f58061001e6000396000f3006060604052600436106100f1576000357c0100000000000000000000000000000000000000000000000000000000900463ffffffff16806306fdde03146100f6578063095ea7b314610184578063178b6de6146101c657806318160ddd146102545780631caaa4871461027d578063214296e8146102e057806323b872dd1461034357806327e235e3146103a45780632f745c59146103f15780636352211e146104475780636914db60146104aa57806370a082311461054657806395d89b4114610593578063a53f603214610621578063a9059cbb14610658578063b2e6ceeb1461069a578063e149f036146106bd575b600080fd5b341561010157600080fd5b610109610713565b6040518080602001828103825283818151815260200191508051906020019080838360005b8381101561014957808201518184015260208101905061012e565b50505050905090810190601f1680156101765780820380516001836020036101000a031916815260200191505b509250505060405180910390f35b341561018f57600080fd5b6101c4600480803573ffffffffffffffffffffffffffffffffffffffff169060200190919080359060200190919050506107b1565b005b34156101d157600080fd5b6101fd600480803573ffffffffffffffffffffffffffffffffffffffff169060200190919050506107c0565b6040518080602001828103825283818151815260200191508051906020019060200280838360005b83811015610240578082015181840152602081019050610225565b505050509050019250505060405180910390f35b341561025f57600080fd5b6102676108d0565b6040518082815260200191505060405180910390f35b341561028857600080fd5b61029e60048080359060200190919050506108d6565b604051808273ffffffffffffffffffffffffffffffffffffffff1673ffffffffffffffffffffffffffffffffffffffff16815260200191505060405180910390f35b34156102eb57600080fd5b6103016004808035906020019091905050610909565b604051808273ffffffffffffffffffffffffffffffffffffffff1673ffffffffffffffffffffffffffffffffffffffff16815260200191505060405180910390f35b341561034e57600080fd5b6103a2600480803573ffffffffffffffffffffffffffffffffffffffff1690602001909190803573ffffffffffffffffffffffffffffffffffffffff1690602001909190803590602001909190505061093c565b005b34156103af57600080fd5b6103db600480803573ffffffffffffffffffffffffffffffffffffffff16906020019091905050610a26565b6040518082815260200191505060405180910390f35b34156103fc57600080fd5b610431600480803573ffffffffffffffffffffffffffffffffffffffff16906020019091908035906020019091905050610a3e565b6040518082815260200191505060405180910390f35b341561045257600080fd5b6104686004808035906020019091905050610ac2565b604051808273ffffffffffffffffffffffffffffffffffffffff1673ffffffffffffffffffffffffffffffffffffffff16815260200191505060405180910390f35b34156104b557600080fd5b6104cb6004808035906020019091905050610b5a565b6040518080602001828103825283818151815260200191508051906020019080838360005b8381101561050b5780820151818401526020810190506104f0565b50505050905090810190601f1680156105385780820380516001836020036101000a031916815260200191505b509250505060405180910390f35b341561055157600080fd5b61057d600480803573ffffffffffffffffffffffffffffffffffffffff16906020019091905050610c0a565b6040518082815260200191505060405180910390f35b341561059e57600080fd5b6105a6610c53565b6040518080602001828103825283818151815260200191508051906020019080838360005b838110156105e65780820151818401526020810190506105cb565b50505050905090810190601f1680156106135780820380516001836020036101000a031916815260200191505b509250505060405180910390f35b341561062c57600080fd5b6106426004808035906020019091905050610cf1565b6040518082815260200191505060405180910390f35b341561066357600080fd5b610698600480803573ffffffffffffffffffffffffffffffffffffffff16906020019091908035906020019091905050610d09565b005b34156106a557600080fd5b6106bb6004808035906020019091905050610d85565b005b34156106c857600080fd5b6106fd600480803573ffffffffffffffffffffffffffffffffffffffff16906020019091908035906020019091905050610dcc565b6040518082815260200191505060405180910390f35b60018054600181600116156101000203166002900480601f0160208091040260200160405190810160405280929190818152602001828054600181600116156101000203166002900480156107a95780601f1061077e576101008083540402835291602001916107a9565b820191906000526020600020905b81548152906001019060200180831161078c57829003601f168201915b505050505081565b6107bc338383610dfd565b5050565b6107c8611638565b60006107d2611638565b6000600460008673ffffffffffffffffffffffffffffffffffffffff1673ffffffffffffffffffffffffffffffffffffffff168152602001908152602001600020549250826040518059106108245750595b90808252806020026020018201604052509150600090505b828110156108c557600360008673ffffffffffffffffffffffffffffffffffffffff1673ffffffffffffffffffffffffffffffffffffffff1681526020019081526020016000208181548110151561089057fe5b90600052602060002090015482828151811015156108aa57fe5b9060200190602002018181525050808060010191505061083c565b819350505050919050565b60005481565b60066020528060005260406000206000915054906101000a900473ffffffffffffffffffffffffffffffffffffffff1681565b60076020528060005260406000206000915054906101000a900473ffffffffffffffffffffffffffffffffffffffff1681565b3373ffffffffffffffffffffffffffffffffffffffff166007600083815260200190815260200160002060009054906101000a900473ffffffffffffffffffffffffffffffffffffffff1673ffffffffffffffffffffffffffffffffffffffff161415156109a957600080fd5b8273ffffffffffffffffffffffffffffffffffffffff166006600083815260200190815260200160002060009054906101000a900473ffffffffffffffffffffffffffffffffffffffff1673ffffffffffffffffffffffffffffffffffffffff16141515610a1657600080fd5b610a218383836110c1565b505050565b60046020528060005260406000206000915090505481565b6000808210158015610a575750610a5483610c0a565b82105b1515610a6257600080fd5b600360008473ffffffffffffffffffffffffffffffffffffffff1673ffffffffffffffffffffffffffffffffffffffff16815260200190815260200160002082815481101515610aae57fe5b906000526020600020900154905092915050565b60008160006006600083815260200190815260200160002060009054906101000a900473ffffffffffffffffffffffffffffffffffffffff1673ffffffffffffffffffffffffffffffffffffffff1614151515610b1e57600080fd5b6006600084815260200190815260200160002060009054906101000a900473ffffffffffffffffffffffffffffffffffffffff16915050919050565b60086020528060005260406000206000915090508054600181600116156101000203166002900480601f016020809104026020016040519081016040528092919081815260200182805460018160011615610100020316600290048015610c025780601f10610bd757610100808354040283529160200191610c02565b820191906000526020600020905b815481529060010190602001808311610be557829003601f168201915b505050505081565b6000600460008373ffffffffffffffffffffffffffffffffffffffff1673ffffffffffffffffffffffffffffffffffffffff168152602001908152602001600020549050919050565b60028054600181600116156101000203166002900480601f016020809104026020016040519081016040528092919081815260200182805460018160011615610100020316600290048015610ce95780601f10610cbe57610100808354040283529160200191610ce9565b820191906000526020600020905b815481529060010190602001808311610ccc57829003601f168201915b505050505081565b60056020528060005260406000206000915090505481565b3373ffffffffffffffffffffffffffffffffffffffff166006600083815260200190815260200160002060009054906101000a900473ffffffffffffffffffffffffffffffffffffffff1673ffffffffffffffffffffffffffffffffffffffff16141515610d7657600080fd5b610d813383836110c1565b5050565b60006006600083815260200190815260200160002060009054906101000a900473ffffffffffffffffffffffffffffffffffffffff169050610dc881338461093c565b5050565b600360205281600052604060002081815481101515610de757fe5b9060005260206000209001600091509150505481565b60008160006006600083815260200190815260200160002060009054906101000a900473ffffffffffffffffffffffffffffffffffffffff1673ffffffffffffffffffffffffffffffffffffffff1614151515610e5957600080fd5b8473ffffffffffffffffffffffffffffffffffffffff166006600085815260200190815260200160002060009054906101000a900473ffffffffffffffffffffffffffffffffffffffff1673ffffffffffffffffffffffffffffffffffffffff16141515610ec657600080fd5b8473ffffffffffffffffffffffffffffffffffffffff168473ffffffffffffffffffffffffffffffffffffffff1614151515610f0157600080fd5b6007600084815260200190815260200160002060009054906101000a900473ffffffffffffffffffffffffffffffffffffffff169150836007600085815260200190815260200160002060006101000a81548173ffffffffffffffffffffffffffffffffffffffff021916908373ffffffffffffffffffffffffffffffffffffffff16021790555060008273ffffffffffffffffffffffffffffffffffffffff16148015610fc6575060008473ffffffffffffffffffffffffffffffffffffffff1614155b8061100b575060008273ffffffffffffffffffffffffffffffffffffffff161415801561100a575060008473ffffffffffffffffffffffffffffffffffffffff1614155b5b8061104f575060008273ffffffffffffffffffffffffffffffffffffffff161415801561104e575060008473ffffffffffffffffffffffffffffffffffffffff16145b5b156110ba578373ffffffffffffffffffffffffffffffffffffffff168573ffffffffffffffffffffffffffffffffffffffff167f8c5be1e5ebec7d5bd14f71427d1e84f3dd0314c0f7b2291e5b200ac8c7c3b925856040518082815260200191505060405180910390a35b5050505050565b60008273ffffffffffffffffffffffffffffffffffffffff16141515156110e757600080fd5b6110f1838261115b565b6110fb82826114d1565b808273ffffffffffffffffffffffffffffffffffffffff168473ffffffffffffffffffffffffffffffffffffffff167fddf252ad1be2c89b69c2b068fc378daa952ba7f163c4a11628f55a4df523b3ef60405160405180910390a4505050565b60008160006006600083815260200190815260200160002060009054906101000a900473ffffffffffffffffffffffffffffffffffffffff1673ffffffffffffffffffffffffffffffffffffffff16141515156111b757600080fd5b6111c384600085610dfd565b6006600084815260200190815260200160002060006101000a81549073ffffffffffffffffffffffffffffffffffffffff021916905560056000848152602001908152602001600020549150600360008573ffffffffffffffffffffffffffffffffffffffff1673ffffffffffffffffffffffffffffffffffffffff1681526020019081526020016000206001600460008773ffffffffffffffffffffffffffffffffffffffff1673ffffffffffffffffffffffffffffffffffffffff168152602001908152602001600020540381548110151561129d57fe5b906000526020600020900154600360008673ffffffffffffffffffffffffffffffffffffffff1673ffffffffffffffffffffffffffffffffffffffff168152602001908152602001600020838154811015156112f557fe5b90600052602060002090018190555060056000848152602001908152602001600020600090558160056000600360008873ffffffffffffffffffffffffffffffffffffffff1673ffffffffffffffffffffffffffffffffffffffff1681526020019081526020016000208581548110151561136c57fe5b906000526020600020900154815260200190815260200160002081905550600360008573ffffffffffffffffffffffffffffffffffffffff1673ffffffffffffffffffffffffffffffffffffffff1681526020019081526020016000206001600460008773ffffffffffffffffffffffffffffffffffffffff1673ffffffffffffffffffffffffffffffffffffffff168152602001908152602001600020540381548110151561141857fe5b9060005260206000209001600090556001600360008673ffffffffffffffffffffffffffffffffffffffff1673ffffffffffffffffffffffffffffffffffffffff1681526020019081526020016000208181805490500391508161147c919061164c565b506001600460008673ffffffffffffffffffffffffffffffffffffffff1673ffffffffffffffffffffffffffffffffffffffff1681526020019081526020016000206000828254039250508190555050505050565b816006600083815260200190815260200160002060006101000a81548173ffffffffffffffffffffffffffffffffffffffff021916908373ffffffffffffffffffffffffffffffffffffffff160217905550600360008373ffffffffffffffffffffffffffffffffffffffff1673ffffffffffffffffffffffffffffffffffffffff16815260200190815260200160002080548060010182816115749190611678565b9160005260206000209001600083909190915055506001600360008473ffffffffffffffffffffffffffffffffffffffff1673ffffffffffffffffffffffffffffffffffffffff168152602001908152602001600020805490500360056000838152602001908152602001600020819055506001600460008473ffffffffffffffffffffffffffffffffffffffff1673ffffffffffffffffffffffffffffffffffffffff168152602001908152602001600020600082825401925050819055505050565b602060405190810160405280600081525090565b8154818355818115116116735781836000526020600020918201910161167291906116a4565b5b505050565b81548183558181151161169f5781836000526020600020918201910161169e91906116a4565b5b505050565b6116c691905b808211156116c25760008160009055506001016116aa565b5090565b905600a165627a7a7230582036952eeca6cbb897b16bf17b79bad09546ac6f78eceb28299076a6ff39b8f7140029",
  "source": "pragma solidity 0.4.19;\nimport \"./ERC721Interface.sol\";\n\n\n/// @title Interface for contracts conforming to ERC-721: Non-Fungible Tokens\n/// @author Dieter Shirley <dete@axiomzen.co> (https://github.com/dete)\n// https://github.com/ethereum/EIPs/issues/721\n// Derived from https://github.com/decentraland/land/blob/master/contracts/BasicNFT.sol\n// & https://github.com/axiomzen/cryptokitties-bounty/blob/master/contracts/KittyOwnership.sol\n// & https://github.com/axiomzen/cryptokitties-bounty/blob/master/contracts/KittyBase.sol\ncontract ERC721 is ERC721Interface {\n\n    uint256 public totalSupply;\n    string public name;\n    string public symbol;\n\n    // Array of owned tokens for a user\n    mapping(address => uint256[]) public ownedTokens;\n    mapping(address => uint256) public balances;\n    mapping(uint256 => uint256) public tokenIndexInOwnerArray;\n\n    // Mapping from token ID to owner\n    mapping(uint256 => address) public tokenOwner;\n\n    // Allowed transfers for a token (only one at a time)\n    mapping(uint256 => address) public allowed;\n\n    // Metadata associated with each token\n    mapping(uint256 => string) public tokenMetadata;\n\n    modifier tokenExists(uint256 _tokenId) {\n        require(tokenOwner[_tokenId] != 0);\n        _;\n    }\n\n    function tokenOfOwnerByIndex(address _owner, uint256 _index) external view returns (uint256) {\n        require(_index >= 0 && _index < balanceOf(_owner));\n        return ownedTokens[_owner][_index];\n    }\n\n    function getAllTokens(address _owner) public view returns (uint256[]) {\n        uint size = balances[_owner];\n        uint[] memory result = new uint256[](size);\n        for (uint i = 0; i < size; i++) {\n            result[i] = ownedTokens[_owner][i];\n        }\n        return result;\n    }\n\n    //how many badges of a specific release someone owns\n    function balanceOf(address _owner) public view returns (uint256) {\n        return balances[_owner];\n    }\n\n    //who owns a specific badge\n    function ownerOf(uint256 _tokenId) public view tokenExists(_tokenId) returns (address) {\n        return tokenOwner[_tokenId];\n    }\n\n    //approve a contract to transfer badge on your behalf\n    function approve(address _to, uint256 _tokenId) public {\n        internalApprove(msg.sender, _to, _tokenId);\n    }\n\n    //an approved contract transfers the badge for you (after approval)\n    function transferFrom(address _from, address _to, uint256 _tokenId) public {\n        require(allowed[_tokenId] == msg.sender); //allowed to transfer\n        require(tokenOwner[_tokenId] == _from); //token should still be in control of owner\n\n        internalTransfer(_from, _to, _tokenId);\n    }\n\n    //transfer badge to someone else.\n    function transfer(address _to, uint256 _tokenId) public {\n        require(tokenOwner[_tokenId] == msg.sender); //sender must be owner\n\n        //transfer token\n        internalTransfer(msg.sender, _to, _tokenId);\n    }\n\n    function takeOwnership(uint256 _tokenId) public {\n        address _from = tokenOwner[_tokenId];\n        transferFrom(_from, msg.sender, _tokenId);\n    }\n\n    function internalApprove(address _owner, address _to, uint256 _tokenId) internal tokenExists(_tokenId) {\n        require(tokenOwner[_tokenId] == _owner); //must be owner of the token to set approval\n        require(_to != _owner); //can't approve to same address\n\n        address oldApprovedAddress = allowed[_tokenId];\n        allowed[_tokenId] = _to;\n\n        if ((oldApprovedAddress == 0 && _to != 0) //set new approval\n        || (oldApprovedAddress != 0 && _to != 0) //change/reaffirm approval\n        || (oldApprovedAddress != 0 && _to == 0)) { //clear approval\n            Approval(_owner, _to, _tokenId);\n        }\n    }\n\n    function internalTransfer(address _from, address _to, uint256 _tokenId) internal {\n        require(_to != 0); //not allowed to burn in transfer method\n        removeToken(_from, _tokenId);\n        addToken(_to, _tokenId);\n\n        Transfer(_from, _to, _tokenId);\n    }\n\n    function removeToken(address _from, uint256 _tokenId) internal tokenExists(_tokenId) {\n        //clear pending approvals\n        internalApprove(_from, 0, _tokenId);\n\n        delete tokenOwner[_tokenId]; //remove token from circulation (effectively remove ownership access)\n\n        //next: remove token from owner's helper data structures.\n        uint256 index = tokenIndexInOwnerArray[_tokenId];\n\n        //1) Put last item into index of token to be removed.\n        ownedTokens[_from][index] = ownedTokens[_from][balances[_from]-1];\n\n        //2) remove from index array\n        delete tokenIndexInOwnerArray[_tokenId];\n\n        //3 update index array of token that was moved into the token that was removed\n        tokenIndexInOwnerArray[ownedTokens[_from][index]] = index;\n\n        //4) delete last item (since it's now a duplicate)\n        delete ownedTokens[_from][balances[_from]-1];\n\n        //5) reduce length of array\n        ownedTokens[_from].length -= 1;\n        balances[_from] -= 1;\n    }\n\n    function addToken(address _to, uint256 _tokenId) internal {\n        tokenOwner[_tokenId] = _to;\n        ownedTokens[_to].push(_tokenId);\n        tokenIndexInOwnerArray[_tokenId] = ownedTokens[_to].length-1;\n        balances[_to] += 1;\n    }\n\n    event Transfer(address indexed from, address indexed to, uint256 indexed tokenId); //solhint-disable-line no-simple-event-func-name, max-line-length\n    event Approval(address indexed owner, address indexed approved, uint256 tokenId);\n}\n",
  "sourcePath": "/Users/simondlr/code/ethereum/ujo-contracts/tokens/contracts/ERC721.sol",
  "compiler": {
    "name": "solc",
    "version": "0.4.19+commit.c4cbbb05.Emscripten.clang"
  },
  "schemaVersion": "1.0.1",
  "updatedAt": "2018-02-16T11:40:32.779Z"
}