{
  "contractName": "InitBadges",
  "abi": [
    {
      "constant": false,
      "inputs": [],
      "name": "initialise",
      "outputs": [],
      "payable": false,
      "stateMutability": "nonpayable",
      "type": "function"
    }
  ],
  "bytecode": "0x608060405234801561001057600080fd5b50612ec5806100206000396000f300608060405260043610610041576000357c0100000000000000000000000000000000000000000000000000000000900463ffffffff168063592e6f5914610046575b600080fd5b34801561005257600080fd5b5061005b61005d565b005b60608060016040519080825280602002602001820160405280156100905781602001602082028038833980820191505090505b50915060016040519080825280602002602001820160405280156100c35781602001602082028038833980820191505090505b50905060648160008151811015156100d757fe5b906020019060200201818152505073804a981c929c133cfc95e0094495325f5d84fdd382600081518110151561010957fe5b9060200190602002019073ffffffffffffffffffffffffffffffffffffffff16908173ffffffffffffffffffffffffffffffffffffffff16815250503073ffffffffffffffffffffffffffffffffffffffff1673aaa8a090e78724c8e3f3de407205fff16001756883836005604051602401808573ffffffffffffffffffffffffffffffffffffffff1673ffffffffffffffffffffffffffffffffffffffff1681526020018060200180602001806020018560ff168152602001848103845260318152602001807f7a647075417445636f646f7a7a55477653645a6171594b453850646f5778476481526020017f714d4848795645734165446f73366e766f000000000000000000000000000000815250604001848103835287818151815260200191508051906020019060200280838360005b8381101561025857808201518184015260208101905061023d565b50505050905001848103825286818151815260200191508051906020019060200280838360005b8381101561029a57808201518184015260208101905061027f565b505050509050019750505050505050506040516020818303038152906040527fc79cb4be000000000000000000000000000000000000000000000000000000007bffffffffffffffffffffffffffffffffffffffffffffffffffffffff19166020820180517bffffffffffffffffffffffffffffffffffffffffffffffffffffffff838183161783525050505060405180828051906020019080838360005b83811015610354578082015181840152602081019050610339565b50505050905090810190601f1680156103815780820380516001836020036101000a031916815260200191505b50915050600060405180830381855af49150505073d1c2388c9b40a1c1d4340924b8cc8dc9876499b48260008151811015156103b957fe5b9060200190602002019073ffffffffffffffffffffffffffffffffffffffff16908173ffffffffffffffffffffffffffffffffffffffff16815250503073ffffffffffffffffffffffffffffffffffffffff1673aaa8a090e78724c8e3f3de407205fff16001756883836005604051602401808573ffffffffffffffffffffffffffffffffffffffff1673ffffffffffffffffffffffffffffffffffffffff1681526020018060200180602001806020018560ff168152602001848103845260318152602001807f7a64707541796e36505168665856626b38766a56754c66696e5551736378796e81526020017f384a4e64454a725379654177376b44446e000000000000000000000000000000815250604001848103835287818151815260200191508051906020019060200280838360005b838110156105085780820151818401526020810190506104ed565b50505050905001848103825286818151815260200191508051906020019060200280838360005b8381101561054a57808201518184015260208101905061052f565b505050509050019750505050505050506040516020818303038152906040527fc79cb4be000000000000000000000000000000000000000000000000000000007bffffffffffffffffffffffffffffffffffffffffffffffffffffffff19166020820180517bffffffffffffffffffffffffffffffffffffffffffffffffffffffff838183161783525050505060405180828051906020019080838360005b838110156106045780820151818401526020810190506105e9565b50505050905090810190601f1680156106315780820380516001836020036101000a031916815260200191505b50915050600060405180830381855af4915050507366be39d22b9e7177096db4c96aee4106e44d491082600081518110151561066957fe5b9060200190602002019073ffffffffffffffffffffffffffffffffffffffff16908173ffffffffffffffffffffffffffffffffffffffff16815250503073ffffffffffffffffffffffffffffffffffffffff1673aaa8a090e78724c8e3f3de407205fff16001756883836005604051602401808573ffffffffffffffffffffffffffffffffffffffff1673ffffffffffffffffffffffffffffffffffffffff1681526020018060200180602001806020018560ff168152602001848103845260318152602001807f7a6470754176725546763571537a4677546a314744726f33386b536a5634547a81526020017f4d6a4b516b344270796470523868796363000000000000000000000000000000815250604001848103835287818151815260200191508051906020019060200280838360005b838110156107b857808201518184015260208101905061079d565b50505050905001848103825286818151815260200191508051906020019060200280838360005b838110156107fa5780820151818401526020810190506107df565b505050509050019750505050505050506040516020818303038152906040527fc79cb4be000000000000000000000000000000000000000000000000000000007bffffffffffffffffffffffffffffffffffffffffffffffffffffffff19166020820180517bffffffffffffffffffffffffffffffffffffffffffffffffffffffff838183161783525050505060405180828051906020019080838360005b838110156108b4578082015181840152602081019050610899565b50505050905090810190601f1680156108e15780820380516001836020036101000a031916815260200191505b50915050600060405180830381855af491505050736c0a787bbab04f9882e88add5bdf5d04c9aa650a82600081518110151561091957fe5b9060200190602002019073ffffffffffffffffffffffffffffffffffffffff16908173ffffffffffffffffffffffffffffffffffffffff16815250503073ffffffffffffffffffffffffffffffffffffffff16736c0a787bbab04f9882e88add5bdf5d04c9aa650a83836005604051602401808573ffffffffffffffffffffffffffffffffffffffff1673ffffffffffffffffffffffffffffffffffffffff1681526020018060200180602001806020018560ff168152602001848103845260318152602001807f7a6470754232446545414a6565514e66514b396a35554c71457a3233384c334c81526020017f424751704a63313376515a705441745757000000000000000000000000000000815250604001848103835287818151815260200191508051906020019060200280838360005b83811015610a68578082015181840152602081019050610a4d565b50505050905001848103825286818151815260200191508051906020019060200280838360005b83811015610aaa578082015181840152602081019050610a8f565b505050509050019750505050505050506040516020818303038152906040527fc79cb4be000000000000000000000000000000000000000000000000000000007bffffffffffffffffffffffffffffffffffffffffffffffffffffffff19166020820180517bffffffffffffffffffffffffffffffffffffffffffffffffffffffff838183161783525050505060405180828051906020019080838360005b83811015610b64578082015181840152602081019050610b49565b50505050905090810190601f168015610b915780820380516001836020036101000a031916815260200191505b50915050600060405180830381855af4915050507376bc4c780dd85558bc4b24a4f262f4eb0be78ca7826000815181101515610bc957fe5b9060200190602002019073ffffffffffffffffffffffffffffffffffffffff16908173ffffffffffffffffffffffffffffffffffffffff16815250503073ffffffffffffffffffffffffffffffffffffffff16739fd5cc5e68796f08edc54e738585227ad2b6c03f83836005604051602401808573ffffffffffffffffffffffffffffffffffffffff1673ffffffffffffffffffffffffffffffffffffffff1681526020018060200180602001806020018560ff168152602001848103845260318152602001807f7a64707541786458577353674e77503833625056626b6176436f57546947747a81526020017f585a444e657856513447574d5043786850000000000000000000000000000000815250604001848103835287818151815260200191508051906020019060200280838360005b83811015610d18578082015181840152602081019050610cfd565b50505050905001848103825286818151815260200191508051906020019060200280838360005b83811015610d5a578082015181840152602081019050610d3f565b505050509050019750505050505050506040516020818303038152906040527fc79cb4be000000000000000000000000000000000000000000000000000000007bffffffffffffffffffffffffffffffffffffffffffffffffffffffff19166020820180517bffffffffffffffffffffffffffffffffffffffffffffffffffffffff838183161783525050505060405180828051906020019080838360005b83811015610e14578082015181840152602081019050610df9565b50505050905090810190601f168015610e415780820380516001836020036101000a031916815260200191505b50915050600060405180830381855af491505050732abfe45394df8dcea4bc8006bab2cc5a850a9305826000815181101515610e7957fe5b9060200190602002019073ffffffffffffffffffffffffffffffffffffffff16908173ffffffffffffffffffffffffffffffffffffffff16815250503073ffffffffffffffffffffffffffffffffffffffff16731318d3420b0169522eb8f3ef0830acee700a2eda83836005604051602401808573ffffffffffffffffffffffffffffffffffffffff1673ffffffffffffffffffffffffffffffffffffffff1681526020018060200180602001806020018560ff168152602001848103845260318152602001807f7a647075416d3474524c38396453534632567461364141796a584b796879563481526020017f3977715078716d7377664d31666e6f736d000000000000000000000000000000815250604001848103835287818151815260200191508051906020019060200280838360005b83811015610fc8578082015181840152602081019050610fad565b50505050905001848103825286818151815260200191508051906020019060200280838360005b8381101561100a578082015181840152602081019050610fef565b505050509050019750505050505050506040516020818303038152906040527fc79cb4be000000000000000000000000000000000000000000000000000000007bffffffffffffffffffffffffffffffffffffffffffffffffffffffff19166020820180517bffffffffffffffffffffffffffffffffffffffffffffffffffffffff838183161783525050505060405180828051906020019080838360005b838110156110c45780820151818401526020810190506110a9565b50505050905090810190601f1680156110f15780820380516001836020036101000a031916815260200191505b50915050600060405180830381855af491505050732abfe45394df8dcea4bc8006bab2cc5a850a930582600081518110151561112957fe5b9060200190602002019073ffffffffffffffffffffffffffffffffffffffff16908173ffffffffffffffffffffffffffffffffffffffff16815250503073ffffffffffffffffffffffffffffffffffffffff167307a93218f692e18dd77d693d84568a5042df667b83836005604051602401808573ffffffffffffffffffffffffffffffffffffffff1673ffffffffffffffffffffffffffffffffffffffff1681526020018060200180602001806020018560ff168152602001848103845260318152602001807f7a647075416d3474524c38396453534632567461364141796a584b796879563481526020017f3977715078716d7377664d31666e6f736d000000000000000000000000000000815250604001848103835287818151815260200191508051906020019060200280838360005b8381101561127857808201518184015260208101905061125d565b50505050905001848103825286818151815260200191508051906020019060200280838360005b838110156112ba57808201518184015260208101905061129f565b505050509050019750505050505050506040516020818303038152906040527fc79cb4be000000000000000000000000000000000000000000000000000000007bffffffffffffffffffffffffffffffffffffffffffffffffffffffff19166020820180517bffffffffffffffffffffffffffffffffffffffffffffffffffffffff838183161783525050505060405180828051906020019080838360005b83811015611374578082015181840152602081019050611359565b50505050905090810190601f1680156113a15780820380516001836020036101000a031916815260200191505b50915050600060405180830381855af491505050731875e398cd7fdce8ff5c9d4ce1ec904cae51692c8260008151811015156113d957fe5b9060200190602002019073ffffffffffffffffffffffffffffffffffffffff16908173ffffffffffffffffffffffffffffffffffffffff16815250503073ffffffffffffffffffffffffffffffffffffffff16739e56625509c2f60af937f23b7b532600390e8c8b83836005604051602401808573ffffffffffffffffffffffffffffffffffffffff1673ffffffffffffffffffffffffffffffffffffffff1681526020018060200180602001806020018560ff168152602001848103845260318152602001807f7a647075417678673359626751764d436e794a4158706e48784438626e69703281526020017f5a58737261327059564a4a396352735852000000000000000000000000000000815250604001848103835287818151815260200191508051906020019060200280838360005b8381101561152857808201518184015260208101905061150d565b50505050905001848103825286818151815260200191508051906020019060200280838360005b8381101561156a57808201518184015260208101905061154f565b505050509050019750505050505050506040516020818303038152906040527fc79cb4be000000000000000000000000000000000000000000000000000000007bffffffffffffffffffffffffffffffffffffffffffffffffffffffff19166020820180517bffffffffffffffffffffffffffffffffffffffffffffffffffffffff838183161783525050505060405180828051906020019080838360005b83811015611624578082015181840152602081019050611609565b50505050905090810190601f1680156116515780820380516001836020036101000a031916815260200191505b50915050600060405180830381855af49150505073edd17db41ee47b8794b10802ac05806a66f3ab3682600081518110151561168957fe5b9060200190602002019073ffffffffffffffffffffffffffffffffffffffff16908173ffffffffffffffffffffffffffffffffffffffff16815250503073ffffffffffffffffffffffffffffffffffffffff1673374bd185ee19fd9f8682eb875e5d0546a8d58cdd83836005604051602401808573ffffffffffffffffffffffffffffffffffffffff1673ffffffffffffffffffffffffffffffffffffffff1681526020018060200180602001806020018560ff168152602001848103845260318152602001807f7a6470754170666232434e7773714c703857455366736763483137745647725381526020017f33483345484433666e6842716168576a5a000000000000000000000000000000815250604001848103835287818151815260200191508051906020019060200280838360005b838110156117d85780820151818401526020810190506117bd565b50505050905001848103825286818151815260200191508051906020019060200280838360005b8381101561181a5780820151818401526020810190506117ff565b505050509050019750505050505050506040516020818303038152906040527fc79cb4be000000000000000000000000000000000000000000000000000000007bffffffffffffffffffffffffffffffffffffffffffffffffffffffff19166020820180517bffffffffffffffffffffffffffffffffffffffffffffffffffffffff838183161783525050505060405180828051906020019080838360005b838110156118d45780820151818401526020810190506118b9565b50505050905090810190601f1680156119015780820380516001836020036101000a031916815260200191505b50915050600060405180830381855af4915050507384aa1925a0afb812ec4373e321e0b9b82f64574d82600081518110151561193957fe5b9060200190602002019073ffffffffffffffffffffffffffffffffffffffff16908173ffffffffffffffffffffffffffffffffffffffff16815250503073ffffffffffffffffffffffffffffffffffffffff1673258ddd84abf61ba1d1e39f95d8863ee9ca218c0683836005604051602401808573ffffffffffffffffffffffffffffffffffffffff1673ffffffffffffffffffffffffffffffffffffffff1681526020018060200180602001806020018560ff168152602001848103845260318152602001807f7a64707541756474534b375837754a6b4d6a4454577a4a574d4864796e486f3181526020017f314562365732506963675668354c676655000000000000000000000000000000815250604001848103835287818151815260200191508051906020019060200280838360005b83811015611a88578082015181840152602081019050611a6d565b50505050905001848103825286818151815260200191508051906020019060200280838360005b83811015611aca578082015181840152602081019050611aaf565b505050509050019750505050505050506040516020818303038152906040527fc79cb4be000000000000000000000000000000000000000000000000000000007bffffffffffffffffffffffffffffffffffffffffffffffffffffffff19166020820180517bffffffffffffffffffffffffffffffffffffffffffffffffffffffff838183161783525050505060405180828051906020019080838360005b83811015611b84578082015181840152602081019050611b69565b50505050905090810190601f168015611bb15780820380516001836020036101000a031916815260200191505b50915050600060405180830381855af491505050736e4125dd92515aa29efd24c8bbf09d17dd92f74b826000815181101515611be957fe5b9060200190602002019073ffffffffffffffffffffffffffffffffffffffff16908173ffffffffffffffffffffffffffffffffffffffff16815250503073ffffffffffffffffffffffffffffffffffffffff1673d797d5784f43de300ec0d6bc34fc86023c5d71ce83836005604051602401808573ffffffffffffffffffffffffffffffffffffffff1673ffffffffffffffffffffffffffffffffffffffff1681526020018060200180602001806020018560ff168152602001848103845260318152602001807f7a647075416d63585445596d6b52774c4d656a6245427a424e716e7745754a6181526020017f5539655841574c5255646e776746715076000000000000000000000000000000815250604001848103835287818151815260200191508051906020019060200280838360005b83811015611d38578082015181840152602081019050611d1d565b50505050905001848103825286818151815260200191508051906020019060200280838360005b83811015611d7a578082015181840152602081019050611d5f565b505050509050019750505050505050506040516020818303038152906040527fc79cb4be000000000000000000000000000000000000000000000000000000007bffffffffffffffffffffffffffffffffffffffffffffffffffffffff19166020820180517bffffffffffffffffffffffffffffffffffffffffffffffffffffffff838183161783525050505060405180828051906020019080838360005b83811015611e34578082015181840152602081019050611e19565b50505050905090810190601f168015611e615780820380516001836020036101000a031916815260200191505b50915050600060405180830381855af4915050507384aa1925a0afb812ec4373e321e0b9b82f64574d826000815181101515611e9957fe5b9060200190602002019073ffffffffffffffffffffffffffffffffffffffff16908173ffffffffffffffffffffffffffffffffffffffff16815250503073ffffffffffffffffffffffffffffffffffffffff1673374bd185ee19fd9f8682eb875e5d0546a8d58cdd83836005604051602401808573ffffffffffffffffffffffffffffffffffffffff1673ffffffffffffffffffffffffffffffffffffffff1681526020018060200180602001806020018560ff168152602001848103845260318152602001807f7a64707541756474534b375837754a6b4d6a4454577a4a574d4864796e486f3181526020017f314562365732506963675668354c676655000000000000000000000000000000815250604001848103835287818151815260200191508051906020019060200280838360005b83811015611fe8578082015181840152602081019050611fcd565b50505050905001848103825286818151815260200191508051906020019060200280838360005b8381101561202a57808201518184015260208101905061200f565b505050509050019750505050505050506040516020818303038152906040527fc79cb4be000000000000000000000000000000000000000000000000000000007bffffffffffffffffffffffffffffffffffffffffffffffffffffffff19166020820180517bffffffffffffffffffffffffffffffffffffffffffffffffffffffff838183161783525050505060405180828051906020019080838360005b838110156120e45780820151818401526020810190506120c9565b50505050905090810190601f1680156121115780820380516001836020036101000a031916815260200191505b50915050600060405180830381855af49150505073374bd185ee19fd9f8682eb875e5d0546a8d58cdd82600081518110151561214957fe5b9060200190602002019073ffffffffffffffffffffffffffffffffffffffff16908173ffffffffffffffffffffffffffffffffffffffff16815250503073ffffffffffffffffffffffffffffffffffffffff16733ece8d40dac89ffb408f7cb5eaf24ab6a313502883836005604051602401808573ffffffffffffffffffffffffffffffffffffffff1673ffffffffffffffffffffffffffffffffffffffff1681526020018060200180602001806020018560ff168152602001848103845260318152602001807f7a6470754178694b33313235654b38326e34526378367737726d3837736b437681526020017f73553446764e6f6f42617677384a775a59000000000000000000000000000000815250604001848103835287818151815260200191508051906020019060200280838360005b8381101561229857808201518184015260208101905061227d565b50505050905001848103825286818151815260200191508051906020019060200280838360005b838110156122da5780820151818401526020810190506122bf565b505050509050019750505050505050506040516020818303038152906040527fc79cb4be000000000000000000000000000000000000000000000000000000007bffffffffffffffffffffffffffffffffffffffffffffffffffffffff19166020820180517bffffffffffffffffffffffffffffffffffffffffffffffffffffffff838183161783525050505060405180828051906020019080838360005b83811015612394578082015181840152602081019050612379565b50505050905090810190601f1680156123c15780820380516001836020036101000a031916815260200191505b50915050600060405180830381855af49150505073374bd185ee19fd9f8682eb875e5d0546a8d58cdd8260008151811015156123f957fe5b9060200190602002019073ffffffffffffffffffffffffffffffffffffffff16908173ffffffffffffffffffffffffffffffffffffffff16815250503073ffffffffffffffffffffffffffffffffffffffff16732a3f7e5170ea8ca967f85f091ef84591f639e03183836005604051602401808573ffffffffffffffffffffffffffffffffffffffff1673ffffffffffffffffffffffffffffffffffffffff1681526020018060200180602001806020018560ff168152602001848103845260318152602001807f7a6470754178694b33313235654b38326e34526378367737726d3837736b437681526020017f73553446764e6f6f42617677384a775a59000000000000000000000000000000815250604001848103835287818151815260200191508051906020019060200280838360005b8381101561254857808201518184015260208101905061252d565b50505050905001848103825286818151815260200191508051906020019060200280838360005b8381101561258a57808201518184015260208101905061256f565b505050509050019750505050505050506040516020818303038152906040527fc79cb4be000000000000000000000000000000000000000000000000000000007bffffffffffffffffffffffffffffffffffffffffffffffffffffffff19166020820180517bffffffffffffffffffffffffffffffffffffffffffffffffffffffff838183161783525050505060405180828051906020019080838360005b83811015612644578082015181840152602081019050612629565b50505050905090810190601f1680156126715780820380516001836020036101000a031916815260200191505b50915050600060405180830381855af4915050507335a7e40871a621d138e6e7e565ea23b90e3334948260008151811015156126a957fe5b9060200190602002019073ffffffffffffffffffffffffffffffffffffffff16908173ffffffffffffffffffffffffffffffffffffffff16815250503073ffffffffffffffffffffffffffffffffffffffff167335a7e40871a621d138e6e7e565ea23b90e33349483836005604051602401808573ffffffffffffffffffffffffffffffffffffffff1673ffffffffffffffffffffffffffffffffffffffff1681526020018060200180602001806020018560ff168152602001848103845260318152602001807f7a6470754233654536553858747352756a356a5538723747754534585844316f81526020017f4152543748675141416a534e3865446f55000000000000000000000000000000815250604001848103835287818151815260200191508051906020019060200280838360005b838110156127f85780820151818401526020810190506127dd565b50505050905001848103825286818151815260200191508051906020019060200280838360005b8381101561283a57808201518184015260208101905061281f565b505050509050019750505050505050506040516020818303038152906040527fc79cb4be000000000000000000000000000000000000000000000000000000007bffffffffffffffffffffffffffffffffffffffffffffffffffffffff19166020820180517bffffffffffffffffffffffffffffffffffffffffffffffffffffffff838183161783525050505060405180828051906020019080838360005b838110156128f45780820151818401526020810190506128d9565b50505050905090810190601f1680156129215780820380516001836020036101000a031916815260200191505b50915050600060405180830381855af49150505073c8f4652cdbe54ee3a048b58ffc59b72e4298fc8482600081518110151561295957fe5b9060200190602002019073ffffffffffffffffffffffffffffffffffffffff16908173ffffffffffffffffffffffffffffffffffffffff16815250503073ffffffffffffffffffffffffffffffffffffffff1673374bd185ee19fd9f8682eb875e5d0546a8d58cdd83836005604051602401808573ffffffffffffffffffffffffffffffffffffffff1673ffffffffffffffffffffffffffffffffffffffff1681526020018060200180602001806020018560ff168152602001848103845260318152602001807f7a6470754231694d7263504164576e57706368784435686938457255744a7a7981526020017f6d48734c596e796b7453714c4a79426845000000000000000000000000000000815250604001848103835287818151815260200191508051906020019060200280838360005b83811015612aa8578082015181840152602081019050612a8d565b50505050905001848103825286818151815260200191508051906020019060200280838360005b83811015612aea578082015181840152602081019050612acf565b505050509050019750505050505050506040516020818303038152906040527fc79cb4be000000000000000000000000000000000000000000000000000000007bffffffffffffffffffffffffffffffffffffffffffffffffffffffff19166020820180517bffffffffffffffffffffffffffffffffffffffffffffffffffffffff838183161783525050505060405180828051906020019080838360005b83811015612ba4578082015181840152602081019050612b89565b50505050905090810190601f168015612bd15780820380516001836020036101000a031916815260200191505b50915050600060405180830381855af491505050731875e398cd7fdce8ff5c9d4ce1ec904cae51692c826000815181101515612c0957fe5b9060200190602002019073ffffffffffffffffffffffffffffffffffffffff16908173ffffffffffffffffffffffffffffffffffffffff16815250503073ffffffffffffffffffffffffffffffffffffffff1673374bd185ee19fd9f8682eb875e5d0546a8d58cdd83836005604051602401808573ffffffffffffffffffffffffffffffffffffffff1673ffffffffffffffffffffffffffffffffffffffff1681526020018060200180602001806020018560ff168152602001848103845260318152602001807f7a647075417678673359626751764d436e794a4158706e48784438626e69703281526020017f5a58737261327059564a4a396352735852000000000000000000000000000000815250604001848103835287818151815260200191508051906020019060200280838360005b83811015612d58578082015181840152602081019050612d3d565b50505050905001848103825286818151815260200191508051906020019060200280838360005b83811015612d9a578082015181840152602081019050612d7f565b505050509050019750505050505050506040516020818303038152906040527fc79cb4be000000000000000000000000000000000000000000000000000000007bffffffffffffffffffffffffffffffffffffffffffffffffffffffff19166020820180517bffffffffffffffffffffffffffffffffffffffffffffffffffffffff838183161783525050505060405180828051906020019080838360005b83811015612e54578082015181840152602081019050612e39565b50505050905090810190601f168015612e815780820380516001836020036101000a031916815260200191505b50915050600060405180830381855af49150505050505600a165627a7a723058200a24204145cca12622e6f6f57e7cfb9717150be264db06e26170ed62dbd299180029",
  "source": "pragma solidity ^0.4.24;\n\n/*\nThis re-adds badges that were minted in:\nhttps://etherscan.io/address/0xc45e027f0f9d7e90e612be02d4e710a632a9dba9\n*/\n\n// solhint-disable\ncontract InitBadges {\n  function initialise() public {\n    address[] memory beneficiaries = new address[](1);\n    uint256[] memory splits = new uint256[](1);\n    splits[0] = 100;\n    // function adminMintWithoutPayment(address _buyer, string _nftCid, address[] _beneficiaries, uint256[] _splits, uint256 _usdCost)\n    beneficiaries[0] = address(0x804A981c929C133cfC95e0094495325F5D84Fdd3);address(this).delegatecall(abi.encodeWithSignature(\"adminMintWithoutPayment(address,string,address[],uint256[],uint256)\", 0xAAA8a090E78724c8E3f3dE407205fff160017568, \"zdpuAtEcodozzUGvSdZaqYKE8PdoWxGdqMHHyVEsAeDos6nvo\", beneficiaries, splits, 5));\n    beneficiaries[0] = address(0xd1C2388c9B40a1c1D4340924b8cc8dC9876499b4);address(this).delegatecall(abi.encodeWithSignature(\"adminMintWithoutPayment(address,string,address[],uint256[],uint256)\", 0xAAA8a090E78724c8E3f3dE407205fff160017568, \"zdpuAyn6PQhfXVbk8vjVuLfinUQscxyn8JNdEJrSyeAw7kDDn\", beneficiaries, splits, 5));\n    beneficiaries[0] = address(0x66bE39D22b9E7177096Db4C96aeE4106E44D4910);address(this).delegatecall(abi.encodeWithSignature(\"adminMintWithoutPayment(address,string,address[],uint256[],uint256)\", 0xAAA8a090E78724c8E3f3dE407205fff160017568, \"zdpuAvrUFv5qSzFwTj1GDro38kSjV4TzMjKQk4BpydpR8hycc\", beneficiaries, splits, 5));\n    beneficiaries[0] = address(0x6c0a787BBAB04F9882e88adD5bdF5d04C9aa650A);address(this).delegatecall(abi.encodeWithSignature(\"adminMintWithoutPayment(address,string,address[],uint256[],uint256)\", 0x6c0a787BBAB04F9882e88adD5bdF5d04C9aa650A, \"zdpuB2DeEAJeeQNfQK9j5ULqEz238L3LBGQpJc13vQZpTAtWW\", beneficiaries, splits, 5));\n    beneficiaries[0] = address(0x76bc4C780Dd85558Bc4B24a4f262f4eB0bE78ca7);address(this).delegatecall(abi.encodeWithSignature(\"adminMintWithoutPayment(address,string,address[],uint256[],uint256)\", 0x9Fd5cc5E68796f08EDC54e738585227AD2B6c03F, \"zdpuAxdXWsSgNwP83bPVbkavCoWTiGtzXZDNexVQ4GWMPCxhP\", beneficiaries, splits, 5));\n    beneficiaries[0] = address(0x2ABfE45394Df8dCEA4BC8006bab2cc5A850a9305);address(this).delegatecall(abi.encodeWithSignature(\"adminMintWithoutPayment(address,string,address[],uint256[],uint256)\", 0x1318d3420b0169522eB8F3EF0830aceE700A2eda, \"zdpuAm4tRL89dSSF2Vta6AAyjXKyhyV49wqPxqmswfM1fnosm\", beneficiaries, splits, 5));\n    beneficiaries[0] = address(0x2ABfE45394Df8dCEA4BC8006bab2cc5A850a9305);address(this).delegatecall(abi.encodeWithSignature(\"adminMintWithoutPayment(address,string,address[],uint256[],uint256)\", 0x07A93218F692e18Dd77D693D84568A5042df667b, \"zdpuAm4tRL89dSSF2Vta6AAyjXKyhyV49wqPxqmswfM1fnosm\", beneficiaries, splits, 5));\n    beneficiaries[0] = address(0x1875e398cD7FdcE8fF5C9d4ce1Ec904caE51692c);address(this).delegatecall(abi.encodeWithSignature(\"adminMintWithoutPayment(address,string,address[],uint256[],uint256)\", 0x9e56625509c2F60aF937F23B7b532600390e8C8B, \"zdpuAvxg3YbgQvMCnyJAXpnHxD8bnip2ZXsra2pYVJJ9cRsXR\", beneficiaries, splits, 5));\n    beneficiaries[0] = address(0xeDD17DB41eE47B8794b10802aC05806a66f3ab36);address(this).delegatecall(abi.encodeWithSignature(\"adminMintWithoutPayment(address,string,address[],uint256[],uint256)\", 0x374Bd185Ee19fD9f8682Eb875E5D0546A8D58CdD, \"zdpuApfb2CNwsqLp8WESfsgcH17tVGrS3H3EHD3fnhBqahWjZ\", beneficiaries, splits, 5));\n    beneficiaries[0] = address(0x84Aa1925A0AfB812Ec4373E321E0b9B82f64574d);address(this).delegatecall(abi.encodeWithSignature(\"adminMintWithoutPayment(address,string,address[],uint256[],uint256)\", 0x258DDD84abf61ba1D1E39f95D8863ee9ca218c06, \"zdpuAudtSK7X7uJkMjDTWzJWMHdynHo11Eb6W2PicgVh5LgfU\", beneficiaries, splits, 5));\n    beneficiaries[0] = address(0x6e4125Dd92515AA29Efd24C8bBf09D17DD92F74b);address(this).delegatecall(abi.encodeWithSignature(\"adminMintWithoutPayment(address,string,address[],uint256[],uint256)\", 0xd797D5784f43dE300eC0D6bc34fc86023c5d71Ce, \"zdpuAmcXTEYmkRwLMejbEBzBNqnwEuJaU9eXAWLRUdnwgFqPv\", beneficiaries, splits, 5));\n    beneficiaries[0] = address(0x84Aa1925A0AfB812Ec4373E321E0b9B82f64574d);address(this).delegatecall(abi.encodeWithSignature(\"adminMintWithoutPayment(address,string,address[],uint256[],uint256)\", 0x374Bd185Ee19fD9f8682Eb875E5D0546A8D58CdD, \"zdpuAudtSK7X7uJkMjDTWzJWMHdynHo11Eb6W2PicgVh5LgfU\", beneficiaries, splits, 5));\n    beneficiaries[0] = address(0x374Bd185Ee19fD9f8682Eb875E5D0546A8D58CdD);address(this).delegatecall(abi.encodeWithSignature(\"adminMintWithoutPayment(address,string,address[],uint256[],uint256)\", 0x3ece8d40daC89FfB408f7CB5eaf24Ab6A3135028, \"zdpuAxiK3125eK82n4Rcx6w7rm87skCvsU4FvNooBavw8JwZY\", beneficiaries, splits, 5));\n    beneficiaries[0] = address(0x374Bd185Ee19fD9f8682Eb875E5D0546A8D58CdD);address(this).delegatecall(abi.encodeWithSignature(\"adminMintWithoutPayment(address,string,address[],uint256[],uint256)\", 0x2A3F7E5170Ea8Ca967f85f091eF84591f639E031, \"zdpuAxiK3125eK82n4Rcx6w7rm87skCvsU4FvNooBavw8JwZY\", beneficiaries, splits, 5));\n    beneficiaries[0] = address(0x35A7e40871A621d138e6E7e565Ea23b90e333494);address(this).delegatecall(abi.encodeWithSignature(\"adminMintWithoutPayment(address,string,address[],uint256[],uint256)\", 0x35A7e40871A621d138e6E7e565Ea23b90e333494, \"zdpuB3eE6U8XtsRuj5jU8r7GuE4XXD1oART7HgQAAjSN8eDoU\", beneficiaries, splits, 5));\n    beneficiaries[0] = address(0xc8F4652CdBE54ee3A048B58fFC59B72E4298Fc84);address(this).delegatecall(abi.encodeWithSignature(\"adminMintWithoutPayment(address,string,address[],uint256[],uint256)\", 0x374Bd185Ee19fD9f8682Eb875E5D0546A8D58CdD, \"zdpuB1iMrcPAdWnWpchxD5hi8ErUtJzymHsLYnyktSqLJyBhE\", beneficiaries, splits, 5));\n    beneficiaries[0] = address(0x1875e398cD7FdcE8fF5C9d4ce1Ec904caE51692c);address(this).delegatecall(abi.encodeWithSignature(\"adminMintWithoutPayment(address,string,address[],uint256[],uint256)\", 0x374Bd185Ee19fD9f8682Eb875E5D0546A8D58CdD, \"zdpuAvxg3YbgQvMCnyJAXpnHxD8bnip2ZXsra2pYVJJ9cRsXR\", beneficiaries, splits, 5));\n  }\n}\n",
  "sourcePath": "/Users/simondlr/code/ethereum/contracts-badges/contracts/InitBadges.sol",
  "compiler": {
    "name": "solc",
    "version": "0.4.24+commit.e67f0147.Emscripten.clang"
  },
  "schemaVersion": "2.0.1",
  "updatedAt": "2018-09-28T18:47:52.806Z"
}