{
  "contractName": "InitBadges",
  "abi": [
    {
      "constant": false,
      "inputs": [],
      "name": "initialise",
      "outputs": [],
      "payable": false,
      "stateMutability": "nonpayable",
      "type": "function"
    }
  ],
  "bytecode": "0x608060405234801561001057600080fd5b50611f98806100206000396000f300608060405260043610610041576000357c0100000000000000000000000000000000000000000000000000000000900463ffffffff168063592e6f5914610046575b600080fd5b34801561005257600080fd5b5061005b61005d565b005b3073ffffffffffffffffffffffffffffffffffffffff16739fd5cc5e68796f08edc54e738585227ad2b6c03f7376bc4c780dd85558bc4b24a4f262f4eb0be78ca76005604051602401808473ffffffffffffffffffffffffffffffffffffffff1673ffffffffffffffffffffffffffffffffffffffff16815260200180602001806020018573ffffffffffffffffffffffffffffffffffffffff1673ffffffffffffffffffffffffffffffffffffffff1681526020018460ff168152602001838103835260318152602001807f7a64707541736f6b356b4577365238663652544b77375137647538583977587a81526020017f466d487152394a6b364e417970576b4672000000000000000000000000000000815250604001838103825260318152602001807f7a6470754171396b38314c59706a4a61534b79393838456779395636474c4d6e81526020017f4156535836774c536b7365524c42505562000000000000000000000000000000815250604001955050505050506040516020818303038152906040527f42764947000000000000000000000000000000000000000000000000000000007bffffffffffffffffffffffffffffffffffffffffffffffffffffffff19166020820180517bffffffffffffffffffffffffffffffffffffffffffffffffffffffff838183161783525050505060405180828051906020019080838360005b83811015610281578082015181840152602081019050610266565b50505050905090810190601f1680156102ae5780820380516001836020036101000a031916815260200191505b50915050600060405180830381855af4915050503073ffffffffffffffffffffffffffffffffffffffff16731318d3420b0169522eb8f3ef0830acee700a2eda732abfe45394df8dcea4bc8006bab2cc5a850a93056005604051602401808473ffffffffffffffffffffffffffffffffffffffff1673ffffffffffffffffffffffffffffffffffffffff16815260200180602001806020018573ffffffffffffffffffffffffffffffffffffffff1673ffffffffffffffffffffffffffffffffffffffff1681526020018460ff168152602001838103835260318152602001807f7a647075416f507341744c61763131666b6d4e35394158745462347379784d3881526020017f587864727a4c37576237674a7636523644000000000000000000000000000000815250604001838103825260318152602001807f7a647075417647646979366b3677504d4c6577465a34736175676b4c4b784c5081526020017f50767353384c6246726250503157646b37000000000000000000000000000000815250604001955050505050506040516020818303038152906040527f42764947000000000000000000000000000000000000000000000000000000007bffffffffffffffffffffffffffffffffffffffffffffffffffffffff19166020820180517bffffffffffffffffffffffffffffffffffffffffffffffffffffffff838183161783525050505060405180828051906020019080838360005b838110156104e65780820151818401526020810190506104cb565b50505050905090810190601f1680156105135780820380516001836020036101000a031916815260200191505b50915050600060405180830381855af4915050503073ffffffffffffffffffffffffffffffffffffffff167307a93218f692e18dd77d693d84568a5042df667b732abfe45394df8dcea4bc8006bab2cc5a850a93056005604051602401808473ffffffffffffffffffffffffffffffffffffffff1673ffffffffffffffffffffffffffffffffffffffff16815260200180602001806020018573ffffffffffffffffffffffffffffffffffffffff1673ffffffffffffffffffffffffffffffffffffffff1681526020018460ff168152602001838103835260318152602001807f7a647075416f507341744c61763131666b6d4e35394158745462347379784d3881526020017f587864727a4c37576237674a7636523644000000000000000000000000000000815250604001838103825260318152602001807f7a647075417647646979366b3677504d4c6577465a34736175676b4c4b784c5081526020017f50767353384c6246726250503157646b37000000000000000000000000000000815250604001955050505050506040516020818303038152906040527f42764947000000000000000000000000000000000000000000000000000000007bffffffffffffffffffffffffffffffffffffffffffffffffffffffff19166020820180517bffffffffffffffffffffffffffffffffffffffffffffffffffffffff838183161783525050505060405180828051906020019080838360005b8381101561074b578082015181840152602081019050610730565b50505050905090810190601f1680156107785780820380516001836020036101000a031916815260200191505b50915050600060405180830381855af4915050503073ffffffffffffffffffffffffffffffffffffffff16739e56625509c2f60af937f23b7b532600390e8c8b731875e398cd7fdce8ff5c9d4ce1ec904cae51692c6005604051602401808473ffffffffffffffffffffffffffffffffffffffff1673ffffffffffffffffffffffffffffffffffffffff16815260200180602001806020018573ffffffffffffffffffffffffffffffffffffffff1673ffffffffffffffffffffffffffffffffffffffff1681526020018460ff168152602001838103835260318152602001807f7a6470754173346f535455587a39774a58386d59374c547a746d72473669367081526020017f31686a6d4d454c674256396953314b6447000000000000000000000000000000815250604001838103825260318152602001807f7a64707541784a76696877764667756251716275414153545838324c5746646b81526020017f326a32345664555633584d595079657034000000000000000000000000000000815250604001955050505050506040516020818303038152906040527f42764947000000000000000000000000000000000000000000000000000000007bffffffffffffffffffffffffffffffffffffffffffffffffffffffff19166020820180517bffffffffffffffffffffffffffffffffffffffffffffffffffffffff838183161783525050505060405180828051906020019080838360005b838110156109b0578082015181840152602081019050610995565b50505050905090810190601f1680156109dd5780820380516001836020036101000a031916815260200191505b50915050600060405180830381855af4915050503073ffffffffffffffffffffffffffffffffffffffff1673374bd185ee19fd9f8682eb875e5d0546a8d58cdd73edd17db41ee47b8794b10802ac05806a66f3ab366005604051602401808473ffffffffffffffffffffffffffffffffffffffff1673ffffffffffffffffffffffffffffffffffffffff16815260200180602001806020018573ffffffffffffffffffffffffffffffffffffffff1673ffffffffffffffffffffffffffffffffffffffff1681526020018460ff168152602001838103835260318152602001807f7a647075423253355656524d714a41734857683431397232556873747661476481526020017f37744d7631517473735363674d70356544000000000000000000000000000000815250604001838103825260318152602001807f7a647075416f74484c45745467543755717676785238446f4e4647373437775a81526020017f4a6d63485a683241314377316a4d6b754b000000000000000000000000000000815250604001955050505050506040516020818303038152906040527f42764947000000000000000000000000000000000000000000000000000000007bffffffffffffffffffffffffffffffffffffffffffffffffffffffff19166020820180517bffffffffffffffffffffffffffffffffffffffffffffffffffffffff838183161783525050505060405180828051906020019080838360005b83811015610c15578082015181840152602081019050610bfa565b50505050905090810190601f168015610c425780820380516001836020036101000a031916815260200191505b50915050600060405180830381855af4915050503073ffffffffffffffffffffffffffffffffffffffff1673258ddd84abf61ba1d1e39f95d8863ee9ca218c067384aa1925a0afb812ec4373e321e0b9b82f64574d6005604051602401808473ffffffffffffffffffffffffffffffffffffffff1673ffffffffffffffffffffffffffffffffffffffff16815260200180602001806020018573ffffffffffffffffffffffffffffffffffffffff1673ffffffffffffffffffffffffffffffffffffffff1681526020018460ff168152602001838103835260318152602001807f7a64707542316a654e45576d523568486b43424e724b454d6459454779314b7581526020017f3459777a7064366f447a74674e69545164000000000000000000000000000000815250604001838103825260318152602001807f7a6470754179565876474b665a5644715168724d6b6764695a63686f456d465781526020017f526236644e3678454372446e7532794873000000000000000000000000000000815250604001955050505050506040516020818303038152906040527f42764947000000000000000000000000000000000000000000000000000000007bffffffffffffffffffffffffffffffffffffffffffffffffffffffff19166020820180517bffffffffffffffffffffffffffffffffffffffffffffffffffffffff838183161783525050505060405180828051906020019080838360005b83811015610e7a578082015181840152602081019050610e5f565b50505050905090810190601f168015610ea75780820380516001836020036101000a031916815260200191505b50915050600060405180830381855af4915050503073ffffffffffffffffffffffffffffffffffffffff1673d797d5784f43de300ec0d6bc34fc86023c5d71ce736e4125dd92515aa29efd24c8bbf09d17dd92f74b6005604051602401808473ffffffffffffffffffffffffffffffffffffffff1673ffffffffffffffffffffffffffffffffffffffff16815260200180602001806020018573ffffffffffffffffffffffffffffffffffffffff1673ffffffffffffffffffffffffffffffffffffffff1681526020018460ff168152602001838103835260318152602001807f7a6470754174736954534d557052384b6d56616d587a4d6f7234475a4e56576681526020017f76776a6b62505a394c6f3350633142696d000000000000000000000000000000815250604001838103825260318152602001807f7a6470754179504e3146534763723847656b3154486a566435667a684536713581526020017f35706f73675943484d43576a445a4d4178000000000000000000000000000000815250604001955050505050506040516020818303038152906040527f42764947000000000000000000000000000000000000000000000000000000007bffffffffffffffffffffffffffffffffffffffffffffffffffffffff19166020820180517bffffffffffffffffffffffffffffffffffffffffffffffffffffffff838183161783525050505060405180828051906020019080838360005b838110156110df5780820151818401526020810190506110c4565b50505050905090810190601f16801561110c5780820380516001836020036101000a031916815260200191505b50915050600060405180830381855af4915050503073ffffffffffffffffffffffffffffffffffffffff1673374bd185ee19fd9f8682eb875e5d0546a8d58cdd7384aa1925a0afb812ec4373e321e0b9b82f64574d6005604051602401808473ffffffffffffffffffffffffffffffffffffffff1673ffffffffffffffffffffffffffffffffffffffff16815260200180602001806020018573ffffffffffffffffffffffffffffffffffffffff1673ffffffffffffffffffffffffffffffffffffffff1681526020018460ff168152602001838103835260318152602001807f7a64707542316a654e45576d523568486b43424e724b454d6459454779314b7581526020017f3459777a7064366f447a74674e69545164000000000000000000000000000000815250604001838103825260318152602001807f7a6470754179565876474b665a5644715168724d6b6764695a63686f456d465781526020017f526236644e3678454372446e7532794873000000000000000000000000000000815250604001955050505050506040516020818303038152906040527f42764947000000000000000000000000000000000000000000000000000000007bffffffffffffffffffffffffffffffffffffffffffffffffffffffff19166020820180517bffffffffffffffffffffffffffffffffffffffffffffffffffffffff838183161783525050505060405180828051906020019080838360005b83811015611344578082015181840152602081019050611329565b50505050905090810190601f1680156113715780820380516001836020036101000a031916815260200191505b50915050600060405180830381855af4915050503073ffffffffffffffffffffffffffffffffffffffff16733ece8d40dac89ffb408f7cb5eaf24ab6a313502873374bd185ee19fd9f8682eb875e5d0546a8d58cdd6005604051602401808473ffffffffffffffffffffffffffffffffffffffff1673ffffffffffffffffffffffffffffffffffffffff16815260200180602001806020018573ffffffffffffffffffffffffffffffffffffffff1673ffffffffffffffffffffffffffffffffffffffff1681526020018460ff168152602001838103835260318152602001807f7a647075423356674341375968615a774a3766464d6f366234585539536d507481526020017f7a466a576269616761334b356631534153000000000000000000000000000000815250604001838103825260318152602001807f7a64707542324d68716435694d556f7351436b32457a6669326b52576966673281526020017f7743765777434a37524478457943446274000000000000000000000000000000815250604001955050505050506040516020818303038152906040527f42764947000000000000000000000000000000000000000000000000000000007bffffffffffffffffffffffffffffffffffffffffffffffffffffffff19166020820180517bffffffffffffffffffffffffffffffffffffffffffffffffffffffff838183161783525050505060405180828051906020019080838360005b838110156115a957808201518184015260208101905061158e565b50505050905090810190601f1680156115d65780820380516001836020036101000a031916815260200191505b50915050600060405180830381855af4915050503073ffffffffffffffffffffffffffffffffffffffff16732a3f7e5170ea8ca967f85f091ef84591f639e03173374bd185ee19fd9f8682eb875e5d0546a8d58cdd6005604051602401808473ffffffffffffffffffffffffffffffffffffffff1673ffffffffffffffffffffffffffffffffffffffff16815260200180602001806020018573ffffffffffffffffffffffffffffffffffffffff1673ffffffffffffffffffffffffffffffffffffffff1681526020018460ff168152602001838103835260318152602001807f7a647075423356674341375968615a774a3766464d6f366234585539536d507481526020017f7a466a576269616761334b356631534153000000000000000000000000000000815250604001838103825260318152602001807f7a64707542324d68716435694d556f7351436b32457a6669326b52576966673281526020017f7743765777434a37524478457943446274000000000000000000000000000000815250604001955050505050506040516020818303038152906040527f42764947000000000000000000000000000000000000000000000000000000007bffffffffffffffffffffffffffffffffffffffffffffffffffffffff19166020820180517bffffffffffffffffffffffffffffffffffffffffffffffffffffffff838183161783525050505060405180828051906020019080838360005b8381101561180e5780820151818401526020810190506117f3565b50505050905090810190601f16801561183b5780820380516001836020036101000a031916815260200191505b50915050600060405180830381855af4915050503073ffffffffffffffffffffffffffffffffffffffff167335a7e40871a621d138e6e7e565ea23b90e333494806005604051602401808473ffffffffffffffffffffffffffffffffffffffff1673ffffffffffffffffffffffffffffffffffffffff16815260200180602001806020018573ffffffffffffffffffffffffffffffffffffffff1673ffffffffffffffffffffffffffffffffffffffff1681526020018460ff168152602001838103835260318152602001807f7a64707541764b63756d464343767a644c354179474c396157394d4e5854793281526020017f733133716873354b7952396253504c7941000000000000000000000000000000815250604001838103825260318152602001807f7a64707541764745413878704267537a4d375a38704166656874536d6e44553481526020017f6b71437a6a666a777652344233676d7756000000000000000000000000000000815250604001955050505050506040516020818303038152906040527f42764947000000000000000000000000000000000000000000000000000000007bffffffffffffffffffffffffffffffffffffffffffffffffffffffff19166020820180517bffffffffffffffffffffffffffffffffffffffffffffffffffffffff838183161783525050505060405180828051906020019080838360005b83811015611a5f578082015181840152602081019050611a44565b50505050905090810190601f168015611a8c5780820380516001836020036101000a031916815260200191505b50915050600060405180830381855af4915050503073ffffffffffffffffffffffffffffffffffffffff1673374bd185ee19fd9f8682eb875e5d0546a8d58cdd73c8f4652cdbe54ee3a048b58ffc59b72e4298fc846005604051602401808473ffffffffffffffffffffffffffffffffffffffff1673ffffffffffffffffffffffffffffffffffffffff16815260200180602001806020018573ffffffffffffffffffffffffffffffffffffffff1673ffffffffffffffffffffffffffffffffffffffff1681526020018460ff168152602001838103835260318152602001807f7a647075416d31367a5261654b667345754878436670726b6e5437703863656b81526020017f4e67347a35347a7773384253627678545a000000000000000000000000000000815250604001838103825260318152602001807f7a647075416d314344505373746b314a425163525a5a7a45624c774c5638323781526020017f3462646e504e7146427443526355444e62000000000000000000000000000000815250604001955050505050506040516020818303038152906040527f42764947000000000000000000000000000000000000000000000000000000007bffffffffffffffffffffffffffffffffffffffffffffffffffffffff19166020820180517bffffffffffffffffffffffffffffffffffffffffffffffffffffffff838183161783525050505060405180828051906020019080838360005b83811015611cc4578082015181840152602081019050611ca9565b50505050905090810190601f168015611cf15780820380516001836020036101000a031916815260200191505b50915050600060405180830381855af4915050503073ffffffffffffffffffffffffffffffffffffffff1673374bd185ee19fd9f8682eb875e5d0546a8d58cdd731875e398cd7fdce8ff5c9d4ce1ec904cae51692c6005604051602401808473ffffffffffffffffffffffffffffffffffffffff1673ffffffffffffffffffffffffffffffffffffffff16815260200180602001806020018573ffffffffffffffffffffffffffffffffffffffff1673ffffffffffffffffffffffffffffffffffffffff1681526020018460ff168152602001838103835260318152602001807f7a6470754173346f535455587a39774a58386d59374c547a746d72473669367081526020017f31686a6d4d454c674256396953314b6447000000000000000000000000000000815250604001838103825260318152602001807f7a64707541784a76696877764667756251716275414153545838324c5746646b81526020017f326a32345664555633584d595079657034000000000000000000000000000000815250604001955050505050506040516020818303038152906040527f42764947000000000000000000000000000000000000000000000000000000007bffffffffffffffffffffffffffffffffffffffffffffffffffffffff19166020820180517bffffffffffffffffffffffffffffffffffffffffffffffffffffffff838183161783525050505060405180828051906020019080838360005b83811015611f29578082015181840152602081019050611f0e565b50505050905090810190601f168015611f565780820380516001836020036101000a031916815260200191505b50915050600060405180830381855af4915050505600a165627a7a72305820d262b33f4bbf3a8f97e37d5dde818e0f448aa3f71c1667f5decc3d563ef5ca5e0029",
  "source": "pragma solidity ^0.4.24;\n\n/*\nThis re-adds badges that were minted in:\nhttps://etherscan.io/address/0xc45e027f0f9d7e90e612be02d4e710a632a9dba9\n13 badges\nUp to: https://etherscan.io/tx/0x7040fe01a5c0044ba86d04a73cd38c7ff5746fa7517985adae0120d2374013b5\n*/\n\n// solhint-disable avoid-low-level-calls\ncontract InitBadges {\n    function initialise() public {\n        // function createBadge(address _buyer, string _mgCid, string _nftCid, address _beneficiary, uint256 _usdCost)\n        address(this).delegatecall(abi.encodeWithSignature(\"adminCreateBadge(address,string,string,address,uint256)\", 0x9Fd5cc5E68796f08EDC54e738585227AD2B6c03F, \"zdpuAsok5kEw6R8f6RTKw7Q7du8X9wXzFmHqR9Jk6NAypWkFr\", \"zdpuAq9k81LYpjJaSKy988Egy9V6GLMnAVSX6wLSkseRLBPUb\", 0x76bc4C780Dd85558Bc4B24a4f262f4eB0bE78ca7, 5));\n        address(this).delegatecall(abi.encodeWithSignature(\"adminCreateBadge(address,string,string,address,uint256)\", 0x1318d3420b0169522eB8F3EF0830aceE700A2eda, \"zdpuAoPsAtLav11fkmN59AXtTb4syxM8XxdrzL7Wb7gJv6R6D\", \"zdpuAvGdiy6k6wPMLewFZ4saugkLKxLPPvsS8LbFrbPP1Wdk7\", 0x2ABfE45394Df8dCEA4BC8006bab2cc5A850a9305, 5));\n        address(this).delegatecall(abi.encodeWithSignature(\"adminCreateBadge(address,string,string,address,uint256)\", 0x07A93218F692e18Dd77D693D84568A5042df667b, \"zdpuAoPsAtLav11fkmN59AXtTb4syxM8XxdrzL7Wb7gJv6R6D\", \"zdpuAvGdiy6k6wPMLewFZ4saugkLKxLPPvsS8LbFrbPP1Wdk7\", 0x2ABfE45394Df8dCEA4BC8006bab2cc5A850a9305, 5));\n        address(this).delegatecall(abi.encodeWithSignature(\"adminCreateBadge(address,string,string,address,uint256)\", 0x9e56625509c2F60aF937F23B7b532600390e8C8B, \"zdpuAs4oSTUXz9wJX8mY7LTztmrG6i6p1hjmMELgBV9iS1KdG\", \"zdpuAxJvihwvFgubQqbuAASTX82LWFdk2j24VdUV3XMYPyep4\", 0x1875e398cD7FdcE8fF5C9d4ce1Ec904caE51692c, 5));\n        address(this).delegatecall(abi.encodeWithSignature(\"adminCreateBadge(address,string,string,address,uint256)\", 0x374Bd185Ee19fD9f8682Eb875E5D0546A8D58CdD, \"zdpuB2S5VVRMqJAsHWh419r2UhstvaGd7tMv1QtssScgMp5eD\", \"zdpuAotHLEtTgT7UqvvxR8DoNFG747wZJmcHZh2A1Cw1jMkuK\", 0xeDD17DB41eE47B8794b10802aC05806a66f3ab36, 5));\n        address(this).delegatecall(abi.encodeWithSignature(\"adminCreateBadge(address,string,string,address,uint256)\", 0x258DDD84abf61ba1D1E39f95D8863ee9ca218c06, \"zdpuB1jeNEWmR5hHkCBNrKEMdYEGy1Ku4Ywzpd6oDztgNiTQd\", \"zdpuAyVXvGKfZVDqQhrMkgdiZchoEmFWRb6dN6xECrDnu2yHs\", 0x84Aa1925A0AfB812Ec4373E321E0b9B82f64574d, 5));\n        address(this).delegatecall(abi.encodeWithSignature(\"adminCreateBadge(address,string,string,address,uint256)\", 0xd797D5784f43dE300eC0D6bc34fc86023c5d71Ce, \"zdpuAtsiTSMUpR8KmVamXzMor4GZNVWfvwjkbPZ9Lo3Pc1Bim\", \"zdpuAyPN1FSGcr8Gek1THjVd5fzhE6q55posgYCHMCWjDZMAx\", 0x6e4125Dd92515AA29Efd24C8bBf09D17DD92F74b, 5));\n        address(this).delegatecall(abi.encodeWithSignature(\"adminCreateBadge(address,string,string,address,uint256)\", 0x374Bd185Ee19fD9f8682Eb875E5D0546A8D58CdD, \"zdpuB1jeNEWmR5hHkCBNrKEMdYEGy1Ku4Ywzpd6oDztgNiTQd\", \"zdpuAyVXvGKfZVDqQhrMkgdiZchoEmFWRb6dN6xECrDnu2yHs\", 0x84Aa1925A0AfB812Ec4373E321E0b9B82f64574d, 5));\n        address(this).delegatecall(abi.encodeWithSignature(\"adminCreateBadge(address,string,string,address,uint256)\", 0x3ece8d40daC89FfB408f7CB5eaf24Ab6A3135028, \"zdpuB3VgCA7YhaZwJ7fFMo6b4XU9SmPtzFjWbiaga3K5f1SAS\", \"zdpuB2Mhqd5iMUosQCk2Ezfi2kRWifg2wCvWwCJ7RDxEyCDbt\", 0x374Bd185Ee19fD9f8682Eb875E5D0546A8D58CdD, 5));\n        address(this).delegatecall(abi.encodeWithSignature(\"adminCreateBadge(address,string,string,address,uint256)\", 0x2A3F7E5170Ea8Ca967f85f091eF84591f639E031, \"zdpuB3VgCA7YhaZwJ7fFMo6b4XU9SmPtzFjWbiaga3K5f1SAS\", \"zdpuB2Mhqd5iMUosQCk2Ezfi2kRWifg2wCvWwCJ7RDxEyCDbt\", 0x374Bd185Ee19fD9f8682Eb875E5D0546A8D58CdD, 5));\n        address(this).delegatecall(abi.encodeWithSignature(\"adminCreateBadge(address,string,string,address,uint256)\", 0x35A7e40871A621d138e6E7e565Ea23b90e333494, \"zdpuAvKcumFCCvzdL5AyGL9aW9MNXTy2s13qhs5KyR9bSPLyA\", \"zdpuAvGEA8xpBgSzM7Z8pAfehtSmnDU4kqCzjfjwvR4B3gmwV\", 0x35A7e40871A621d138e6E7e565Ea23b90e333494, 5));\n        address(this).delegatecall(abi.encodeWithSignature(\"adminCreateBadge(address,string,string,address,uint256)\", 0x374Bd185Ee19fD9f8682Eb875E5D0546A8D58CdD, \"zdpuAm16zRaeKfsEuHxCfprknT7p8cekNg4z54zws8BSbvxTZ\", \"zdpuAm1CDPSstk1JBQcRZZzEbLwLV8274bdnPNqFBtCRcUDNb\", 0xc8F4652CdBE54ee3A048B58fFC59B72E4298Fc84, 5));\n        address(this).delegatecall(abi.encodeWithSignature(\"adminCreateBadge(address,string,string,address,uint256)\", 0x374Bd185Ee19fD9f8682Eb875E5D0546A8D58CdD, \"zdpuAs4oSTUXz9wJX8mY7LTztmrG6i6p1hjmMELgBV9iS1KdG\", \"zdpuAxJvihwvFgubQqbuAASTX82LWFdk2j24VdUV3XMYPyep4\", 0x1875e398cD7FdcE8fF5C9d4ce1Ec904caE51692c, 5));\n    }\n}\n",
  "sourcePath": "/Users/simondlr/code/ethereum/contracts-badges/contracts/InitBadges.sol",
  "compiler": {
    "name": "solc",
    "version": "0.4.24+commit.e67f0147.Emscripten.clang"
  },
  "schemaVersion": "2.0.1",
  "updatedAt": "2018-09-10T15:39:02.174Z"
}