{
  "contractName": "TestOracle",
  "abi": [
    {
      "constant": true,
      "inputs": [],
      "name": "ethUsdString",
      "outputs": [
        {
          "name": "",
          "type": "string"
        }
      ],
      "payable": false,
      "stateMutability": "view",
      "type": "function"
    },
    {
      "constant": false,
      "inputs": [
        {
          "name": "_newPrice",
          "type": "string"
        }
      ],
      "name": "setStringPrice",
      "outputs": [],
      "payable": false,
      "stateMutability": "nonpayable",
      "type": "function"
    },
    {
      "constant": false,
      "inputs": [],
      "name": "getUintPrice",
      "outputs": [
        {
          "name": "",
          "type": "uint256"
        }
      ],
      "payable": false,
      "stateMutability": "nonpayable",
      "type": "function"
    },
    {
      "constant": true,
      "inputs": [
        {
          "name": "s",
          "type": "string"
        }
      ],
      "name": "stringToUint",
      "outputs": [
        {
          "name": "",
          "type": "uint256"
        }
      ],
      "payable": false,
      "stateMutability": "view",
      "type": "function"
    }
  ],
  "bytecode": "0x60806040526040805190810160405280600181526020017f31000000000000000000000000000000000000000000000000000000000000008152506000908051906020019061004f929190610062565b5034801561005c57600080fd5b50610107565b828054600181600116156101000203166002900490600052602060002090601f016020900481019282601f106100a357805160ff19168380011785556100d1565b828001600101855582156100d1579182015b828111156100d05782518255916020019190600101906100b5565b5b5090506100de91906100e2565b5090565b61010491905b808211156101005760008160009055506001016100e8565b5090565b90565b610645806101166000396000f300608060405260043610610062576000357c0100000000000000000000000000000000000000000000000000000000900463ffffffff1680631bd951551461006757806358836e9f146100e45780635d1b00881461010f5780639852a59c1461019f575b600080fd5b34801561007357600080fd5b506100ce600480360381019080803590602001908201803590602001908080601f0160208091040260200160405190810160405280939291908181526020018383808284378201915050505050509192919290505050610208565b6040518082815260200191505060405180910390f35b3480156100f057600080fd5b506100f9610412565b6040518082815260200191505060405180910390f35b34801561011b57600080fd5b506101246104bc565b6040518080602001828103825283818151815260200191508051906020019080838360005b83811015610164578082015181840152602081019050610149565b50505050905090810190601f1680156101915780820380516001836020036101000a031916815260200191505b509250505060405180910390f35b3480156101ab57600080fd5b50610206600480360381019080803590602001908201803590602001908080601f016020809104026020016040519081016040528093929190818152602001838380828437820191505050505050919291929050505061055a565b005b6000606060008084925060009150600090505b82518110156104075760307f010000000000000000000000000000000000000000000000000000000000000002838281518110151561025657fe5b9060200101517f010000000000000000000000000000000000000000000000000000000000000090047f0100000000000000000000000000000000000000000000000000000000000000027effffffffffffffffffffffffffffffffffffffffffffffffffffffffffffff19161015801561036e575060397f01000000000000000000000000000000000000000000000000000000000000000283828151811015156102fe57fe5b9060200101517f010000000000000000000000000000000000000000000000000000000000000090047f0100000000000000000000000000000000000000000000000000000000000000027effffffffffffffffffffffffffffffffffffffffffffffffffffffffffffff191611155b156103fa576030838281518110151561038357fe5b9060200101517f010000000000000000000000000000000000000000000000000000000000000090047f0100000000000000000000000000000000000000000000000000000000000000027f0100000000000000000000000000000000000000000000000000000000000000900403600a83020191505b808060010191505061021b565b819350505050919050565b60006104b760008054600181600116156101000203166002900480601f0160208091040260200160405190810160405280929190818152602001828054600181600116156101000203166002900480156104ad5780601f10610482576101008083540402835291602001916104ad565b820191906000526020600020905b81548152906001019060200180831161049057829003601f168201915b5050505050610208565b905090565b60008054600181600116156101000203166002900480601f0160208091040260200160405190810160405280929190818152602001828054600181600116156101000203166002900480156105525780601f1061052757610100808354040283529160200191610552565b820191906000526020600020905b81548152906001019060200180831161053557829003601f168201915b505050505081565b8060009080519060200190610570929190610574565b5050565b828054600181600116156101000203166002900490600052602060002090601f016020900481019282601f106105b557805160ff19168380011785556105e3565b828001600101855582156105e3579182015b828111156105e25782518255916020019190600101906105c7565b5b5090506105f091906105f4565b5090565b61061691905b808211156106125760008160009055506001016105fa565b5090565b905600a165627a7a72305820361d222935aa931eb38cd68abe428085f77553721a7d988ac47ddce69d08d8ad0029",
  "source": "/*\nUsed in testing to see if the Handler properly fetches it.\nRelies on getPrice() to return a string.\n*/\npragma solidity ^0.4.21;\n\n\ncontract TestOracle {\n    string public ethUsdString = \"1\";\n\n    function setStringPrice(string _newPrice) public {\n        ethUsdString = _newPrice;\n    }\n\n    function getUintPrice() public returns (uint) {\n        return stringToUint(ethUsdString);\n    }\n\n    function stringToUint(string s) public constant returns (uint) {\n        bytes memory b = bytes(s);\n        uint result = 0;\n        for (uint i = 0; i < b.length; i++) { \n            if (b[i] >= 48 && b[i] <= 57) {\n                result = result * 10 + (uint(b[i]) - 48);\n            }\n        }\n        return result;\n    }\n}\n",
  "sourcePath": "/Users/simondlr/code/ethereum/contracts-badges/contracts/TestOracle.sol",
  "compiler": {
    "name": "solc",
    "version": "0.4.24+commit.e67f0147.Emscripten.clang"
  },
  "schemaVersion": "2.0.1",
  "updatedAt": "2018-07-11T09:54:59.910Z"
}