{
  "contractName": "TestHandler",
  "abi": [
    {
      "constant": true,
      "inputs": [],
      "name": "badges",
      "outputs": [
        {
          "name": "",
          "type": "address"
        }
      ],
      "payable": false,
      "stateMutability": "view",
      "type": "function"
    },
    {
      "inputs": [
        {
          "name": "_badges",
          "type": "address"
        }
      ],
      "payable": false,
      "stateMutability": "nonpayable",
      "type": "constructor"
    },
    {
      "constant": false,
      "inputs": [
        {
          "name": "_minter",
          "type": "address"
        }
      ],
      "name": "createToken",
      "outputs": [],
      "payable": false,
      "stateMutability": "nonpayable",
      "type": "function"
    }
  ],
  "bytecode": "0x6060604052341561000f57600080fd5b6040516020806103a183398101604052808051906020019091905050806000806101000a81548173ffffffffffffffffffffffffffffffffffffffff021916908373ffffffffffffffffffffffffffffffffffffffff160217905550506103268061007b6000396000f30060606040526004361061004c576000357c0100000000000000000000000000000000000000000000000000000000900463ffffffff1680631a64624014610051578063c21ab7f9146100a6575b600080fd5b341561005c57600080fd5b6100646100df565b604051808273ffffffffffffffffffffffffffffffffffffffff1673ffffffffffffffffffffffffffffffffffffffff16815260200191505060405180910390f35b34156100b157600080fd5b6100dd600480803573ffffffffffffffffffffffffffffffffffffffff16906020019091905050610104565b005b6000809054906101000a900473ffffffffffffffffffffffffffffffffffffffff1681565b61010c6102d2565b6101146102e6565b6000809054906101000a900473ffffffffffffffffffffffffffffffffffffffff1673ffffffffffffffffffffffffffffffffffffffff16637dab14eb60008584866040518563ffffffff167c010000000000000000000000000000000000000000000000000000000002815260040180806020018673ffffffffffffffffffffffffffffffffffffffff1681526020018573ffffffffffffffffffffffffffffffffffffffff1673ffffffffffffffffffffffffffffffffffffffff1681526020018060200180602001848103845260038152602001807f6369640000000000000000000000000000000000000000000000000000000000815250602001848103835286818151815260200191508051906020019060200280838360005b8381101561024e578082015181840152602081019050610233565b50505050905001848103825285818151815260200191508051906020019060200280838360005b83811015610290578082015181840152602081019050610275565b50505050905001975050505050505050600060405180830381600087803b15156102b957600080fd5b6102c65a03f115156102ca57600080fd5b505050505050565b602060405190810160405280600081525090565b6020604051908101604052806000815250905600a165627a7a723058207fdf8ce42b3feedd2cb0e56649a7ef2027a9ddbf9828194efc0173948117fe490029",
  "source": "pragma solidity 0.4.19;\nimport \"./UjoBadges.sol\"; // todo, change to interface.\n\n\ncontract TestHandler {\n\n    UjoBadges public badges;\n\n    function TestHandler(address _badges) public {\n        badges = UjoBadges(_badges);\n    }\n\n    function createToken(address _minter) public {\n        // usually payment validation logic goes here.\n        uint256[] memory amounts;\n        address[] memory adds;\n        badges.receiveNotification(\"cid\", 0, _minter, adds, amounts);\n    }\n}\n",
  "sourcePath": "/Users/simondlr/code/ethereum/ujo-contracts/tokens/contracts/TestHandler.sol",
  "compiler": {
    "name": "solc",
    "version": "0.4.19+commit.c4cbbb05.Emscripten.clang"
  },
  "schemaVersion": "1.0.1",
  "updatedAt": "2018-02-16T11:40:32.776Z"
}