{
  "contractName": "TestOracle",
  "abi": [
    {
      "constant": true,
      "inputs": [],
      "name": "ethUsdString",
      "outputs": [
        {
          "name": "",
          "type": "string"
        }
      ],
      "payable": false,
      "stateMutability": "view",
      "type": "function"
    },
    {
      "constant": false,
      "inputs": [
        {
          "name": "_newPrice",
          "type": "string"
        }
      ],
      "name": "setStringPrice",
      "outputs": [],
      "payable": false,
      "stateMutability": "nonpayable",
      "type": "function"
    },
    {
      "constant": false,
      "inputs": [],
      "name": "getUintPrice",
      "outputs": [
        {
          "name": "",
          "type": "uint256"
        }
      ],
      "payable": false,
      "stateMutability": "nonpayable",
      "type": "function"
    }
  ],
  "bytecode": "0x60806040526040805190810160405280600181526020017f31000000000000000000000000000000000000000000000000000000000000008152506000908051906020019061004f929190610062565b5034801561005c57600080fd5b50610107565b828054600181600116156101000203166002900490600052602060002090601f016020900481019282601f106100a357805160ff19168380011785556100d1565b828001600101855582156100d1579182015b828111156100d05782518255916020019190600101906100b5565b5b5090506100de91906100e2565b5090565b61010491905b808211156101005760008160009055506001016100e8565b5090565b90565b610312806101166000396000f300608060405260043610610057576000357c0100000000000000000000000000000000000000000000000000000000900463ffffffff16806358836e9f1461005c5780635d1b0088146100875780639852a59c14610117575b600080fd5b34801561006857600080fd5b50610071610180565b6040518082815260200191505060405180910390f35b34801561009357600080fd5b5061009c610189565b6040518080602001828103825283818151815260200191508051906020019080838360005b838110156100dc5780820151818401526020810190506100c1565b50505050905090810190601f1680156101095780820380516001836020036101000a031916815260200191505b509250505060405180910390f35b34801561012357600080fd5b5061017e600480360381019080803590602001908201803590602001908080601f0160208091040260200160405190810160405280939291908181526020018383808284378201915050505050509192919290505050610227565b005b60006001905090565b60008054600181600116156101000203166002900480601f01602080910402602001604051908101604052809291908181526020018280546001816001161561010002031660029004801561021f5780601f106101f45761010080835404028352916020019161021f565b820191906000526020600020905b81548152906001019060200180831161020257829003601f168201915b505050505081565b806000908051906020019061023d929190610241565b5050565b828054600181600116156101000203166002900490600052602060002090601f016020900481019282601f1061028257805160ff19168380011785556102b0565b828001600101855582156102b0579182015b828111156102af578251825591602001919060010190610294565b5b5090506102bd91906102c1565b5090565b6102e391905b808211156102df5760008160009055506001016102c7565b5090565b905600a165627a7a723058209ff8cf4afdc90c224e2b7781753a06269f02dd6b6093f19433f7db76e975fd990029",
  "source": "/*\nUsed in testing to see if the Handler properly fetches it.\nRelies on getPrice() to return a string.\n*/\npragma solidity ^0.4.21;\n\n\ncontract TestOracle {\n    string public ethUsdString = \"1\";\n\n    function setStringPrice(string _newPrice) public {\n        ethUsdString = _newPrice;\n    }\n\n    function getUintPrice() public returns (uint) {\n        return 1;\n    }\n}\n",
  "sourcePath": "/Users/simondlr/code/ethereum/contracts-badges/contracts/TestOracle.sol",
  "compiler": {
    "name": "solc",
    "version": "0.4.23+commit.124ca40d.Emscripten.clang"
  },
  "schemaVersion": "2.0.0",
  "updatedAt": "2018-06-14T13:06:55.928Z"
}