{
  "contractName": "UjoAutoBadges",
  "abi": [
    {
      "constant": true,
      "inputs": [
        {
          "name": "interfaceID",
          "type": "bytes4"
        }
      ],
      "name": "supportsInterface",
      "outputs": [
        {
          "name": "",
          "type": "bool"
        }
      ],
      "payable": false,
      "stateMutability": "view",
      "type": "function"
    },
    {
      "constant": true,
      "inputs": [],
      "name": "name",
      "outputs": [
        {
          "name": "",
          "type": "string"
        }
      ],
      "payable": false,
      "stateMutability": "view",
      "type": "function"
    },
    {
      "constant": true,
      "inputs": [
        {
          "name": "_tokenId",
          "type": "uint256"
        }
      ],
      "name": "getApproved",
      "outputs": [
        {
          "name": "",
          "type": "address"
        }
      ],
      "payable": false,
      "stateMutability": "view",
      "type": "function"
    },
    {
      "constant": false,
      "inputs": [
        {
          "name": "_approved",
          "type": "address"
        },
        {
          "name": "_tokenId",
          "type": "uint256"
        }
      ],
      "name": "approve",
      "outputs": [],
      "payable": true,
      "stateMutability": "payable",
      "type": "function"
    },
    {
      "constant": true,
      "inputs": [],
      "name": "totalSupply",
      "outputs": [
        {
          "name": "",
          "type": "uint256"
        }
      ],
      "payable": false,
      "stateMutability": "view",
      "type": "function"
    },
    {
      "constant": false,
      "inputs": [
        {
          "name": "_from",
          "type": "address"
        },
        {
          "name": "_to",
          "type": "address"
        },
        {
          "name": "_tokenId",
          "type": "uint256"
        }
      ],
      "name": "transferFrom",
      "outputs": [],
      "payable": true,
      "stateMutability": "payable",
      "type": "function"
    },
    {
      "constant": true,
      "inputs": [
        {
          "name": "_owner",
          "type": "address"
        },
        {
          "name": "_index",
          "type": "uint256"
        }
      ],
      "name": "tokenOfOwnerByIndex",
      "outputs": [
        {
          "name": "_tokenId",
          "type": "uint256"
        }
      ],
      "payable": false,
      "stateMutability": "view",
      "type": "function"
    },
    {
      "constant": false,
      "inputs": [
        {
          "name": "_from",
          "type": "address"
        },
        {
          "name": "_to",
          "type": "address"
        },
        {
          "name": "_tokenId",
          "type": "uint256"
        }
      ],
      "name": "safeTransferFrom",
      "outputs": [],
      "payable": true,
      "stateMutability": "payable",
      "type": "function"
    },
    {
      "constant": true,
      "inputs": [
        {
          "name": "_index",
          "type": "uint256"
        }
      ],
      "name": "tokenByIndex",
      "outputs": [
        {
          "name": "",
          "type": "uint256"
        }
      ],
      "payable": false,
      "stateMutability": "view",
      "type": "function"
    },
    {
      "constant": true,
      "inputs": [
        {
          "name": "",
          "type": "uint256"
        },
        {
          "name": "",
          "type": "uint256"
        }
      ],
      "name": "verifiedBy",
      "outputs": [
        {
          "name": "",
          "type": "address"
        }
      ],
      "payable": false,
      "stateMutability": "view",
      "type": "function"
    },
    {
      "constant": true,
      "inputs": [],
      "name": "counter",
      "outputs": [
        {
          "name": "",
          "type": "uint256"
        }
      ],
      "payable": false,
      "stateMutability": "view",
      "type": "function"
    },
    {
      "constant": true,
      "inputs": [
        {
          "name": "_tokenId",
          "type": "uint256"
        }
      ],
      "name": "ownerOf",
      "outputs": [
        {
          "name": "",
          "type": "address"
        }
      ],
      "payable": false,
      "stateMutability": "view",
      "type": "function"
    },
    {
      "constant": true,
      "inputs": [
        {
          "name": "_owner",
          "type": "address"
        }
      ],
      "name": "balanceOf",
      "outputs": [
        {
          "name": "",
          "type": "uint256"
        }
      ],
      "payable": false,
      "stateMutability": "view",
      "type": "function"
    },
    {
      "constant": true,
      "inputs": [
        {
          "name": "",
          "type": "address"
        }
      ],
      "name": "approvedHandlers",
      "outputs": [
        {
          "name": "",
          "type": "bool"
        }
      ],
      "payable": false,
      "stateMutability": "view",
      "type": "function"
    },
    {
      "constant": true,
      "inputs": [],
      "name": "symbol",
      "outputs": [
        {
          "name": "",
          "type": "string"
        }
      ],
      "payable": false,
      "stateMutability": "view",
      "type": "function"
    },
    {
      "constant": false,
      "inputs": [
        {
          "name": "_operator",
          "type": "address"
        },
        {
          "name": "_approved",
          "type": "bool"
        }
      ],
      "name": "setApprovalForAll",
      "outputs": [],
      "payable": false,
      "stateMutability": "nonpayable",
      "type": "function"
    },
    {
      "constant": false,
      "inputs": [
        {
          "name": "_from",
          "type": "address"
        },
        {
          "name": "_to",
          "type": "address"
        },
        {
          "name": "_tokenId",
          "type": "uint256"
        },
        {
          "name": "_data",
          "type": "bytes"
        }
      ],
      "name": "safeTransferFrom",
      "outputs": [],
      "payable": true,
      "stateMutability": "payable",
      "type": "function"
    },
    {
      "constant": true,
      "inputs": [
        {
          "name": "_tokenId",
          "type": "uint256"
        }
      ],
      "name": "tokenURI",
      "outputs": [
        {
          "name": "",
          "type": "string"
        }
      ],
      "payable": false,
      "stateMutability": "view",
      "type": "function"
    },
    {
      "constant": true,
      "inputs": [
        {
          "name": "_owner",
          "type": "address"
        },
        {
          "name": "_operator",
          "type": "address"
        }
      ],
      "name": "isApprovedForAll",
      "outputs": [
        {
          "name": "",
          "type": "bool"
        }
      ],
      "payable": false,
      "stateMutability": "view",
      "type": "function"
    },
    {
      "constant": true,
      "inputs": [],
      "name": "admin",
      "outputs": [
        {
          "name": "",
          "type": "address"
        }
      ],
      "payable": false,
      "stateMutability": "view",
      "type": "function"
    },
    {
      "inputs": [
        {
          "name": "_admin",
          "type": "address"
        }
      ],
      "payable": false,
      "stateMutability": "nonpayable",
      "type": "constructor"
    },
    {
      "anonymous": false,
      "inputs": [
        {
          "indexed": true,
          "name": "verifier",
          "type": "address"
        },
        {
          "indexed": true,
          "name": "tokenId",
          "type": "uint256"
        }
      ],
      "name": "LogVerify",
      "type": "event"
    },
    {
      "anonymous": false,
      "inputs": [
        {
          "indexed": true,
          "name": "_from",
          "type": "address"
        },
        {
          "indexed": true,
          "name": "_to",
          "type": "address"
        },
        {
          "indexed": false,
          "name": "_tokenId",
          "type": "uint256"
        }
      ],
      "name": "Transfer",
      "type": "event"
    },
    {
      "anonymous": false,
      "inputs": [
        {
          "indexed": true,
          "name": "_owner",
          "type": "address"
        },
        {
          "indexed": true,
          "name": "_approved",
          "type": "address"
        },
        {
          "indexed": false,
          "name": "_tokenId",
          "type": "uint256"
        }
      ],
      "name": "Approval",
      "type": "event"
    },
    {
      "anonymous": false,
      "inputs": [
        {
          "indexed": true,
          "name": "_owner",
          "type": "address"
        },
        {
          "indexed": true,
          "name": "_operator",
          "type": "address"
        },
        {
          "indexed": false,
          "name": "_approved",
          "type": "bool"
        }
      ],
      "name": "ApprovalForAll",
      "type": "event"
    },
    {
      "constant": true,
      "inputs": [
        {
          "name": "_tokenId",
          "type": "uint256"
        }
      ],
      "name": "getVerifiers",
      "outputs": [
        {
          "name": "",
          "type": "address[]"
        }
      ],
      "payable": false,
      "stateMutability": "view",
      "type": "function"
    },
    {
      "constant": true,
      "inputs": [
        {
          "name": "_owner",
          "type": "address"
        }
      ],
      "name": "getAllTokens",
      "outputs": [
        {
          "name": "",
          "type": "uint256[]"
        }
      ],
      "payable": false,
      "stateMutability": "view",
      "type": "function"
    },
    {
      "constant": false,
      "inputs": [
        {
          "name": "_tokenId",
          "type": "uint256"
        }
      ],
      "name": "verifyBadge",
      "outputs": [],
      "payable": false,
      "stateMutability": "nonpayable",
      "type": "function"
    },
    {
      "constant": false,
      "inputs": [
        {
          "name": "_handler",
          "type": "address"
        },
        {
          "name": "_state",
          "type": "bool"
        }
      ],
      "name": "setApprovedHandler",
      "outputs": [],
      "payable": false,
      "stateMutability": "nonpayable",
      "type": "function"
    },
    {
      "constant": false,
      "inputs": [
        {
          "name": "_newAdmin",
          "type": "address"
        }
      ],
      "name": "changeAdmin",
      "outputs": [],
      "payable": false,
      "stateMutability": "nonpayable",
      "type": "function"
    },
    {
      "constant": false,
      "inputs": [
        {
          "name": "_tokenID",
          "type": "uint256"
        },
        {
          "name": "URI",
          "type": "string"
        }
      ],
      "name": "setTokenURI",
      "outputs": [],
      "payable": false,
      "stateMutability": "nonpayable",
      "type": "function"
    },
    {
      "constant": false,
      "inputs": [
        {
          "name": "_cid",
          "type": "string"
        },
        {
          "name": "_oracle",
          "type": "address"
        },
        {
          "name": "_buyer",
          "type": "address"
        },
        {
          "name": "_beneficiaries",
          "type": "address[]"
        },
        {
          "name": "_amounts",
          "type": "uint256[]"
        }
      ],
      "name": "receiveNotification",
      "outputs": [],
      "payable": true,
      "stateMutability": "payable",
      "type": "function"
    },
    {
      "constant": false,
      "inputs": [
        {
          "name": "_tokenId",
          "type": "uint256"
        }
      ],
      "name": "burnToken",
      "outputs": [],
      "payable": false,
      "stateMutability": "nonpayable",
      "type": "function"
    }
  ],
  "bytecode": "0x60806040526000600b553480156200001657600080fd5b5060405160208062002e5d8339810180604052810190808051906020019092919050505080600a60006101000a81548173ffffffffffffffffffffffffffffffffffffffff021916908373ffffffffffffffffffffffffffffffffffffffff1602179055506040805190810160405280600a81526020017f556a6f204261646765730000000000000000000000000000000000000000000081525060009080519060200190620000c89291906200011e565b506040805190810160405280600381526020017f554a4f000000000000000000000000000000000000000000000000000000000081525060019080519060200190620001169291906200011e565b5050620001cd565b828054600181600116156101000203166002900490600052602060002090601f016020900481019282601f106200016157805160ff191683800117855562000192565b8280016001018555821562000192579182015b828111156200019157825182559160200191906001019062000174565b5b509050620001a19190620001a5565b5090565b620001ca91905b80821115620001c6576000816000905550600101620001ac565b5090565b90565b612c8080620001dd6000396000f30060806040526004361061016a576000357c0100000000000000000000000000000000000000000000000000000000900463ffffffff16806301ffc9a71461016f57806306fdde03146101d3578063081812fc14610263578063095ea7b3146102d0578063162094c414610310578063178b6de61461038357806318160ddd1461041b5780631933cd0d1461044657806323b872dd146104955780632f745c59146104f557806342842e0e146105565780634f6ccce7146105b657806353a79ff3146105f757806361bc221a1461066e5780636352211e1461069957806370a08231146107065780637b47ec1a1461075d5780637dab14eb1461078a5780638f283970146108ac57806393d75013146108ef57806395d89b411461094a578063a22cb465146109da578063b88d4fde14610a29578063c87b56dd14610aa1578063e985e9c514610b47578063f3bce8f214610bc2578063f5aa29c814610bef578063f851a44014610c71575b600080fd5b34801561017b57600080fd5b506101b960048036038101908080357bffffffffffffffffffffffffffffffffffffffffffffffffffffffff19169060200190929190505050610cc8565b604051808215151515815260200191505060405180910390f35b3480156101df57600080fd5b506101e8610e1c565b6040518080602001828103825283818151815260200191508051906020019080838360005b8381101561022857808201518184015260208101905061020d565b50505050905090810190601f1680156102555780820380516001836020036101000a031916815260200191505b509250505060405180910390f35b34801561026f57600080fd5b5061028e60048036038101908080359060200190929190505050610eba565b604051808273ffffffffffffffffffffffffffffffffffffffff1673ffffffffffffffffffffffffffffffffffffffff16815260200191505060405180910390f35b61030e600480360381019080803573ffffffffffffffffffffffffffffffffffffffff16906020019092919080359060200190929190505050610f52565b005b34801561031c57600080fd5b5061038160048036038101908080359060200190929190803590602001908201803590602001908080601f016020809104026020016040519081016040528093929190818152602001838380828437820191505050505050919291929050505061100b565b005b34801561038f57600080fd5b506103c4600480360381019080803573ffffffffffffffffffffffffffffffffffffffff169060200190929190505050611093565b6040518080602001828103825283818151815260200191508051906020019060200280838360005b838110156104075780820151818401526020810190506103ec565b505050509050019250505060405180910390f35b34801561042757600080fd5b506104306111aa565b6040518082815260200191505060405180910390f35b34801561045257600080fd5b50610493600480360381019080803573ffffffffffffffffffffffffffffffffffffffff1690602001909291908035151590602001909291905050506111b7565b005b6104f3600480360381019080803573ffffffffffffffffffffffffffffffffffffffff169060200190929190803573ffffffffffffffffffffffffffffffffffffffff1690602001909291908035906020019092919050505061126e565b005b34801561050157600080fd5b50610540600480360381019080803573ffffffffffffffffffffffffffffffffffffffff169060200190929190803590602001909291905050506113ef565b6040518082815260200191505060405180910390f35b6105b4600480360381019080803573ffffffffffffffffffffffffffffffffffffffff169060200190929190803573ffffffffffffffffffffffffffffffffffffffff169060200190929190803590602001909291905050506114fb565b005b3480156105c257600080fd5b506105e1600480360381019080803590602001909291905050506117ce565b6040518082815260200191505060405180910390f35b34801561060357600080fd5b5061062c6004803603810190808035906020019092919080359060200190929190505050611804565b604051808273ffffffffffffffffffffffffffffffffffffffff1673ffffffffffffffffffffffffffffffffffffffff16815260200191505060405180910390f35b34801561067a57600080fd5b50610683611851565b6040518082815260200191505060405180910390f35b3480156106a557600080fd5b506106c460048036038101908080359060200190929190505050611857565b604051808273ffffffffffffffffffffffffffffffffffffffff1673ffffffffffffffffffffffffffffffffffffffff16815260200191505060405180910390f35b34801561071257600080fd5b50610747600480360381019080803573ffffffffffffffffffffffffffffffffffffffff1690602001909291905050506118ef565b6040518082815260200191505060405180910390f35b34801561076957600080fd5b5061078860048036038101908080359060200190929190505050611960565b005b6108aa600480360381019080803590602001908201803590602001908080601f0160208091040260200160405190810160405280939291908181526020018383808284378201915050505050509192919290803573ffffffffffffffffffffffffffffffffffffffff169060200190929190803573ffffffffffffffffffffffffffffffffffffffff1690602001909291908035906020019082018035906020019080806020026020016040519081016040528093929190818152602001838360200280828437820191505050505050919291929080359060200190820180359060200190808060200260200160405190810160405280939291908181526020018383602002808284378201915050505050509192919290505050611a2a565b005b3480156108b857600080fd5b506108ed600480360381019080803573ffffffffffffffffffffffffffffffffffffffff169060200190929190505050611af8565b005b3480156108fb57600080fd5b50610930600480360381019080803573ffffffffffffffffffffffffffffffffffffffff169060200190929190505050611b98565b604051808215151515815260200191505060405180910390f35b34801561095657600080fd5b5061095f611bb8565b6040518080602001828103825283818151815260200191508051906020019080838360005b8381101561099f578082015181840152602081019050610984565b50505050905090810190601f1680156109cc5780820380516001836020036101000a031916815260200191505b509250505060405180910390f35b3480156109e657600080fd5b50610a27600480360381019080803573ffffffffffffffffffffffffffffffffffffffff169060200190929190803515159060200190929190505050611c56565b005b610a9f600480360381019080803573ffffffffffffffffffffffffffffffffffffffff169060200190929190803573ffffffffffffffffffffffffffffffffffffffff16906020019092919080359060200190929190803590602001908201803590602001919091929391929390505050611d92565b005b348015610aad57600080fd5b50610acc60048036038101908080359060200190929190505050612094565b6040518080602001828103825283818151815260200191508051906020019080838360005b83811015610b0c578082015181840152602081019050610af1565b50505050905090810190601f168015610b395780820380516001836020036101000a031916815260200191505b509250505060405180910390f35b348015610b5357600080fd5b50610ba8600480360381019080803573ffffffffffffffffffffffffffffffffffffffff169060200190929190803573ffffffffffffffffffffffffffffffffffffffff169060200190929190505050612149565b604051808215151515815260200191505060405180910390f35b348015610bce57600080fd5b50610bed600480360381019080803590602001909291905050506121dd565b005b348015610bfb57600080fd5b50610c1a6004803603810190808035906020019092919050505061229b565b6040518080602001828103825283818151815260200191508051906020019060200280838360005b83811015610c5d578082015181840152602081019050610c42565b505050509050019250505060405180910390f35b348015610c7d57600080fd5b50610c8661233c565b604051808273ffffffffffffffffffffffffffffffffffffffff1673ffffffffffffffffffffffffffffffffffffffff16815260200191505060405180910390f35b60006380ac58cd7c0100000000000000000000000000000000000000000000000000000000027bffffffffffffffffffffffffffffffffffffffffffffffffffffffff1916827bffffffffffffffffffffffffffffffffffffffffffffffffffffffff19161480610d995750635b5e139f7c0100000000000000000000000000000000000000000000000000000000027bffffffffffffffffffffffffffffffffffffffffffffffffffffffff1916827bffffffffffffffffffffffffffffffffffffffffffffffffffffffff1916145b80610e04575063780e9d637c0100000000000000000000000000000000000000000000000000000000027bffffffffffffffffffffffffffffffffffffffffffffffffffffffff1916827bffffffffffffffffffffffffffffffffffffffffffffffffffffffff1916145b15610e125760019050610e17565b600090505b919050565b60008054600181600116156101000203166002900480601f016020809104026020016040519081016040528092919081815260200182805460018160011615610100020316600290048015610eb25780601f10610e8757610100808354040283529160200191610eb2565b820191906000526020600020905b815481529060010190602001808311610e9557829003601f168201915b505050505081565b60008160006005600083815260200190815260200160002060009054906101000a900473ffffffffffffffffffffffffffffffffffffffff1673ffffffffffffffffffffffffffffffffffffffff1614151515610f1657600080fd5b6007600084815260200190815260200160002060009054906101000a900473ffffffffffffffffffffffffffffffffffffffff16915050919050565b60008160006005600083815260200190815260200160002060009054906101000a900473ffffffffffffffffffffffffffffffffffffffff1673ffffffffffffffffffffffffffffffffffffffff1614151515610fae57600080fd5b82610fb881612362565b1515610fc357600080fd5b6005600085815260200190815260200160002060009054906101000a900473ffffffffffffffffffffffffffffffffffffffff169250611004838686612491565b5050505050565b600a60009054906101000a900473ffffffffffffffffffffffffffffffffffffffff1673ffffffffffffffffffffffffffffffffffffffff163373ffffffffffffffffffffffffffffffffffffffff1614151561106757600080fd5b8060096000848152602001908152602001600020908051906020019061108e929190612b83565b505050565b6060600060606000600460008673ffffffffffffffffffffffffffffffffffffffff1673ffffffffffffffffffffffffffffffffffffffff1681526020019081526020016000208054905092508260405190808252806020026020018201604052801561110f5781602001602082028038833980820191505090505b509150600090505b8281101561119f57600460008673ffffffffffffffffffffffffffffffffffffffff1673ffffffffffffffffffffffffffffffffffffffff1681526020019081526020016000208181548110151561116b57fe5b9060005260206000200154828281518110151561118457fe5b90602001906020020181815250508080600101915050611117565b819350505050919050565b6000600280549050905090565b600a60009054906101000a900473ffffffffffffffffffffffffffffffffffffffff1673ffffffffffffffffffffffffffffffffffffffff163373ffffffffffffffffffffffffffffffffffffffff1614151561121357600080fd5b80600c60008473ffffffffffffffffffffffffffffffffffffffff1673ffffffffffffffffffffffffffffffffffffffff16815260200190815260200160002060006101000a81548160ff0219169083151502179055505050565b8060006005600083815260200190815260200160002060009054906101000a900473ffffffffffffffffffffffffffffffffffffffff1673ffffffffffffffffffffffffffffffffffffffff16141515156112c857600080fd5b8383836112d481612362565b8061133d57503373ffffffffffffffffffffffffffffffffffffffff166007600083815260200190815260200160002060009054906101000a900473ffffffffffffffffffffffffffffffffffffffff1673ffffffffffffffffffffffffffffffffffffffff16145b151561134857600080fd5b8273ffffffffffffffffffffffffffffffffffffffff166005600083815260200190815260200160002060009054906101000a900473ffffffffffffffffffffffffffffffffffffffff1673ffffffffffffffffffffffffffffffffffffffff161415156113b557600080fd5b60008273ffffffffffffffffffffffffffffffffffffffff16141515156113db57600080fd5b6113e6878787612601565b50505050505050565b60008060006005600083815260200190815260200160002060009054906101000a900473ffffffffffffffffffffffffffffffffffffffff1673ffffffffffffffffffffffffffffffffffffffff161415151561144b57600080fd5b600460008573ffffffffffffffffffffffffffffffffffffffff1673ffffffffffffffffffffffffffffffffffffffff168152602001908152602001600020805490508310151561149b57600080fd5b600460008573ffffffffffffffffffffffffffffffffffffffff1673ffffffffffffffffffffffffffffffffffffffff168152602001908152602001600020838154811015156114e757fe5b906000526020600020015491505092915050565b60008160006005600083815260200190815260200160002060009054906101000a900473ffffffffffffffffffffffffffffffffffffffff1673ffffffffffffffffffffffffffffffffffffffff161415151561155757600080fd5b84848461156381612362565b806115cc57503373ffffffffffffffffffffffffffffffffffffffff166007600083815260200190815260200160002060009054906101000a900473ffffffffffffffffffffffffffffffffffffffff1673ffffffffffffffffffffffffffffffffffffffff16145b15156115d757600080fd5b8273ffffffffffffffffffffffffffffffffffffffff166005600083815260200190815260200160002060009054906101000a900473ffffffffffffffffffffffffffffffffffffffff1673ffffffffffffffffffffffffffffffffffffffff1614151561164457600080fd5b60008273ffffffffffffffffffffffffffffffffffffffff161415151561166a57600080fd5b611675888888612601565b863b945060008511156117c45763f0b9e5ba7c0100000000000000000000000000000000000000000000000000000000028773ffffffffffffffffffffffffffffffffffffffff1663f0b9e5ba8a896040518363ffffffff167c0100000000000000000000000000000000000000000000000000000000028152600401808373ffffffffffffffffffffffffffffffffffffffff1673ffffffffffffffffffffffffffffffffffffffff168152602001828152602001806020018281038252600081526020016020019350505050602060405180830381600087803b15801561175d57600080fd5b505af1158015611771573d6000803e3d6000fd5b505050506040513d602081101561178757600080fd5b81019080805190602001909291905050507bffffffffffffffffffffffffffffffffffffffffffffffffffffffff19161415156117c357600080fd5b5b5050505050505050565b6000600280549050821015156117e357600080fd5b6002828154811015156117f257fe5b90600052602060002001549050919050565b600d6020528160005260406000208181548110151561181f57fe5b906000526020600020016000915091509054906101000a900473ffffffffffffffffffffffffffffffffffffffff1681565b600b5481565b60008160006005600083815260200190815260200160002060009054906101000a900473ffffffffffffffffffffffffffffffffffffffff1673ffffffffffffffffffffffffffffffffffffffff16141515156118b357600080fd5b6005600084815260200190815260200160002060009054906101000a900473ffffffffffffffffffffffffffffffffffffffff16915050919050565b6000808273ffffffffffffffffffffffffffffffffffffffff161415151561191657600080fd5b600460008373ffffffffffffffffffffffffffffffffffffffff1673ffffffffffffffffffffffffffffffffffffffff168152602001908152602001600020805490509050919050565b3373ffffffffffffffffffffffffffffffffffffffff166005600083815260200190815260200160002060009054906101000a900473ffffffffffffffffffffffffffffffffffffffff1673ffffffffffffffffffffffffffffffffffffffff161415156119cd57600080fd5b6119d733826126df565b60003373ffffffffffffffffffffffffffffffffffffffff167fddf252ad1be2c89b69c2b068fc378daa952ba7f163c4a11628f55a4df523b3ef836040518082815260200191505060405180910390a350565b600c60003373ffffffffffffffffffffffffffffffffffffffff1673ffffffffffffffffffffffffffffffffffffffff16815260200190815260200160002060009054906101000a900460ff161515611a8257600080fd5b611a8e83600b54612a1b565b8273ffffffffffffffffffffffffffffffffffffffff1660007fddf252ad1be2c89b69c2b068fc378daa952ba7f163c4a11628f55a4df523b3ef600b546040518082815260200191505060405180910390a36001600b600082825401925050819055505050505050565b600a60009054906101000a900473ffffffffffffffffffffffffffffffffffffffff1673ffffffffffffffffffffffffffffffffffffffff163373ffffffffffffffffffffffffffffffffffffffff16141515611b5457600080fd5b80600a60006101000a81548173ffffffffffffffffffffffffffffffffffffffff021916908373ffffffffffffffffffffffffffffffffffffffff16021790555050565b600c6020528060005260406000206000915054906101000a900460ff1681565b60018054600181600116156101000203166002900480601f016020809104026020016040519081016040528092919081815260200182805460018160011615610100020316600290048015611c4e5780601f10611c2357610100808354040283529160200191611c4e565b820191906000526020600020905b815481529060010190602001808311611c3157829003601f168201915b505050505081565b3373ffffffffffffffffffffffffffffffffffffffff168273ffffffffffffffffffffffffffffffffffffffff1614151515611c9157600080fd5b80600860003373ffffffffffffffffffffffffffffffffffffffff1673ffffffffffffffffffffffffffffffffffffffff16815260200190815260200160002060008473ffffffffffffffffffffffffffffffffffffffff1673ffffffffffffffffffffffffffffffffffffffff16815260200190815260200160002060006101000a81548160ff0219169083151502179055508173ffffffffffffffffffffffffffffffffffffffff163373ffffffffffffffffffffffffffffffffffffffff167f17307eab39ab6107e8899845ad3d59bd9653f200f220920489ca2b5937696c3183604051808215151515815260200191505060405180910390a35050565b60008360006005600083815260200190815260200160002060009054906101000a900473ffffffffffffffffffffffffffffffffffffffff1673ffffffffffffffffffffffffffffffffffffffff1614151515611dee57600080fd5b868686611dfa81612362565b80611e6357503373ffffffffffffffffffffffffffffffffffffffff166007600083815260200190815260200160002060009054906101000a900473ffffffffffffffffffffffffffffffffffffffff1673ffffffffffffffffffffffffffffffffffffffff16145b1515611e6e57600080fd5b8273ffffffffffffffffffffffffffffffffffffffff166005600083815260200190815260200160002060009054906101000a900473ffffffffffffffffffffffffffffffffffffffff1673ffffffffffffffffffffffffffffffffffffffff16141515611edb57600080fd5b60008273ffffffffffffffffffffffffffffffffffffffff1614151515611f0157600080fd5b611f0c8a8a8a612601565b883b945060008511156120885763f0b9e5ba7c0100000000000000000000000000000000000000000000000000000000027bffffffffffffffffffffffffffffffffffffffffffffffffffffffff19168973ffffffffffffffffffffffffffffffffffffffff1663f0b9e5ba8c8b8b8b6040518563ffffffff167c0100000000000000000000000000000000000000000000000000000000028152600401808573ffffffffffffffffffffffffffffffffffffffff1673ffffffffffffffffffffffffffffffffffffffff168152602001848152602001806020018281038252848482818152602001925080828437820191505095505050505050602060405180830381600087803b15801561202157600080fd5b505af1158015612035573d6000803e3d6000fd5b505050506040513d602081101561204b57600080fd5b81019080805190602001909291905050507bffffffffffffffffffffffffffffffffffffffffffffffffffffffff191614151561208757600080fd5b5b50505050505050505050565b6060600960008381526020019081526020016000208054600181600116156101000203166002900480601f01602080910402602001604051908101604052809291908181526020018280546001816001161561010002031660029004801561213d5780601f106121125761010080835404028352916020019161213d565b820191906000526020600020905b81548152906001019060200180831161212057829003601f168201915b50505050509050919050565b6000600860008473ffffffffffffffffffffffffffffffffffffffff1673ffffffffffffffffffffffffffffffffffffffff16815260200190815260200160002060008373ffffffffffffffffffffffffffffffffffffffff1673ffffffffffffffffffffffffffffffffffffffff16815260200190815260200160002060009054906101000a900460ff16905092915050565b600d60008281526020019081526020016000203390806001815401808255809150509060018203906000526020600020016000909192909190916101000a81548173ffffffffffffffffffffffffffffffffffffffff021916908373ffffffffffffffffffffffffffffffffffffffff16021790555050803373ffffffffffffffffffffffffffffffffffffffff167fc39acd4a741ea13c95e4e2584a7d0d7360be5e6d836aade72e5a7b1a56d2aa0a60405160405180910390a350565b6060600d600083815260200190815260200160002080548060200260200160405190810160405280929190818152602001828054801561233057602002820191906000526020600020905b8160009054906101000a900473ffffffffffffffffffffffffffffffffffffffff1673ffffffffffffffffffffffffffffffffffffffff16815260200190600101908083116122e6575b50505050509050919050565b600a60009054906101000a900473ffffffffffffffffffffffffffffffffffffffff1681565b60003373ffffffffffffffffffffffffffffffffffffffff166005600084815260200190815260200160002060009054906101000a900473ffffffffffffffffffffffffffffffffffffffff1673ffffffffffffffffffffffffffffffffffffffff16148061248a5750600860006005600085815260200190815260200160002060009054906101000a900473ffffffffffffffffffffffffffffffffffffffff1673ffffffffffffffffffffffffffffffffffffffff1673ffffffffffffffffffffffffffffffffffffffff16815260200190815260200160002060003373ffffffffffffffffffffffffffffffffffffffff1673ffffffffffffffffffffffffffffffffffffffff16815260200190815260200160002060009054906101000a900460ff165b9050919050565b8273ffffffffffffffffffffffffffffffffffffffff168273ffffffffffffffffffffffffffffffffffffffff16141515156124cc57600080fd5b60006007600083815260200190815260200160002060009054906101000a900473ffffffffffffffffffffffffffffffffffffffff1673ffffffffffffffffffffffffffffffffffffffff1614801561253b575060008273ffffffffffffffffffffffffffffffffffffffff16145b1561254557600080fd5b816007600083815260200190815260200160002060006101000a81548173ffffffffffffffffffffffffffffffffffffffff021916908373ffffffffffffffffffffffffffffffffffffffff1602179055508173ffffffffffffffffffffffffffffffffffffffff168373ffffffffffffffffffffffffffffffffffffffff167f8c5be1e5ebec7d5bd14f71427d1e84f3dd0314c0f7b2291e5b200ac8c7c3b925836040518082815260200191505060405180910390a3505050565b60006007600083815260200190815260200160002060009054906101000a900473ffffffffffffffffffffffffffffffffffffffff1673ffffffffffffffffffffffffffffffffffffffff161415156126615761266083600083612491565b5b61266b83826126df565b6126758282612a1b565b8173ffffffffffffffffffffffffffffffffffffffff168373ffffffffffffffffffffffffffffffffffffffff167fddf252ad1be2c89b69c2b068fc378daa952ba7f163c4a11628f55a4df523b3ef836040518082815260200191505060405180910390a3505050565b60008060008060036000868152602001908152602001600020549350600280549050925060026001840381548110151561271557fe5b906000526020600020015460028581548110151561272f57fe5b9060005260206000200181905550836003600060026001870381548110151561275457fe5b906000526020600020015481526020019081526020016000208190555060026001840381548110151561278357fe5b906000526020600020016000905560016002818180549050039150816127a99190612c03565b5060066000868152602001908152602001600020549150600460008773ffffffffffffffffffffffffffffffffffffffff1673ffffffffffffffffffffffffffffffffffffffff168152602001908152602001600020805490509050600460008773ffffffffffffffffffffffffffffffffffffffff1673ffffffffffffffffffffffffffffffffffffffff1681526020019081526020016000206001820381548110151561285457fe5b9060005260206000200154600460008873ffffffffffffffffffffffffffffffffffffffff1673ffffffffffffffffffffffffffffffffffffffff168152602001908152602001600020838154811015156128ab57fe5b90600052602060002001819055508160066000600460008a73ffffffffffffffffffffffffffffffffffffffff1673ffffffffffffffffffffffffffffffffffffffff1681526020019081526020016000206001850381548110151561290d57fe5b9060005260206000200154815260200190815260200160002081905550600460008773ffffffffffffffffffffffffffffffffffffffff1673ffffffffffffffffffffffffffffffffffffffff1681526020019081526020016000206001820381548110151561297957fe5b90600052602060002001600090556001600460008873ffffffffffffffffffffffffffffffffffffffff1673ffffffffffffffffffffffffffffffffffffffff168152602001908152602001600020818180549050039150816129dc9190612c03565b506005600086815260200190815260200160002060006101000a81549073ffffffffffffffffffffffffffffffffffffffff0219169055505050505050565b60028190806001815401808255809150509060018203906000526020600020016000909192909190915055506001600280549050036003600083815260200190815260200160002081905550816005600083815260200190815260200160002060006101000a81548173ffffffffffffffffffffffffffffffffffffffff021916908373ffffffffffffffffffffffffffffffffffffffff160217905550600460008373ffffffffffffffffffffffffffffffffffffffff1673ffffffffffffffffffffffffffffffffffffffff1681526020019081526020016000208190806001815401808255809150509060018203906000526020600020016000909192909190915055506001600460008473ffffffffffffffffffffffffffffffffffffffff1673ffffffffffffffffffffffffffffffffffffffff168152602001908152602001600020805490500360066000838152602001908152602001600020819055505050565b828054600181600116156101000203166002900490600052602060002090601f016020900481019282601f10612bc457805160ff1916838001178555612bf2565b82800160010185558215612bf2579182015b82811115612bf1578251825591602001919060010190612bd6565b5b509050612bff9190612c2f565b5090565b815481835581811115612c2a57818360005260206000209182019101612c299190612c2f565b5b505050565b612c5191905b80821115612c4d576000816000905550600101612c35565b5090565b905600a165627a7a72305820982d790b6ad15122422ca93c1bcafb0a4e99446027bf42e88fce0ba9691819b20029",
  "source": "pragma solidity ^0.4.21;\nimport \"./eip721/EIP721.sol\";\n\n\ncontract UjoAutoBadges is EIP721 {\n\n\n    address public admin;\n    uint256 public counter = 0;\n    mapping (address => bool) public approvedHandlers;\n    // mapping (uint256 => AdditionalTokenData) public additionalData;\n    mapping (uint256 => address[]) public verifiedBy;\n\n    event LogVerify(address indexed verifier, uint256 indexed tokenId);\n\n    /* struct AdditionalTokenData {\n        string cid;\n        address[] beneficiaries;\n        uint256[] amounts;\n        address oracle;\n        uint256 minted;\n        address[] verifiedBy;\n    }*/\n\n    function UjoAutoBadges(address _admin) public {\n        admin = _admin;\n        name = \"Ujo Badges\";\n        symbol = \"UJO\";\n    }\n    /* function getCid(uint256 _tokenId) public view returns (string) {\n        return additionalData[_tokenId].cid;\n    }\n\n    function getBeneficiaries(uint256 _tokenId) public view returns (address[]) {\n        return additionalData[_tokenId].beneficiaries;\n    }\n\n    function getAmounts(uint256 _tokenId) public view returns (uint256[]) {\n        return additionalData[_tokenId].amounts;\n    }\n\n    function getOracle(uint256 _tokenId) public view returns(address) {\n        return additionalData[_tokenId].oracle;\n    }\n\n    function getMinted(uint256 _tokenId) public view returns(uint256) {\n        return additionalData[_tokenId].minted;\n    }*/\n\n    function getVerifiers(uint256 _tokenId) public view returns (address[]) {\n        return verifiedBy[_tokenId];\n    }\n\n    // additional helper function not in EIP721.\n    function getAllTokens(address _owner) public view returns (uint256[]) {\n        uint size = ownedTokens[_owner].length;\n        uint[] memory result = new uint256[](size);\n        for (uint i = 0; i < size; i++) {\n            result[i] = ownedTokens[_owner][i];\n        }\n        return result;\n    }\n\n    modifier onlyAdmin() {\n        require(msg.sender == admin);\n        _;\n    }\n\n    modifier onlyApprovedHandler() {\n        require(approvedHandlers[msg.sender]);\n        _;\n    }\n\n    /*\n    Since badges are automatically created from any release purchase,\n    any purchase that does not conform to the expected criteria set in the off-chain\n    license is not regarded as legitimate. In short term, Ujo, verifies this off-chain.\n    However, over time, anyone can submit verifications & accordingly check on-chain if the\n    badges were issued according to the right criteria.\n    */\n    function verifyBadge(uint256 _tokenId) public {\n        verifiedBy[_tokenId].push(msg.sender);\n        emit LogVerify(msg.sender, _tokenId);\n    }\n\n    function setApprovedHandler(address _handler, bool _state) public onlyAdmin {\n        approvedHandlers[_handler] = _state;\n    }\n\n    function changeAdmin(address _newAdmin) public onlyAdmin {\n        admin = _newAdmin;\n    }\n\n    function setTokenURI(uint256 _tokenID, string URI) public {\n        require(msg.sender == admin);\n        tokenURIs[_tokenID] = URI;\n    }\n\n    function receiveNotification(string _cid,\n    address _oracle,\n    address _buyer,\n    address[] _beneficiaries,\n    uint256[] _amounts) public payable onlyApprovedHandler {\n        addToken(_buyer, counter);\n        /* AdditionalTokenData memory aData;\n        aData.cid = _cid;\n        aData.beneficiaries = _beneficiaries;\n        aData.amounts = _amounts;\n        aData.oracle = _oracle;\n        aData.minted = now; //solhint-disable-line not-rely-on-time\n        additionalData[counter] = aData;*/\n\n        emit Transfer(0, _buyer, counter);\n        counter += 1; // every new token gets a new ID\n    }\n\n    function burnToken(uint256 _tokenId) public {\n        require(ownerOfToken[_tokenId] == msg.sender); //token should be in control of owner\n        removeToken(msg.sender, _tokenId);\n        emit Transfer(msg.sender, 0, _tokenId);\n    }\n}\n",
  "sourcePath": "/Users/simondlr/code/ethereum/contracts-badges/contracts/UjoAutoBadges.sol",
  "compiler": {
    "name": "solc",
    "version": "0.4.23+commit.124ca40d.Emscripten.clang"
  },
  "schemaVersion": "2.0.0",
  "updatedAt": "2018-05-09T22:46:08.736Z"
}