{
  "contractName": "UjoPatronageBadgesFunctions",
  "abi": [
    {
      "constant": true,
      "inputs": [
        {
          "name": "interfaceID",
          "type": "bytes4"
        }
      ],
      "name": "supportsInterface",
      "outputs": [
        {
          "name": "",
          "type": "bool"
        }
      ],
      "payable": false,
      "stateMutability": "view",
      "type": "function"
    },
    {
      "constant": true,
      "inputs": [],
      "name": "name",
      "outputs": [
        {
          "name": "",
          "type": "string"
        }
      ],
      "payable": false,
      "stateMutability": "view",
      "type": "function"
    },
    {
      "constant": true,
      "inputs": [
        {
          "name": "_tokenId",
          "type": "uint256"
        }
      ],
      "name": "getApproved",
      "outputs": [
        {
          "name": "",
          "type": "address"
        }
      ],
      "payable": false,
      "stateMutability": "view",
      "type": "function"
    },
    {
      "constant": false,
      "inputs": [
        {
          "name": "_approved",
          "type": "address"
        },
        {
          "name": "_tokenId",
          "type": "uint256"
        }
      ],
      "name": "approve",
      "outputs": [],
      "payable": true,
      "stateMutability": "payable",
      "type": "function"
    },
    {
      "constant": true,
      "inputs": [],
      "name": "totalSupply",
      "outputs": [
        {
          "name": "",
          "type": "uint256"
        }
      ],
      "payable": false,
      "stateMutability": "view",
      "type": "function"
    },
    {
      "constant": true,
      "inputs": [
        {
          "name": "",
          "type": "uint256"
        }
      ],
      "name": "tokenURIIDs",
      "outputs": [
        {
          "name": "",
          "type": "string"
        }
      ],
      "payable": false,
      "stateMutability": "view",
      "type": "function"
    },
    {
      "constant": false,
      "inputs": [
        {
          "name": "_from",
          "type": "address"
        },
        {
          "name": "_to",
          "type": "address"
        },
        {
          "name": "_tokenId",
          "type": "uint256"
        }
      ],
      "name": "transferFrom",
      "outputs": [],
      "payable": true,
      "stateMutability": "payable",
      "type": "function"
    },
    {
      "constant": true,
      "inputs": [],
      "name": "tokenURIBase",
      "outputs": [
        {
          "name": "",
          "type": "string"
        }
      ],
      "payable": false,
      "stateMutability": "view",
      "type": "function"
    },
    {
      "constant": true,
      "inputs": [
        {
          "name": "_owner",
          "type": "address"
        },
        {
          "name": "_index",
          "type": "uint256"
        }
      ],
      "name": "tokenOfOwnerByIndex",
      "outputs": [
        {
          "name": "_tokenId",
          "type": "uint256"
        }
      ],
      "payable": false,
      "stateMutability": "view",
      "type": "function"
    },
    {
      "constant": false,
      "inputs": [
        {
          "name": "_from",
          "type": "address"
        },
        {
          "name": "_to",
          "type": "address"
        },
        {
          "name": "_tokenId",
          "type": "uint256"
        }
      ],
      "name": "safeTransferFrom",
      "outputs": [],
      "payable": true,
      "stateMutability": "payable",
      "type": "function"
    },
    {
      "constant": true,
      "inputs": [
        {
          "name": "_index",
          "type": "uint256"
        }
      ],
      "name": "tokenByIndex",
      "outputs": [
        {
          "name": "",
          "type": "uint256"
        }
      ],
      "payable": false,
      "stateMutability": "view",
      "type": "function"
    },
    {
      "constant": true,
      "inputs": [
        {
          "name": "_tokenId",
          "type": "uint256"
        }
      ],
      "name": "ownerOf",
      "outputs": [
        {
          "name": "",
          "type": "address"
        }
      ],
      "payable": false,
      "stateMutability": "view",
      "type": "function"
    },
    {
      "constant": true,
      "inputs": [
        {
          "name": "_owner",
          "type": "address"
        }
      ],
      "name": "balanceOf",
      "outputs": [
        {
          "name": "",
          "type": "uint256"
        }
      ],
      "payable": false,
      "stateMutability": "view",
      "type": "function"
    },
    {
      "constant": true,
      "inputs": [],
      "name": "oracle",
      "outputs": [
        {
          "name": "",
          "type": "address"
        }
      ],
      "payable": false,
      "stateMutability": "view",
      "type": "function"
    },
    {
      "constant": true,
      "inputs": [],
      "name": "owner",
      "outputs": [
        {
          "name": "",
          "type": "address"
        }
      ],
      "payable": false,
      "stateMutability": "view",
      "type": "function"
    },
    {
      "constant": true,
      "inputs": [],
      "name": "symbol",
      "outputs": [
        {
          "name": "",
          "type": "string"
        }
      ],
      "payable": false,
      "stateMutability": "view",
      "type": "function"
    },
    {
      "constant": false,
      "inputs": [
        {
          "name": "_operator",
          "type": "address"
        },
        {
          "name": "_approved",
          "type": "bool"
        }
      ],
      "name": "setApprovalForAll",
      "outputs": [],
      "payable": false,
      "stateMutability": "nonpayable",
      "type": "function"
    },
    {
      "constant": true,
      "inputs": [],
      "name": "totalMinted",
      "outputs": [
        {
          "name": "",
          "type": "uint256"
        }
      ],
      "payable": false,
      "stateMutability": "view",
      "type": "function"
    },
    {
      "constant": false,
      "inputs": [
        {
          "name": "_from",
          "type": "address"
        },
        {
          "name": "_to",
          "type": "address"
        },
        {
          "name": "_tokenId",
          "type": "uint256"
        },
        {
          "name": "data",
          "type": "bytes"
        }
      ],
      "name": "safeTransferFrom",
      "outputs": [],
      "payable": true,
      "stateMutability": "payable",
      "type": "function"
    },
    {
      "constant": true,
      "inputs": [],
      "name": "tokenURISuffix",
      "outputs": [
        {
          "name": "",
          "type": "string"
        }
      ],
      "payable": false,
      "stateMutability": "view",
      "type": "function"
    },
    {
      "constant": true,
      "inputs": [
        {
          "name": "_owner",
          "type": "address"
        },
        {
          "name": "_operator",
          "type": "address"
        }
      ],
      "name": "isApprovedForAll",
      "outputs": [
        {
          "name": "",
          "type": "bool"
        }
      ],
      "payable": false,
      "stateMutability": "view",
      "type": "function"
    },
    {
      "anonymous": false,
      "inputs": [
        {
          "indexed": true,
          "name": "tokenId",
          "type": "uint256"
        },
        {
          "indexed": false,
          "name": "mgcid",
          "type": "string"
        },
        {
          "indexed": false,
          "name": "nftcid",
          "type": "string"
        },
        {
          "indexed": true,
          "name": "beneficiaryOfBadge",
          "type": "address"
        },
        {
          "indexed": true,
          "name": "usdCostOfBadge",
          "type": "uint256"
        },
        {
          "indexed": false,
          "name": "timeMinted",
          "type": "uint256"
        },
        {
          "indexed": false,
          "name": "buyer",
          "type": "address"
        },
        {
          "indexed": false,
          "name": "issuer",
          "type": "address"
        }
      ],
      "name": "LogBadgeMinted",
      "type": "event"
    },
    {
      "anonymous": false,
      "inputs": [
        {
          "indexed": true,
          "name": "_from",
          "type": "address"
        },
        {
          "indexed": true,
          "name": "_to",
          "type": "address"
        },
        {
          "indexed": true,
          "name": "_tokenId",
          "type": "uint256"
        }
      ],
      "name": "Transfer",
      "type": "event"
    },
    {
      "anonymous": false,
      "inputs": [
        {
          "indexed": true,
          "name": "_owner",
          "type": "address"
        },
        {
          "indexed": true,
          "name": "_approved",
          "type": "address"
        },
        {
          "indexed": true,
          "name": "_tokenId",
          "type": "uint256"
        }
      ],
      "name": "Approval",
      "type": "event"
    },
    {
      "anonymous": false,
      "inputs": [
        {
          "indexed": true,
          "name": "_owner",
          "type": "address"
        },
        {
          "indexed": true,
          "name": "_operator",
          "type": "address"
        },
        {
          "indexed": false,
          "name": "_approved",
          "type": "bool"
        }
      ],
      "name": "ApprovalForAll",
      "type": "event"
    },
    {
      "constant": true,
      "inputs": [
        {
          "name": "_tokenId",
          "type": "uint256"
        }
      ],
      "name": "tokenURI",
      "outputs": [
        {
          "name": "",
          "type": "string"
        }
      ],
      "payable": false,
      "stateMutability": "view",
      "type": "function"
    },
    {
      "constant": false,
      "inputs": [
        {
          "name": "_initialiseBadges",
          "type": "address"
        },
        {
          "name": "_initialOracle",
          "type": "address"
        }
      ],
      "name": "setupBadges",
      "outputs": [],
      "payable": false,
      "stateMutability": "nonpayable",
      "type": "function"
    },
    {
      "constant": true,
      "inputs": [
        {
          "name": "_owner",
          "type": "address"
        }
      ],
      "name": "getAllTokens",
      "outputs": [
        {
          "name": "",
          "type": "uint256[]"
        }
      ],
      "payable": false,
      "stateMutability": "view",
      "type": "function"
    },
    {
      "constant": false,
      "inputs": [
        {
          "name": "_oracle",
          "type": "address"
        }
      ],
      "name": "setOracle",
      "outputs": [],
      "payable": false,
      "stateMutability": "nonpayable",
      "type": "function"
    },
    {
      "constant": false,
      "inputs": [
        {
          "name": "_tokenID",
          "type": "uint256"
        },
        {
          "name": "_newID",
          "type": "string"
        }
      ],
      "name": "setTokenURIID",
      "outputs": [],
      "payable": false,
      "stateMutability": "nonpayable",
      "type": "function"
    },
    {
      "constant": false,
      "inputs": [
        {
          "name": "_newURIBase",
          "type": "string"
        }
      ],
      "name": "setTokenURIBase",
      "outputs": [],
      "payable": false,
      "stateMutability": "nonpayable",
      "type": "function"
    },
    {
      "constant": false,
      "inputs": [
        {
          "name": "_newURISuffix",
          "type": "string"
        }
      ],
      "name": "setTokenURISuffix",
      "outputs": [],
      "payable": false,
      "stateMutability": "nonpayable",
      "type": "function"
    },
    {
      "constant": false,
      "inputs": [
        {
          "name": "_buyer",
          "type": "address"
        },
        {
          "name": "_mgCid",
          "type": "string"
        },
        {
          "name": "_nftCid",
          "type": "string"
        },
        {
          "name": "_beneficiary",
          "type": "address"
        },
        {
          "name": "_usdCost",
          "type": "uint256"
        }
      ],
      "name": "adminCreateBadge",
      "outputs": [
        {
          "name": "tokenId",
          "type": "uint256"
        }
      ],
      "payable": false,
      "stateMutability": "nonpayable",
      "type": "function"
    },
    {
      "constant": false,
      "inputs": [
        {
          "name": "_buyer",
          "type": "address"
        },
        {
          "name": "_mgCid",
          "type": "string"
        },
        {
          "name": "_nftCid",
          "type": "string"
        },
        {
          "name": "_beneficiary",
          "type": "address"
        },
        {
          "name": "_usdCost",
          "type": "uint256"
        }
      ],
      "name": "mint",
      "outputs": [
        {
          "name": "tokenId",
          "type": "uint256"
        }
      ],
      "payable": true,
      "stateMutability": "payable",
      "type": "function"
    },
    {
      "constant": false,
      "inputs": [
        {
          "name": "_tokenId",
          "type": "uint256"
        }
      ],
      "name": "burnToken",
      "outputs": [],
      "payable": false,
      "stateMutability": "nonpayable",
      "type": "function"
    }
  ],
  "bytecode": "0x60806040526000600f556000601060146101000a81548160ff02191690831515021790555034801561003057600080fd5b50613a1f806100406000396000f30060806040526004361061018b576000357c0100000000000000000000000000000000000000000000000000000000900463ffffffff16806301ffc9a71461019057806306fdde03146101f4578063081812fc14610284578063095ea7b3146102f1578063178b6de61461033157806318160ddd146103c95780631d91efa9146103f457806323b872dd1461049a578063261220a3146104fa5780632f745c591461058a57806342764947146105eb57806342842e0e146106f85780634f6ccce7146107585780636352211e14610799578063669b6b841461080657806370a08231146109065780637adbf9731461095d5780637b47ec1a146109a05780637dc0d1d0146109cd5780638da5cb5b14610a2457806395d89b4114610a7b5780639c61c75514610b0b578063a111e18414610b6e578063a22cb46514610be1578063a2309ff814610c30578063a9852bfb14610c5b578063b88d4fde14610cc4578063c87b56dd14610d3c578063da2bbfc714610de2578063dbbc853b14610e4b578063e985e9c514610edb575b600080fd5b34801561019c57600080fd5b506101da60048036038101908080357bffffffffffffffffffffffffffffffffffffffffffffffffffffffff19169060200190929190505050610f56565b604051808215151515815260200191505060405180910390f35b34801561020057600080fd5b50610209611115565b6040518080602001828103825283818151815260200191508051906020019080838360005b8381101561024957808201518184015260208101905061022e565b50505050905090810190601f1680156102765780820380516001836020036101000a031916815260200191505b509250505060405180910390f35b34801561029057600080fd5b506102af600480360381019080803590602001909291905050506111b3565b604051808273ffffffffffffffffffffffffffffffffffffffff1673ffffffffffffffffffffffffffffffffffffffff16815260200191505060405180910390f35b61032f600480360381019080803573ffffffffffffffffffffffffffffffffffffffff1690602001909291908035906020019092919050505061124b565b005b34801561033d57600080fd5b50610372600480360381019080803573ffffffffffffffffffffffffffffffffffffffff169060200190929190505050611304565b6040518080602001828103825283818151815260200191508051906020019060200280838360005b838110156103b557808201518184015260208101905061039a565b505050509050019250505060405180910390f35b3480156103d557600080fd5b506103de61141b565b6040518082815260200191505060405180910390f35b34801561040057600080fd5b5061041f60048036038101908080359060200190929190505050611428565b6040518080602001828103825283818151815260200191508051906020019080838360005b8381101561045f578082015181840152602081019050610444565b50505050905090810190601f16801561048c5780820380516001836020036101000a031916815260200191505b509250505060405180910390f35b6104f8600480360381019080803573ffffffffffffffffffffffffffffffffffffffff169060200190929190803573ffffffffffffffffffffffffffffffffffffffff169060200190929190803590602001909291905050506114d8565b005b34801561050657600080fd5b5061050f611659565b6040518080602001828103825283818151815260200191508051906020019080838360005b8381101561054f578082015181840152602081019050610534565b50505050905090810190601f16801561057c5780820380516001836020036101000a031916815260200191505b509250505060405180910390f35b34801561059657600080fd5b506105d5600480360381019080803573ffffffffffffffffffffffffffffffffffffffff169060200190929190803590602001909291905050506116f7565b6040518082815260200191505060405180910390f35b3480156105f757600080fd5b506106e2600480360381019080803573ffffffffffffffffffffffffffffffffffffffff169060200190929190803590602001908201803590602001908080601f0160208091040260200160405190810160405280939291908181526020018383808284378201915050505050509192919290803590602001908201803590602001908080601f0160208091040260200160405190810160405280939291908181526020018383808284378201915050505050509192919290803573ffffffffffffffffffffffffffffffffffffffff16906020019092919080359060200190929190505050611803565b6040518082815260200191505060405180910390f35b610756600480360381019080803573ffffffffffffffffffffffffffffffffffffffff169060200190929190803573ffffffffffffffffffffffffffffffffffffffff16906020019092919080359060200190929190505050611878565b005b34801561076457600080fd5b5061078360048036038101908080359060200190929190505050611b9e565b6040518082815260200191505060405180910390f35b3480156107a557600080fd5b506107c460048036038101908080359060200190929190505050611bd4565b604051808273ffffffffffffffffffffffffffffffffffffffff1673ffffffffffffffffffffffffffffffffffffffff16815260200191505060405180910390f35b6108f0600480360381019080803573ffffffffffffffffffffffffffffffffffffffff169060200190929190803590602001908201803590602001908080601f0160208091040260200160405190810160405280939291908181526020018383808284378201915050505050509192919290803590602001908201803590602001908080601f0160208091040260200160405190810160405280939291908181526020018383808284378201915050505050509192919290803573ffffffffffffffffffffffffffffffffffffffff16906020019092919080359060200190929190505050611c6c565b6040518082815260200191505060405180910390f35b34801561091257600080fd5b50610947600480360381019080803573ffffffffffffffffffffffffffffffffffffffff169060200190929190505050611c90565b6040518082815260200191505060405180910390f35b34801561096957600080fd5b5061099e600480360381019080803573ffffffffffffffffffffffffffffffffffffffff169060200190929190505050611d01565b005b3480156109ac57600080fd5b506109cb60048036038101908080359060200190929190505050611da0565b005b3480156109d957600080fd5b506109e2611e60565b604051808273ffffffffffffffffffffffffffffffffffffffff1673ffffffffffffffffffffffffffffffffffffffff16815260200191505060405180910390f35b348015610a3057600080fd5b50610a39611e86565b604051808273ffffffffffffffffffffffffffffffffffffffff1673ffffffffffffffffffffffffffffffffffffffff16815260200191505060405180910390f35b348015610a8757600080fd5b50610a90611eab565b6040518080602001828103825283818151815260200191508051906020019080838360005b83811015610ad0578082015181840152602081019050610ab5565b50505050905090810190601f168015610afd5780820380516001836020036101000a031916815260200191505b509250505060405180910390f35b348015610b1757600080fd5b50610b6c600480360381019080803573ffffffffffffffffffffffffffffffffffffffff169060200190929190803573ffffffffffffffffffffffffffffffffffffffff169060200190929190505050611f49565b005b348015610b7a57600080fd5b50610bdf60048036038101908080359060200190929190803590602001908201803590602001908080601f016020809104026020016040519081016040528093929190818152602001838380828437820191505050505050919291929050505061225a565b005b348015610bed57600080fd5b50610c2e600480360381019080803573ffffffffffffffffffffffffffffffffffffffff16906020019092919080351515906020019092919050505061233c565b005b348015610c3c57600080fd5b50610c45612478565b6040518082815260200191505060405180910390f35b348015610c6757600080fd5b50610cc2600480360381019080803590602001908201803590602001908080601f016020809104026020016040519081016040528093929190818152602001838380828437820191505050505050919291929050505061247e565b005b610d3a600480360381019080803573ffffffffffffffffffffffffffffffffffffffff169060200190929190803573ffffffffffffffffffffffffffffffffffffffff169060200190929190803590602001909291908035906020019082018035906020019190919293919293905050506124f3565b005b348015610d4857600080fd5b50610d6760048036038101908080359060200190929190505050612829565b6040518080602001828103825283818151815260200191508051906020019080838360005b83811015610da7578082015181840152602081019050610d8c565b50505050905090810190601f168015610dd45780820380516001836020036101000a031916815260200191505b509250505060405180910390f35b348015610dee57600080fd5b50610e49600480360381019080803590602001908201803590602001908080601f0160208091040260200160405190810160405280939291908181526020018383808284378201915050505050509192919290505050612a56565b005b348015610e5757600080fd5b50610e60612acb565b6040518080602001828103825283818151815260200191508051906020019080838360005b83811015610ea0578082015181840152602081019050610e85565b50505050905090810190601f168015610ecd5780820380516001836020036101000a031916815260200191505b509250505060405180910390f35b348015610ee757600080fd5b50610f3c600480360381019080803573ffffffffffffffffffffffffffffffffffffffff169060200190929190803573ffffffffffffffffffffffffffffffffffffffff169060200190929190505050612b69565b604051808215151515815260200191505060405180910390f35b60006380ac58cd7c0100000000000000000000000000000000000000000000000000000000027bffffffffffffffffffffffffffffffffffffffffffffffffffffffff1916827bffffffffffffffffffffffffffffffffffffffffffffffffffffffff191614806110275750635b5e139f7c0100000000000000000000000000000000000000000000000000000000027bffffffffffffffffffffffffffffffffffffffffffffffffffffffff1916827bffffffffffffffffffffffffffffffffffffffffffffffffffffffff1916145b80611092575063780e9d637c0100000000000000000000000000000000000000000000000000000000027bffffffffffffffffffffffffffffffffffffffffffffffffffffffff1916827bffffffffffffffffffffffffffffffffffffffffffffffffffffffff1916145b806110fd57506301ffc9a77c0100000000000000000000000000000000000000000000000000000000027bffffffffffffffffffffffffffffffffffffffffffffffffffffffff1916827bffffffffffffffffffffffffffffffffffffffffffffffffffffffff1916145b1561110b5760019050611110565b600090505b919050565b60028054600181600116156101000203166002900480601f0160208091040260200160405190810160405280929190818152602001828054600181600116156101000203166002900480156111ab5780601f10611180576101008083540402835291602001916111ab565b820191906000526020600020905b81548152906001019060200180831161118e57829003601f168201915b505050505081565b60008160006007600083815260200190815260200160002060009054906101000a900473ffffffffffffffffffffffffffffffffffffffff1673ffffffffffffffffffffffffffffffffffffffff161415151561120f57600080fd5b6009600084815260200190815260200160002060009054906101000a900473ffffffffffffffffffffffffffffffffffffffff16915050919050565b60008160006007600083815260200190815260200160002060009054906101000a900473ffffffffffffffffffffffffffffffffffffffff1673ffffffffffffffffffffffffffffffffffffffff16141515156112a757600080fd5b826112b181612bfd565b15156112bc57600080fd5b6007600085815260200190815260200160002060009054906101000a900473ffffffffffffffffffffffffffffffffffffffff1692506112fd838686612d2c565b5050505050565b6060600060606000600660008673ffffffffffffffffffffffffffffffffffffffff1673ffffffffffffffffffffffffffffffffffffffff168152602001908152602001600020805490509250826040519080825280602002602001820160405280156113805781602001602082028038833980820191505090505b509150600090505b8281101561141057600660008673ffffffffffffffffffffffffffffffffffffffff1673ffffffffffffffffffffffffffffffffffffffff168152602001908152602001600020818154811015156113dc57fe5b906000526020600020015482828151811015156113f557fe5b90602001906020020181815250508080600101915050611388565b819350505050919050565b6000600480549050905090565b600e6020528060005260406000206000915090508054600181600116156101000203166002900480601f0160208091040260200160405190810160405280929190818152602001828054600181600116156101000203166002900480156114d05780601f106114a5576101008083540402835291602001916114d0565b820191906000526020600020905b8154815290600101906020018083116114b357829003601f168201915b505050505081565b8060006007600083815260200190815260200160002060009054906101000a900473ffffffffffffffffffffffffffffffffffffffff1673ffffffffffffffffffffffffffffffffffffffff161415151561153257600080fd5b83838361153e81612bfd565b806115a757503373ffffffffffffffffffffffffffffffffffffffff166009600083815260200190815260200160002060009054906101000a900473ffffffffffffffffffffffffffffffffffffffff1673ffffffffffffffffffffffffffffffffffffffff16145b15156115b257600080fd5b8273ffffffffffffffffffffffffffffffffffffffff166007600083815260200190815260200160002060009054906101000a900473ffffffffffffffffffffffffffffffffffffffff1673ffffffffffffffffffffffffffffffffffffffff1614151561161f57600080fd5b60008273ffffffffffffffffffffffffffffffffffffffff161415151561164557600080fd5b611650878787612e92565b50505050505050565b600c8054600181600116156101000203166002900480601f0160208091040260200160405190810160405280929190818152602001828054600181600116156101000203166002900480156116ef5780601f106116c4576101008083540402835291602001916116ef565b820191906000526020600020905b8154815290600101906020018083116116d257829003601f168201915b505050505081565b60008060006007600083815260200190815260200160002060009054906101000a900473ffffffffffffffffffffffffffffffffffffffff1673ffffffffffffffffffffffffffffffffffffffff161415151561175357600080fd5b600660008573ffffffffffffffffffffffffffffffffffffffff1673ffffffffffffffffffffffffffffffffffffffff16815260200190815260200160002080549050831015156117a357600080fd5b600660008573ffffffffffffffffffffffffffffffffffffffff1673ffffffffffffffffffffffffffffffffffffffff168152602001908152602001600020838154811015156117ef57fe5b906000526020600020015491505092915050565b60008060009054906101000a900473ffffffffffffffffffffffffffffffffffffffff1673ffffffffffffffffffffffffffffffffffffffff163373ffffffffffffffffffffffffffffffffffffffff1614151561186057600080fd5b61186d8686868686612f66565b905095945050505050565b60008160006007600083815260200190815260200160002060009054906101000a900473ffffffffffffffffffffffffffffffffffffffff1673ffffffffffffffffffffffffffffffffffffffff16141515156118d457600080fd5b8484846118e081612bfd565b8061194957503373ffffffffffffffffffffffffffffffffffffffff166009600083815260200190815260200160002060009054906101000a900473ffffffffffffffffffffffffffffffffffffffff1673ffffffffffffffffffffffffffffffffffffffff16145b151561195457600080fd5b8273ffffffffffffffffffffffffffffffffffffffff166007600083815260200190815260200160002060009054906101000a900473ffffffffffffffffffffffffffffffffffffffff1673ffffffffffffffffffffffffffffffffffffffff161415156119c157600080fd5b60008273ffffffffffffffffffffffffffffffffffffffff16141515156119e757600080fd5b6119f2888888612e92565b863b94506000851115611b945763150b7a027c0100000000000000000000000000000000000000000000000000000000027bffffffffffffffffffffffffffffffffffffffffffffffffffffffff19168773ffffffffffffffffffffffffffffffffffffffff1663150b7a02338b8a6040518463ffffffff167c0100000000000000000000000000000000000000000000000000000000028152600401808473ffffffffffffffffffffffffffffffffffffffff1673ffffffffffffffffffffffffffffffffffffffff1681526020018373ffffffffffffffffffffffffffffffffffffffff1673ffffffffffffffffffffffffffffffffffffffff16815260200182815260200180602001828103825260008152602001602001945050505050602060405180830381600087803b158015611b2d57600080fd5b505af1158015611b41573d6000803e3d6000fd5b505050506040513d6020811015611b5757600080fd5b81019080805190602001909291905050507bffffffffffffffffffffffffffffffffffffffffffffffffffffffff1916141515611b9357600080fd5b5b5050505050505050565b600060048054905082101515611bb357600080fd5b600482815481101515611bc257fe5b90600052602060002001549050919050565b60008160006007600083815260200190815260200160002060009054906101000a900473ffffffffffffffffffffffffffffffffffffffff1673ffffffffffffffffffffffffffffffffffffffff1614151515611c3057600080fd5b6007600084815260200190815260200160002060009054906101000a900473ffffffffffffffffffffffffffffffffffffffff16915050919050565b6000611c78838361315b565b611c858686868686612f66565b905095945050505050565b6000808273ffffffffffffffffffffffffffffffffffffffff1614151515611cb757600080fd5b600660008373ffffffffffffffffffffffffffffffffffffffff1673ffffffffffffffffffffffffffffffffffffffff168152602001908152602001600020805490509050919050565b6000809054906101000a900473ffffffffffffffffffffffffffffffffffffffff1673ffffffffffffffffffffffffffffffffffffffff163373ffffffffffffffffffffffffffffffffffffffff16141515611d5c57600080fd5b80601060006101000a81548173ffffffffffffffffffffffffffffffffffffffff021916908373ffffffffffffffffffffffffffffffffffffffff16021790555050565b3373ffffffffffffffffffffffffffffffffffffffff166007600083815260200190815260200160002060009054906101000a900473ffffffffffffffffffffffffffffffffffffffff1673ffffffffffffffffffffffffffffffffffffffff16141515611e0d57600080fd5b611e173382613315565b8060003373ffffffffffffffffffffffffffffffffffffffff167fddf252ad1be2c89b69c2b068fc378daa952ba7f163c4a11628f55a4df523b3ef60405160405180910390a450565b601060009054906101000a900473ffffffffffffffffffffffffffffffffffffffff1681565b6000809054906101000a900473ffffffffffffffffffffffffffffffffffffffff1681565b60038054600181600116156101000203166002900480601f016020809104026020016040519081016040528092919081815260200182805460018160011615610100020316600290048015611f415780601f10611f1657610100808354040283529160200191611f41565b820191906000526020600020905b815481529060010190602001808311611f2457829003601f168201915b505050505081565b6000809054906101000a900473ffffffffffffffffffffffffffffffffffffffff1673ffffffffffffffffffffffffffffffffffffffff163373ffffffffffffffffffffffffffffffffffffffff16141515611fa457600080fd5b601060149054906101000a900460ff16151515611fc057600080fd5b6040805190810160405280601081526020017f506174726f6e61676520426164676573000000000000000000000000000000008152506002908051906020019061200b929190613908565b506040805190810160405280600681526020017f504154524f4e000000000000000000000000000000000000000000000000000081525060039080519060200190612057929190613908565b50606060405190810160405280602f81526020017f68747470733a2f2f697066732e696e667572612e696f3a353030312f6170692f81526020017f76302f6461672f6765743f6172673d0000000000000000000000000000000000815250600c90805190602001906120ca929190613908565b506020604051908101604052806000815250600d90805190602001906120f1929190613908565b5080601060006101000a81548173ffffffffffffffffffffffffffffffffffffffff021916908373ffffffffffffffffffffffffffffffffffffffff1602179055508173ffffffffffffffffffffffffffffffffffffffff166040516024016040516020818303038152906040527f592e6f59000000000000000000000000000000000000000000000000000000007bffffffffffffffffffffffffffffffffffffffffffffffffffffffff19166020820180517bffffffffffffffffffffffffffffffffffffffffffffffffffffffff838183161783525050505060405180828051906020019080838360005b838110156121fa5780820151818401526020810190506121df565b50505050905090810190601f1680156122275780820380516001836020036101000a031916815260200191505b50915050600060405180830381855af4915050506001601060146101000a81548160ff0219169083151502179055505050565b6000809054906101000a900473ffffffffffffffffffffffffffffffffffffffff1673ffffffffffffffffffffffffffffffffffffffff163373ffffffffffffffffffffffffffffffffffffffff161415156122b557600080fd5b8160006007600083815260200190815260200160002060009054906101000a900473ffffffffffffffffffffffffffffffffffffffff1673ffffffffffffffffffffffffffffffffffffffff161415151561230f57600080fd5b81600e60008581526020019081526020016000209080519060200190612336929190613908565b50505050565b3373ffffffffffffffffffffffffffffffffffffffff168273ffffffffffffffffffffffffffffffffffffffff161415151561237757600080fd5b80600a60003373ffffffffffffffffffffffffffffffffffffffff1673ffffffffffffffffffffffffffffffffffffffff16815260200190815260200160002060008473ffffffffffffffffffffffffffffffffffffffff1673ffffffffffffffffffffffffffffffffffffffff16815260200190815260200160002060006101000a81548160ff0219169083151502179055508173ffffffffffffffffffffffffffffffffffffffff163373ffffffffffffffffffffffffffffffffffffffff167f17307eab39ab6107e8899845ad3d59bd9653f200f220920489ca2b5937696c3183604051808215151515815260200191505060405180910390a35050565b600f5481565b6000809054906101000a900473ffffffffffffffffffffffffffffffffffffffff1673ffffffffffffffffffffffffffffffffffffffff163373ffffffffffffffffffffffffffffffffffffffff161415156124d957600080fd5b80600d90805190602001906124ef929190613908565b5050565b60008360006007600083815260200190815260200160002060009054906101000a900473ffffffffffffffffffffffffffffffffffffffff1673ffffffffffffffffffffffffffffffffffffffff161415151561254f57600080fd5b86868661255b81612bfd565b806125c457503373ffffffffffffffffffffffffffffffffffffffff166009600083815260200190815260200160002060009054906101000a900473ffffffffffffffffffffffffffffffffffffffff1673ffffffffffffffffffffffffffffffffffffffff16145b15156125cf57600080fd5b8273ffffffffffffffffffffffffffffffffffffffff166007600083815260200190815260200160002060009054906101000a900473ffffffffffffffffffffffffffffffffffffffff1673ffffffffffffffffffffffffffffffffffffffff1614151561263c57600080fd5b60008273ffffffffffffffffffffffffffffffffffffffff161415151561266257600080fd5b61266d8a8a8a612e92565b883b9450600085111561281d5763150b7a027c0100000000000000000000000000000000000000000000000000000000027bffffffffffffffffffffffffffffffffffffffffffffffffffffffff19168973ffffffffffffffffffffffffffffffffffffffff1663150b7a02338d8c8c8c6040518663ffffffff167c0100000000000000000000000000000000000000000000000000000000028152600401808673ffffffffffffffffffffffffffffffffffffffff1673ffffffffffffffffffffffffffffffffffffffff1681526020018573ffffffffffffffffffffffffffffffffffffffff1673ffffffffffffffffffffffffffffffffffffffff16815260200184815260200180602001828103825284848281815260200192508082843782019150509650505050505050602060405180830381600087803b1580156127b657600080fd5b505af11580156127ca573d6000803e3d6000fd5b505050506040513d60208110156127e057600080fd5b81019080805190602001909291905050507bffffffffffffffffffffffffffffffffffffffffffffffffffffffff191614151561281c57600080fd5b5b50505050505050505050565b6060612a4f6128d1600d8054600181600116156101000203166002900480601f0160208091040260200160405190810160405280929190818152602001828054600181600116156101000203166002900480156128c75780601f1061289c576101008083540402835291602001916128c7565b820191906000526020600020905b8154815290600101906020018083116128aa57829003601f168201915b5050505050613651565b612a41612a3c61298b600e60008881526020019081526020016000208054600181600116156101000203166002900480601f0160208091040260200160405190810160405280929190818152602001828054600181600116156101000203166002900480156129815780601f1061295657610100808354040283529160200191612981565b820191906000526020600020905b81548152906001019060200180831161296457829003601f168201915b5050505050613651565b612a2e600c8054600181600116156101000203166002900480601f016020809104026020016040519081016040528092919081815260200182805460018160011615610100020316600290048015612a245780601f106129f957610100808354040283529160200191612a24565b820191906000526020600020905b815481529060010190602001808311612a0757829003601f168201915b5050505050613651565b61367f90919063ffffffff16565b613651565b61367f90919063ffffffff16565b9050919050565b6000809054906101000a900473ffffffffffffffffffffffffffffffffffffffff1673ffffffffffffffffffffffffffffffffffffffff163373ffffffffffffffffffffffffffffffffffffffff16141515612ab157600080fd5b80600c9080519060200190612ac7929190613908565b5050565b600d8054600181600116156101000203166002900480601f016020809104026020016040519081016040528092919081815260200182805460018160011615610100020316600290048015612b615780601f10612b3657610100808354040283529160200191612b61565b820191906000526020600020905b815481529060010190602001808311612b4457829003601f168201915b505050505081565b6000600a60008473ffffffffffffffffffffffffffffffffffffffff1673ffffffffffffffffffffffffffffffffffffffff16815260200190815260200160002060008373ffffffffffffffffffffffffffffffffffffffff1673ffffffffffffffffffffffffffffffffffffffff16815260200190815260200160002060009054906101000a900460ff16905092915050565b60003373ffffffffffffffffffffffffffffffffffffffff166007600084815260200190815260200160002060009054906101000a900473ffffffffffffffffffffffffffffffffffffffff1673ffffffffffffffffffffffffffffffffffffffff161480612d255750600a60006007600085815260200190815260200160002060009054906101000a900473ffffffffffffffffffffffffffffffffffffffff1673ffffffffffffffffffffffffffffffffffffffff1673ffffffffffffffffffffffffffffffffffffffff16815260200190815260200160002060003373ffffffffffffffffffffffffffffffffffffffff1673ffffffffffffffffffffffffffffffffffffffff16815260200190815260200160002060009054906101000a900460ff165b9050919050565b8273ffffffffffffffffffffffffffffffffffffffff168273ffffffffffffffffffffffffffffffffffffffff1614151515612d6757600080fd5b60006009600083815260200190815260200160002060009054906101000a900473ffffffffffffffffffffffffffffffffffffffff1673ffffffffffffffffffffffffffffffffffffffff16148015612dd6575060008273ffffffffffffffffffffffffffffffffffffffff16145b15612de057600080fd5b816009600083815260200190815260200160002060006101000a81548173ffffffffffffffffffffffffffffffffffffffff021916908373ffffffffffffffffffffffffffffffffffffffff160217905550808273ffffffffffffffffffffffffffffffffffffffff168473ffffffffffffffffffffffffffffffffffffffff167f8c5be1e5ebec7d5bd14f71427d1e84f3dd0314c0f7b2291e5b200ac8c7c3b92560405160405180910390a4505050565b60006009600083815260200190815260200160002060009054906101000a900473ffffffffffffffffffffffffffffffffffffffff1673ffffffffffffffffffffffffffffffffffffffff16141515612ef257612ef183600083612d2c565b5b612efc8382613315565b612f068282613701565b808273ffffffffffffffffffffffffffffffffffffffff168473ffffffffffffffffffffffffffffffffffffffff167fddf252ad1be2c89b69c2b068fc378daa952ba7f163c4a11628f55a4df523b3ef60405160405180910390a4505050565b600080600f549050612f846001600f5461386990919063ffffffff16565b600f8190555084600e60008381526020019081526020016000209080519060200190612fb1929190613908565b50612fbc8782613701565b828473ffffffffffffffffffffffffffffffffffffffff16827f489b218822f267e3e021451c532d15255c9d15dbfae1a42cd4d5c4faf325b0288989428d336040518080602001806020018681526020018573ffffffffffffffffffffffffffffffffffffffff1673ffffffffffffffffffffffffffffffffffffffff1681526020018473ffffffffffffffffffffffffffffffffffffffff1673ffffffffffffffffffffffffffffffffffffffff168152602001838103835288818151815260200191508051906020019080838360005b838110156130a957808201518184015260208101905061308e565b50505050905090810190601f1680156130d65780820380516001836020036101000a031916815260200191505b50838103825287818151815260200191508051906020019080838360005b8381101561310f5780820151818401526020810190506130f4565b50505050905090810190601f16801561313c5780820380516001836020036101000a031916815260200191505b5097505050505050505060405180910390a48091505095945050505050565b600080601060009054906101000a900473ffffffffffffffffffffffffffffffffffffffff1673ffffffffffffffffffffffffffffffffffffffff166358836e9f6040518163ffffffff167c0100000000000000000000000000000000000000000000000000000000028152600401602060405180830381600087803b1580156131e457600080fd5b505af11580156131f8573d6000803e3d6000fd5b505050506040513d602081101561320e57600080fd5b8101908080519060200190929190505050915060008211151561323057600080fd5b60008311151561323f57600080fd5b6132658383670de0b6b3a764000081151561325657fe5b0461388590919063ffffffff16565b905080341015151561327657600080fd5b803411156132c8573373ffffffffffffffffffffffffffffffffffffffff166108fc8234039081150290604051600060405180830381858888f193505050501580156132c6573d6000803e3d6000fd5b505b8373ffffffffffffffffffffffffffffffffffffffff166108fc829081150290604051600060405180830381858888f1935050505015801561330e573d6000803e3d6000fd5b5050505050565b60008060008060056000868152602001908152602001600020549350600480549050925060046001840381548110151561334b57fe5b906000526020600020015460048581548110151561336557fe5b9060005260206000200181905550836005600060046001870381548110151561338a57fe5b90600052602060002001548152602001908152602001600020819055506004600184038154811015156133b957fe5b906000526020600020016000905560016004818180549050039150816133df9190613988565b5060086000868152602001908152602001600020549150600660008773ffffffffffffffffffffffffffffffffffffffff1673ffffffffffffffffffffffffffffffffffffffff168152602001908152602001600020805490509050600660008773ffffffffffffffffffffffffffffffffffffffff1673ffffffffffffffffffffffffffffffffffffffff1681526020019081526020016000206001820381548110151561348a57fe5b9060005260206000200154600660008873ffffffffffffffffffffffffffffffffffffffff1673ffffffffffffffffffffffffffffffffffffffff168152602001908152602001600020838154811015156134e157fe5b90600052602060002001819055508160086000600660008a73ffffffffffffffffffffffffffffffffffffffff1673ffffffffffffffffffffffffffffffffffffffff1681526020019081526020016000206001850381548110151561354357fe5b9060005260206000200154815260200190815260200160002081905550600660008773ffffffffffffffffffffffffffffffffffffffff1673ffffffffffffffffffffffffffffffffffffffff168152602001908152602001600020600182038154811015156135af57fe5b90600052602060002001600090556001600660008873ffffffffffffffffffffffffffffffffffffffff1673ffffffffffffffffffffffffffffffffffffffff168152602001908152602001600020818180549050039150816136129190613988565b506007600086815260200190815260200160002060006101000a81549073ffffffffffffffffffffffffffffffffffffffff0219169055505050505050565b6136596139b4565b600060208301905060408051908101604052808451815260200182815250915050919050565b606080600083600001518560000151016040519080825280601f01601f1916602001820160405280156136c15781602001602082028038833980820191505090505b5091506020820190506136dd81866020015187600001516138bd565b6136f685600001518201856020015186600001516138bd565b819250505092915050565b60048190806001815401808255809150509060018203906000526020600020016000909192909190915055506001600480549050036005600083815260200190815260200160002081905550816007600083815260200190815260200160002060006101000a81548173ffffffffffffffffffffffffffffffffffffffff021916908373ffffffffffffffffffffffffffffffffffffffff160217905550600660008373ffffffffffffffffffffffffffffffffffffffff1673ffffffffffffffffffffffffffffffffffffffff1681526020019081526020016000208190806001815401808255809150509060018203906000526020600020016000909192909190915055506001600660008473ffffffffffffffffffffffffffffffffffffffff1673ffffffffffffffffffffffffffffffffffffffff168152602001908152602001600020805490500360086000838152602001908152602001600020819055505050565b6000818301905082811015151561387c57fe5b80905092915050565b60008083141561389857600090506138b7565b81830290508183828115156138a957fe5b041415156138b357fe5b8090505b92915050565b60005b6020821015156138e557825184526020840193506020830192506020820391506138c0565b6001826020036101000a0390508019835116818551168181178652505050505050565b828054600181600116156101000203166002900490600052602060002090601f016020900481019282601f1061394957805160ff1916838001178555613977565b82800160010185558215613977579182015b8281111561397657825182559160200191906001019061395b565b5b50905061398491906139ce565b5090565b8154818355818111156139af578183600052602060002091820191016139ae91906139ce565b5b505050565b604080519081016040528060008152602001600081525090565b6139f091905b808211156139ec5760008160009055506001016139d4565b5090565b905600a165627a7a72305820575fbcf5821d9206faf05104a16209bca204e59eae428451d2ea2b71644727510029",
  "source": "pragma solidity ^0.4.24;\nimport \"./utils/SafeMath.sol\";\nimport \"./utils/strings.sol\";\nimport \"./IUSDETHOracle.sol\";\nimport \"./eip721/EIP721.sol\";\n\n\ncontract ProxyState {\n\n    address public owner;\n    address internal delegate;\n\n    /* NOTE:\n    - A brief explanation on how this works and why this is necessary.\n    - Storage is allocated sequentially in Solidity.\n    - Variables names essentially map to a position in storage.\n    - In using delegatecall, it executes the code in the context of the calling contract.\n    - Thus, it will be dereferenced to point to some storage slot based on its position of declaration.\n    - So, if the calling contract has a variable \"owner\" and the and the called contract\n    also has a variable \"owner\", it doesn't mean it will point to the same storage slot.\n    - It will only point to the same storage slot IF, and only IF, the variable \"owner\"\n    was declared in the same position.\n    - In this case, the proxy itself has two allocated storage slots: 1) owner & 2) delegate.\n    - Thus, any contract that is delegatecalled should ONLY be referencing storage *after*\n    the first two declarations.\n    - If you want to use the variables in the proxy's state, the variable declarations doesn't\n    have to be the same, but it helps to read better if they are.\n    - Order matters.\n    - Thus, reading the functions contract: it is proxy vars, then EIP721 vars, then its own.\n    - When the called contract is executed, then it will execute on the calling contract state.\n    - This contract can be interacted on its without being delegated towards, writing to its own storage.\n    - Nothing about writing to its own storage is detrimental to the function of the proxy [unlikely\n    the Parity Wallet hack where the contract could self-destruct].\n    */\n}\n\n\ncontract UjoPatronageBadgesFunctions is ProxyState, EIP721 {\n    using SafeMath for uint256;\n    using strings for *;\n\n    string public tokenURIBase;\n    string public tokenURISuffix;\n    mapping (uint256 => string) public tokenURIIDs;\n\n    uint256 public totalMinted = 0;\n\n    IUSDETHOracle public oracle;\n\n    bool internal setup = false;\n\n    modifier onlyProxyOwner() {\n        require(msg.sender == owner);\n        _;\n    }\n\n    event LogBadgeMinted(uint256 indexed tokenId, string mgcid, string nftcid, address indexed beneficiaryOfBadge, uint256 indexed usdCostOfBadge, uint256 timeMinted, address buyer, address issuer);\n\n    // overload inherited tokenURI\n    function tokenURI(uint256 _tokenId) external view returns (string) {\n        return tokenURIBase.toSlice().concat(tokenURIIDs[_tokenId].toSlice()).toSlice().concat(tokenURISuffix.toSlice());\n    }\n\n    function setupBadges(address _initialiseBadges, address _initialOracle) public onlyProxyOwner {\n        require(!setup);\n        name = \"Patronage Badges\";\n        symbol = \"PATRON\";\n        tokenURIBase = \"https://ipfs.infura.io:5001/api/v0/dag/get?arg=\";\n        tokenURISuffix = \"\";\n        oracle = IUSDETHOracle(_initialOracle);\n        // this issues a delegatecall in case there needs to be an initial setup the badges.\n        // eg, creating 100 initial badges for example.\n        _initialiseBadges.delegatecall(abi.encodeWithSignature(\"initialise()\")); // solhint-disable-line avoid-low-level-calls\n        setup = true;\n    }\n\n    // additional helper function not in EIP721.\n    function getAllTokens(address _owner) public view returns (uint256[]) {\n        uint size = ownedTokens[_owner].length;\n        uint[] memory result = new uint256[](size);\n        for (uint i = 0; i < size; i++) {\n            result[i] = ownedTokens[_owner][i];\n        }\n        return result;\n    }\n    /* function testGetDelegate() public view returns(address) {\n        return delegate;\n    } */\n\n    function setOracle(address _oracle) public onlyProxyOwner {\n        oracle = IUSDETHOracle(_oracle);\n    }\n\n    // URI is the CID\n    // solhint-disable-next-line func-param-name-mixedcase\n    function setTokenURIID(uint256 _tokenID, string _newID) public onlyProxyOwner tokenExists(_tokenID) {\n        tokenURIIDs[_tokenID] = _newID;\n    }\n\n    function setTokenURIBase(string _newURIBase) public onlyProxyOwner {\n        tokenURIBase = _newURIBase;\n    }\n\n    function setTokenURISuffix(string _newURISuffix) public onlyProxyOwner {\n        tokenURISuffix = _newURISuffix;\n    }\n\n    /* in the unlikely event that a badge needs to be minted but not paid for */\n    function adminCreateBadge(address _buyer, string _mgCid, string _nftCid, address _beneficiary, uint256 _usdCost) public onlyProxyOwner returns (uint256 tokenId) {\n        return createBadge(_buyer, _mgCid, _nftCid, _beneficiary, _usdCost);\n    }\n\n    function mint(address _buyer, string _mgCid, string _nftCid, address _beneficiary, uint256 _usdCost) public payable returns (uint256 tokenId) {\n        processPayment(_beneficiary, _usdCost);\n        return createBadge(_buyer, _mgCid, _nftCid, _beneficiary, _usdCost);\n    }\n\n    function burnToken(uint256 _tokenId) public {\n        require(ownerOfToken[_tokenId] == msg.sender); //token should be in control of owner\n        removeToken(msg.sender, _tokenId);\n        emit Transfer(msg.sender, 0, _tokenId);\n    }\n\n    /* internal functions */\n    function processPayment(address _beneficiary, uint256 _usdCost) internal {\n        uint256 exchangeRate = oracle.getUintPrice();\n\n        require(exchangeRate > 0);\n        require(_usdCost > 0);\n        // note: division is not done with SafeMath because 1 ether in Solidity is int_const\n        // also: impossible to over/underflow\n        uint256 usdCostInWei = (1 ether / exchangeRate).mul(_usdCost);\n        require(msg.value >= usdCostInWei);\n\n        //  check if paid enough through oracle price\n        //  Send back remainder.\n        if (msg.value > usdCostInWei) {\n            msg.sender.transfer(msg.value - usdCostInWei);\n        }\n\n        _beneficiary.transfer(usdCostInWei);\n    }\n\n    function createBadge(address _buyer, string _mgCid, string _nftCid, address _beneficiary, uint256 _usdCost) internal returns (uint256) {\n        uint256 tokenId = totalMinted;\n        totalMinted = totalMinted.add(1); // basically impossible to overflow, but still keeping SafeMath.\n        tokenURIIDs[tokenId] = _nftCid;\n\n        addToken(_buyer, tokenId);\n        emit LogBadgeMinted(tokenId, _mgCid, _nftCid, _beneficiary, _usdCost, now, _buyer, msg.sender); // solhint-disable-line not-rely-on-time\n        return tokenId;\n    }\n}\n",
  "sourcePath": "/Users/simondlr/code/ethereum/contracts-badges/contracts/UjoPatronageBadgesFunctions.sol",
  "compiler": {
    "name": "solc",
    "version": "0.4.24+commit.e67f0147.Emscripten.clang"
  },
  "schemaVersion": "2.0.1",
  "updatedAt": "2018-09-10T16:04:10.376Z"
}