{
  "contractName": "UjoPatronageBadgesFunctions",
  "abi": [
    {
      "constant": true,
      "inputs": [
        {
          "name": "interfaceID",
          "type": "bytes4"
        }
      ],
      "name": "supportsInterface",
      "outputs": [
        {
          "name": "",
          "type": "bool"
        }
      ],
      "payable": false,
      "stateMutability": "view",
      "type": "function"
    },
    {
      "constant": true,
      "inputs": [],
      "name": "name",
      "outputs": [
        {
          "name": "",
          "type": "string"
        }
      ],
      "payable": false,
      "stateMutability": "view",
      "type": "function"
    },
    {
      "constant": true,
      "inputs": [
        {
          "name": "_tokenId",
          "type": "uint256"
        }
      ],
      "name": "getApproved",
      "outputs": [
        {
          "name": "",
          "type": "address"
        }
      ],
      "payable": false,
      "stateMutability": "view",
      "type": "function"
    },
    {
      "constant": false,
      "inputs": [
        {
          "name": "_approved",
          "type": "address"
        },
        {
          "name": "_tokenId",
          "type": "uint256"
        }
      ],
      "name": "approve",
      "outputs": [],
      "payable": true,
      "stateMutability": "payable",
      "type": "function"
    },
    {
      "constant": true,
      "inputs": [],
      "name": "totalSupply",
      "outputs": [
        {
          "name": "",
          "type": "uint256"
        }
      ],
      "payable": false,
      "stateMutability": "view",
      "type": "function"
    },
    {
      "constant": true,
      "inputs": [
        {
          "name": "",
          "type": "uint256"
        }
      ],
      "name": "tokenURIIDs",
      "outputs": [
        {
          "name": "",
          "type": "string"
        }
      ],
      "payable": false,
      "stateMutability": "view",
      "type": "function"
    },
    {
      "constant": false,
      "inputs": [
        {
          "name": "_from",
          "type": "address"
        },
        {
          "name": "_to",
          "type": "address"
        },
        {
          "name": "_tokenId",
          "type": "uint256"
        }
      ],
      "name": "transferFrom",
      "outputs": [],
      "payable": true,
      "stateMutability": "payable",
      "type": "function"
    },
    {
      "constant": true,
      "inputs": [],
      "name": "tokenURIBase",
      "outputs": [
        {
          "name": "",
          "type": "string"
        }
      ],
      "payable": false,
      "stateMutability": "view",
      "type": "function"
    },
    {
      "constant": true,
      "inputs": [
        {
          "name": "_owner",
          "type": "address"
        },
        {
          "name": "_index",
          "type": "uint256"
        }
      ],
      "name": "tokenOfOwnerByIndex",
      "outputs": [
        {
          "name": "_tokenId",
          "type": "uint256"
        }
      ],
      "payable": false,
      "stateMutability": "view",
      "type": "function"
    },
    {
      "constant": false,
      "inputs": [
        {
          "name": "_from",
          "type": "address"
        },
        {
          "name": "_to",
          "type": "address"
        },
        {
          "name": "_tokenId",
          "type": "uint256"
        }
      ],
      "name": "safeTransferFrom",
      "outputs": [],
      "payable": true,
      "stateMutability": "payable",
      "type": "function"
    },
    {
      "constant": true,
      "inputs": [
        {
          "name": "_index",
          "type": "uint256"
        }
      ],
      "name": "tokenByIndex",
      "outputs": [
        {
          "name": "",
          "type": "uint256"
        }
      ],
      "payable": false,
      "stateMutability": "view",
      "type": "function"
    },
    {
      "constant": true,
      "inputs": [
        {
          "name": "_tokenId",
          "type": "uint256"
        }
      ],
      "name": "ownerOf",
      "outputs": [
        {
          "name": "",
          "type": "address"
        }
      ],
      "payable": false,
      "stateMutability": "view",
      "type": "function"
    },
    {
      "constant": true,
      "inputs": [
        {
          "name": "_owner",
          "type": "address"
        }
      ],
      "name": "balanceOf",
      "outputs": [
        {
          "name": "",
          "type": "uint256"
        }
      ],
      "payable": false,
      "stateMutability": "view",
      "type": "function"
    },
    {
      "constant": true,
      "inputs": [],
      "name": "oracle",
      "outputs": [
        {
          "name": "",
          "type": "address"
        }
      ],
      "payable": false,
      "stateMutability": "view",
      "type": "function"
    },
    {
      "constant": true,
      "inputs": [],
      "name": "owner",
      "outputs": [
        {
          "name": "",
          "type": "address"
        }
      ],
      "payable": false,
      "stateMutability": "view",
      "type": "function"
    },
    {
      "constant": true,
      "inputs": [],
      "name": "symbol",
      "outputs": [
        {
          "name": "",
          "type": "string"
        }
      ],
      "payable": false,
      "stateMutability": "view",
      "type": "function"
    },
    {
      "constant": false,
      "inputs": [
        {
          "name": "_operator",
          "type": "address"
        },
        {
          "name": "_approved",
          "type": "bool"
        }
      ],
      "name": "setApprovalForAll",
      "outputs": [],
      "payable": false,
      "stateMutability": "nonpayable",
      "type": "function"
    },
    {
      "constant": true,
      "inputs": [],
      "name": "totalMinted",
      "outputs": [
        {
          "name": "",
          "type": "uint256"
        }
      ],
      "payable": false,
      "stateMutability": "view",
      "type": "function"
    },
    {
      "constant": false,
      "inputs": [
        {
          "name": "_from",
          "type": "address"
        },
        {
          "name": "_to",
          "type": "address"
        },
        {
          "name": "_tokenId",
          "type": "uint256"
        },
        {
          "name": "data",
          "type": "bytes"
        }
      ],
      "name": "safeTransferFrom",
      "outputs": [],
      "payable": true,
      "stateMutability": "payable",
      "type": "function"
    },
    {
      "constant": true,
      "inputs": [],
      "name": "tokenURISuffix",
      "outputs": [
        {
          "name": "",
          "type": "string"
        }
      ],
      "payable": false,
      "stateMutability": "view",
      "type": "function"
    },
    {
      "constant": true,
      "inputs": [
        {
          "name": "_owner",
          "type": "address"
        },
        {
          "name": "_operator",
          "type": "address"
        }
      ],
      "name": "isApprovedForAll",
      "outputs": [
        {
          "name": "",
          "type": "bool"
        }
      ],
      "payable": false,
      "stateMutability": "view",
      "type": "function"
    },
    {
      "anonymous": false,
      "inputs": [
        {
          "indexed": true,
          "name": "tokenId",
          "type": "uint256"
        },
        {
          "indexed": false,
          "name": "nftcid",
          "type": "string"
        },
        {
          "indexed": false,
          "name": "timeMinted",
          "type": "uint256"
        },
        {
          "indexed": false,
          "name": "buyer",
          "type": "address"
        },
        {
          "indexed": false,
          "name": "issuer",
          "type": "address"
        }
      ],
      "name": "LogBadgeMinted",
      "type": "event"
    },
    {
      "anonymous": false,
      "inputs": [
        {
          "indexed": true,
          "name": "tokenId",
          "type": "uint256"
        },
        {
          "indexed": false,
          "name": "beneficiaries",
          "type": "address[]"
        },
        {
          "indexed": false,
          "name": "splits",
          "type": "uint256[]"
        },
        {
          "indexed": false,
          "name": "usdCostOfBadge",
          "type": "uint256"
        }
      ],
      "name": "LogPaymentProcessed",
      "type": "event"
    },
    {
      "anonymous": false,
      "inputs": [
        {
          "indexed": true,
          "name": "_from",
          "type": "address"
        },
        {
          "indexed": true,
          "name": "_to",
          "type": "address"
        },
        {
          "indexed": true,
          "name": "_tokenId",
          "type": "uint256"
        }
      ],
      "name": "Transfer",
      "type": "event"
    },
    {
      "anonymous": false,
      "inputs": [
        {
          "indexed": true,
          "name": "_owner",
          "type": "address"
        },
        {
          "indexed": true,
          "name": "_approved",
          "type": "address"
        },
        {
          "indexed": true,
          "name": "_tokenId",
          "type": "uint256"
        }
      ],
      "name": "Approval",
      "type": "event"
    },
    {
      "anonymous": false,
      "inputs": [
        {
          "indexed": true,
          "name": "_owner",
          "type": "address"
        },
        {
          "indexed": true,
          "name": "_operator",
          "type": "address"
        },
        {
          "indexed": false,
          "name": "_approved",
          "type": "bool"
        }
      ],
      "name": "ApprovalForAll",
      "type": "event"
    },
    {
      "constant": true,
      "inputs": [
        {
          "name": "_tokenId",
          "type": "uint256"
        }
      ],
      "name": "tokenURI",
      "outputs": [
        {
          "name": "",
          "type": "string"
        }
      ],
      "payable": false,
      "stateMutability": "view",
      "type": "function"
    },
    {
      "constant": false,
      "inputs": [
        {
          "name": "_initialiseBadges",
          "type": "address"
        },
        {
          "name": "_initialOracle",
          "type": "address"
        }
      ],
      "name": "setupBadges",
      "outputs": [],
      "payable": false,
      "stateMutability": "nonpayable",
      "type": "function"
    },
    {
      "constant": true,
      "inputs": [
        {
          "name": "_owner",
          "type": "address"
        }
      ],
      "name": "getAllTokens",
      "outputs": [
        {
          "name": "",
          "type": "uint256[]"
        }
      ],
      "payable": false,
      "stateMutability": "view",
      "type": "function"
    },
    {
      "constant": false,
      "inputs": [
        {
          "name": "_oracle",
          "type": "address"
        }
      ],
      "name": "setOracle",
      "outputs": [],
      "payable": false,
      "stateMutability": "nonpayable",
      "type": "function"
    },
    {
      "constant": false,
      "inputs": [
        {
          "name": "_tokenID",
          "type": "uint256"
        },
        {
          "name": "_newID",
          "type": "string"
        }
      ],
      "name": "setTokenURIID",
      "outputs": [],
      "payable": false,
      "stateMutability": "nonpayable",
      "type": "function"
    },
    {
      "constant": false,
      "inputs": [
        {
          "name": "_newURIBase",
          "type": "string"
        }
      ],
      "name": "setTokenURIBase",
      "outputs": [],
      "payable": false,
      "stateMutability": "nonpayable",
      "type": "function"
    },
    {
      "constant": false,
      "inputs": [
        {
          "name": "_newURISuffix",
          "type": "string"
        }
      ],
      "name": "setTokenURISuffix",
      "outputs": [],
      "payable": false,
      "stateMutability": "nonpayable",
      "type": "function"
    },
    {
      "constant": false,
      "inputs": [
        {
          "name": "_buyer",
          "type": "address"
        },
        {
          "name": "_nftCid",
          "type": "string"
        },
        {
          "name": "_beneficiaries",
          "type": "address[]"
        },
        {
          "name": "_splits",
          "type": "uint256[]"
        },
        {
          "name": "_usdCost",
          "type": "uint256"
        }
      ],
      "name": "adminMintWithoutPayment",
      "outputs": [
        {
          "name": "tokenId",
          "type": "uint256"
        }
      ],
      "payable": false,
      "stateMutability": "nonpayable",
      "type": "function"
    },
    {
      "constant": false,
      "inputs": [
        {
          "name": "_buyer",
          "type": "address"
        },
        {
          "name": "_nftCid",
          "type": "string"
        },
        {
          "name": "_beneficiaries",
          "type": "address[]"
        },
        {
          "name": "_splits",
          "type": "uint256[]"
        },
        {
          "name": "_usdCost",
          "type": "uint256"
        }
      ],
      "name": "mint",
      "outputs": [
        {
          "name": "tokenId",
          "type": "uint256"
        }
      ],
      "payable": true,
      "stateMutability": "payable",
      "type": "function"
    },
    {
      "constant": false,
      "inputs": [
        {
          "name": "_tokenId",
          "type": "uint256"
        }
      ],
      "name": "burnToken",
      "outputs": [],
      "payable": false,
      "stateMutability": "nonpayable",
      "type": "function"
    }
  ],
  "bytecode": "0x60806040526000600f556000601060146101000a81548160ff02191690831515021790555034801561003057600080fd5b50613c94806100406000396000f30060806040526004361061018b576000357c0100000000000000000000000000000000000000000000000000000000900463ffffffff16806301ffc9a71461019057806306fdde03146101f4578063081812fc14610284578063095ea7b3146102f1578063178b6de61461033157806318160ddd146103c95780631d91efa9146103f457806323b872dd1461049a578063261220a3146104fa5780632f745c591461058a57806342842e0e146105eb5780634f6ccce71461064b5780636352211e1461068c57806370a08231146106f957806375ca567f146107505780637adbf973146108705780637b47ec1a146108b35780637dc0d1d0146108e05780638da5cb5b1461093757806395d89b411461098e5780639c61c75514610a1e578063a111e18414610a81578063a22cb46514610af4578063a2309ff814610b43578063a9852bfb14610b6e578063b88d4fde14610bd7578063c79cb4be14610c4f578063c87b56dd14610d7c578063da2bbfc714610e22578063dbbc853b14610e8b578063e985e9c514610f1b575b600080fd5b34801561019c57600080fd5b506101da60048036038101908080357bffffffffffffffffffffffffffffffffffffffffffffffffffffffff19169060200190929190505050610f96565b604051808215151515815260200191505060405180910390f35b34801561020057600080fd5b50610209611155565b6040518080602001828103825283818151815260200191508051906020019080838360005b8381101561024957808201518184015260208101905061022e565b50505050905090810190601f1680156102765780820380516001836020036101000a031916815260200191505b509250505060405180910390f35b34801561029057600080fd5b506102af600480360381019080803590602001909291905050506111f3565b604051808273ffffffffffffffffffffffffffffffffffffffff1673ffffffffffffffffffffffffffffffffffffffff16815260200191505060405180910390f35b61032f600480360381019080803573ffffffffffffffffffffffffffffffffffffffff1690602001909291908035906020019092919050505061128b565b005b34801561033d57600080fd5b50610372600480360381019080803573ffffffffffffffffffffffffffffffffffffffff169060200190929190505050611344565b6040518080602001828103825283818151815260200191508051906020019060200280838360005b838110156103b557808201518184015260208101905061039a565b505050509050019250505060405180910390f35b3480156103d557600080fd5b506103de61145b565b6040518082815260200191505060405180910390f35b34801561040057600080fd5b5061041f60048036038101908080359060200190929190505050611468565b6040518080602001828103825283818151815260200191508051906020019080838360005b8381101561045f578082015181840152602081019050610444565b50505050905090810190601f16801561048c5780820380516001836020036101000a031916815260200191505b509250505060405180910390f35b6104f8600480360381019080803573ffffffffffffffffffffffffffffffffffffffff169060200190929190803573ffffffffffffffffffffffffffffffffffffffff16906020019092919080359060200190929190505050611518565b005b34801561050657600080fd5b5061050f611699565b6040518080602001828103825283818151815260200191508051906020019080838360005b8381101561054f578082015181840152602081019050610534565b50505050905090810190601f16801561057c5780820380516001836020036101000a031916815260200191505b509250505060405180910390f35b34801561059657600080fd5b506105d5600480360381019080803573ffffffffffffffffffffffffffffffffffffffff16906020019092919080359060200190929190505050611737565b6040518082815260200191505060405180910390f35b610649600480360381019080803573ffffffffffffffffffffffffffffffffffffffff169060200190929190803573ffffffffffffffffffffffffffffffffffffffff16906020019092919080359060200190929190505050611843565b005b34801561065757600080fd5b5061067660048036038101908080359060200190929190505050611b69565b6040518082815260200191505060405180910390f35b34801561069857600080fd5b506106b760048036038101908080359060200190929190505050611b9f565b604051808273ffffffffffffffffffffffffffffffffffffffff1673ffffffffffffffffffffffffffffffffffffffff16815260200191505060405180910390f35b34801561070557600080fd5b5061073a600480360381019080803573ffffffffffffffffffffffffffffffffffffffff169060200190929190505050611c37565b6040518082815260200191505060405180910390f35b61085a600480360381019080803573ffffffffffffffffffffffffffffffffffffffff169060200190929190803590602001908201803590602001908080601f0160208091040260200160405190810160405280939291908181526020018383808284378201915050505050509192919290803590602001908201803590602001908080602002602001604051908101604052809392919081815260200183836020028082843782019150505050505091929192908035906020019082018035906020019080806020026020016040519081016040528093929190818152602001838360200280828437820191505050505050919291929080359060200190929190505050611ca8565b6040518082815260200191505060405180910390f35b34801561087c57600080fd5b506108b1600480360381019080803573ffffffffffffffffffffffffffffffffffffffff169060200190929190505050611ccb565b005b3480156108bf57600080fd5b506108de60048036038101908080359060200190929190505050611d6a565b005b3480156108ec57600080fd5b506108f5611dd3565b604051808273ffffffffffffffffffffffffffffffffffffffff1673ffffffffffffffffffffffffffffffffffffffff16815260200191505060405180910390f35b34801561094357600080fd5b5061094c611df9565b604051808273ffffffffffffffffffffffffffffffffffffffff1673ffffffffffffffffffffffffffffffffffffffff16815260200191505060405180910390f35b34801561099a57600080fd5b506109a3611e1e565b6040518080602001828103825283818151815260200191508051906020019080838360005b838110156109e35780820151818401526020810190506109c8565b50505050905090810190601f168015610a105780820380516001836020036101000a031916815260200191505b509250505060405180910390f35b348015610a2a57600080fd5b50610a7f600480360381019080803573ffffffffffffffffffffffffffffffffffffffff169060200190929190803573ffffffffffffffffffffffffffffffffffffffff169060200190929190505050611ebc565b005b348015610a8d57600080fd5b50610af260048036038101908080359060200190929190803590602001908201803590602001908080601f01602080910402602001604051908101604052809392919081815260200183838082843782019150505050505091929192905050506121cd565b005b348015610b0057600080fd5b50610b41600480360381019080803573ffffffffffffffffffffffffffffffffffffffff1690602001909291908035151590602001909291905050506122af565b005b348015610b4f57600080fd5b50610b586123eb565b6040518082815260200191505060405180910390f35b348015610b7a57600080fd5b50610bd5600480360381019080803590602001908201803590602001908080601f01602080910402602001604051908101604052809392919081815260200183838082843782019150505050505091929192905050506123f1565b005b610c4d600480360381019080803573ffffffffffffffffffffffffffffffffffffffff169060200190929190803573ffffffffffffffffffffffffffffffffffffffff16906020019092919080359060200190929190803590602001908201803590602001919091929391929390505050612466565b005b348015610c5b57600080fd5b50610d66600480360381019080803573ffffffffffffffffffffffffffffffffffffffff169060200190929190803590602001908201803590602001908080601f016020809104026020016040519081016040528093929190818152602001838380828437820191505050505050919291929080359060200190820180359060200190808060200260200160405190810160405280939291908181526020018383602002808284378201915050505050509192919290803590602001908201803590602001908080602002602001604051908101604052809392919081815260200183836020028082843782019150505050505091929192908035906020019092919050505061279c565b6040518082815260200191505060405180910390f35b348015610d8857600080fd5b50610da7600480360381019080803590602001909291905050506128d8565b6040518080602001828103825283818151815260200191508051906020019080838360005b83811015610de7578082015181840152602081019050610dcc565b50505050905090810190601f168015610e145780820380516001836020036101000a031916815260200191505b509250505060405180910390f35b348015610e2e57600080fd5b50610e89600480360381019080803590602001908201803590602001908080601f0160208091040260200160405190810160405280939291908181526020018383808284378201915050505050509192919290505050612b05565b005b348015610e9757600080fd5b50610ea0612b7a565b6040518080602001828103825283818151815260200191508051906020019080838360005b83811015610ee0578082015181840152602081019050610ec5565b50505050905090810190601f168015610f0d5780820380516001836020036101000a031916815260200191505b509250505060405180910390f35b348015610f2757600080fd5b50610f7c600480360381019080803573ffffffffffffffffffffffffffffffffffffffff169060200190929190803573ffffffffffffffffffffffffffffffffffffffff169060200190929190505050612c18565b604051808215151515815260200191505060405180910390f35b60006380ac58cd7c0100000000000000000000000000000000000000000000000000000000027bffffffffffffffffffffffffffffffffffffffffffffffffffffffff1916827bffffffffffffffffffffffffffffffffffffffffffffffffffffffff191614806110675750635b5e139f7c0100000000000000000000000000000000000000000000000000000000027bffffffffffffffffffffffffffffffffffffffffffffffffffffffff1916827bffffffffffffffffffffffffffffffffffffffffffffffffffffffff1916145b806110d2575063780e9d637c0100000000000000000000000000000000000000000000000000000000027bffffffffffffffffffffffffffffffffffffffffffffffffffffffff1916827bffffffffffffffffffffffffffffffffffffffffffffffffffffffff1916145b8061113d57506301ffc9a77c0100000000000000000000000000000000000000000000000000000000027bffffffffffffffffffffffffffffffffffffffffffffffffffffffff1916827bffffffffffffffffffffffffffffffffffffffffffffffffffffffff1916145b1561114b5760019050611150565b600090505b919050565b60028054600181600116156101000203166002900480601f0160208091040260200160405190810160405280929190818152602001828054600181600116156101000203166002900480156111eb5780601f106111c0576101008083540402835291602001916111eb565b820191906000526020600020905b8154815290600101906020018083116111ce57829003601f168201915b505050505081565b60008160006007600083815260200190815260200160002060009054906101000a900473ffffffffffffffffffffffffffffffffffffffff1673ffffffffffffffffffffffffffffffffffffffff161415151561124f57600080fd5b6009600084815260200190815260200160002060009054906101000a900473ffffffffffffffffffffffffffffffffffffffff16915050919050565b60008160006007600083815260200190815260200160002060009054906101000a900473ffffffffffffffffffffffffffffffffffffffff1673ffffffffffffffffffffffffffffffffffffffff16141515156112e757600080fd5b826112f181612cac565b15156112fc57600080fd5b6007600085815260200190815260200160002060009054906101000a900473ffffffffffffffffffffffffffffffffffffffff16925061133d838686612ddb565b5050505050565b6060600060606000600660008673ffffffffffffffffffffffffffffffffffffffff1673ffffffffffffffffffffffffffffffffffffffff168152602001908152602001600020805490509250826040519080825280602002602001820160405280156113c05781602001602082028038833980820191505090505b509150600090505b8281101561145057600660008673ffffffffffffffffffffffffffffffffffffffff1673ffffffffffffffffffffffffffffffffffffffff1681526020019081526020016000208181548110151561141c57fe5b9060005260206000200154828281518110151561143557fe5b906020019060200201818152505080806001019150506113c8565b819350505050919050565b6000600480549050905090565b600e6020528060005260406000206000915090508054600181600116156101000203166002900480601f0160208091040260200160405190810160405280929190818152602001828054600181600116156101000203166002900480156115105780601f106114e557610100808354040283529160200191611510565b820191906000526020600020905b8154815290600101906020018083116114f357829003601f168201915b505050505081565b8060006007600083815260200190815260200160002060009054906101000a900473ffffffffffffffffffffffffffffffffffffffff1673ffffffffffffffffffffffffffffffffffffffff161415151561157257600080fd5b83838361157e81612cac565b806115e757503373ffffffffffffffffffffffffffffffffffffffff166009600083815260200190815260200160002060009054906101000a900473ffffffffffffffffffffffffffffffffffffffff1673ffffffffffffffffffffffffffffffffffffffff16145b15156115f257600080fd5b8273ffffffffffffffffffffffffffffffffffffffff166007600083815260200190815260200160002060009054906101000a900473ffffffffffffffffffffffffffffffffffffffff1673ffffffffffffffffffffffffffffffffffffffff1614151561165f57600080fd5b60008273ffffffffffffffffffffffffffffffffffffffff161415151561168557600080fd5b611690878787612f41565b50505050505050565b600c8054600181600116156101000203166002900480601f01602080910402602001604051908101604052809291908181526020018280546001816001161561010002031660029004801561172f5780601f106117045761010080835404028352916020019161172f565b820191906000526020600020905b81548152906001019060200180831161171257829003601f168201915b505050505081565b60008060006007600083815260200190815260200160002060009054906101000a900473ffffffffffffffffffffffffffffffffffffffff1673ffffffffffffffffffffffffffffffffffffffff161415151561179357600080fd5b600660008573ffffffffffffffffffffffffffffffffffffffff1673ffffffffffffffffffffffffffffffffffffffff16815260200190815260200160002080549050831015156117e357600080fd5b600660008573ffffffffffffffffffffffffffffffffffffffff1673ffffffffffffffffffffffffffffffffffffffff1681526020019081526020016000208381548110151561182f57fe5b906000526020600020015491505092915050565b60008160006007600083815260200190815260200160002060009054906101000a900473ffffffffffffffffffffffffffffffffffffffff1673ffffffffffffffffffffffffffffffffffffffff161415151561189f57600080fd5b8484846118ab81612cac565b8061191457503373ffffffffffffffffffffffffffffffffffffffff166009600083815260200190815260200160002060009054906101000a900473ffffffffffffffffffffffffffffffffffffffff1673ffffffffffffffffffffffffffffffffffffffff16145b151561191f57600080fd5b8273ffffffffffffffffffffffffffffffffffffffff166007600083815260200190815260200160002060009054906101000a900473ffffffffffffffffffffffffffffffffffffffff1673ffffffffffffffffffffffffffffffffffffffff1614151561198c57600080fd5b60008273ffffffffffffffffffffffffffffffffffffffff16141515156119b257600080fd5b6119bd888888612f41565b863b94506000851115611b5f5763150b7a027c0100000000000000000000000000000000000000000000000000000000027bffffffffffffffffffffffffffffffffffffffffffffffffffffffff19168773ffffffffffffffffffffffffffffffffffffffff1663150b7a02338b8a6040518463ffffffff167c0100000000000000000000000000000000000000000000000000000000028152600401808473ffffffffffffffffffffffffffffffffffffffff1673ffffffffffffffffffffffffffffffffffffffff1681526020018373ffffffffffffffffffffffffffffffffffffffff1673ffffffffffffffffffffffffffffffffffffffff16815260200182815260200180602001828103825260008152602001602001945050505050602060405180830381600087803b158015611af857600080fd5b505af1158015611b0c573d6000803e3d6000fd5b505050506040513d6020811015611b2257600080fd5b81019080805190602001909291905050507bffffffffffffffffffffffffffffffffffffffffffffffffffffffff1916141515611b5e57600080fd5b5b5050505050505050565b600060048054905082101515611b7e57600080fd5b600482815481101515611b8d57fe5b90600052602060002001549050919050565b60008160006007600083815260200190815260200160002060009054906101000a900473ffffffffffffffffffffffffffffffffffffffff1673ffffffffffffffffffffffffffffffffffffffff1614151515611bfb57600080fd5b6007600084815260200190815260200160002060009054906101000a900473ffffffffffffffffffffffffffffffffffffffff16915050919050565b6000808273ffffffffffffffffffffffffffffffffffffffff1614151515611c5e57600080fd5b600660008373ffffffffffffffffffffffffffffffffffffffff1673ffffffffffffffffffffffffffffffffffffffff168152602001908152602001600020805490509050919050565b6000611cb48686613015565b9050611cc281858585613182565b95945050505050565b6000809054906101000a900473ffffffffffffffffffffffffffffffffffffffff1673ffffffffffffffffffffffffffffffffffffffff163373ffffffffffffffffffffffffffffffffffffffff16141515611d2657600080fd5b80601060006101000a81548173ffffffffffffffffffffffffffffffffffffffff021916908373ffffffffffffffffffffffffffffffffffffffff16021790555050565b80611d7481612cac565b1515611d7f57600080fd5b611d8933836133fe565b8160003373ffffffffffffffffffffffffffffffffffffffff167fddf252ad1be2c89b69c2b068fc378daa952ba7f163c4a11628f55a4df523b3ef60405160405180910390a45050565b601060009054906101000a900473ffffffffffffffffffffffffffffffffffffffff1681565b6000809054906101000a900473ffffffffffffffffffffffffffffffffffffffff1681565b60038054600181600116156101000203166002900480601f016020809104026020016040519081016040528092919081815260200182805460018160011615610100020316600290048015611eb45780601f10611e8957610100808354040283529160200191611eb4565b820191906000526020600020905b815481529060010190602001808311611e9757829003601f168201915b505050505081565b6000809054906101000a900473ffffffffffffffffffffffffffffffffffffffff1673ffffffffffffffffffffffffffffffffffffffff163373ffffffffffffffffffffffffffffffffffffffff16141515611f1757600080fd5b601060149054906101000a900460ff16151515611f3357600080fd5b6040805190810160405280601081526020017f506174726f6e616765204261646765730000000000000000000000000000000081525060029080519060200190611f7e929190613b7d565b506040805190810160405280600681526020017f504154524f4e000000000000000000000000000000000000000000000000000081525060039080519060200190611fca929190613b7d565b50606060405190810160405280602f81526020017f68747470733a2f2f697066732e696e667572612e696f3a353030312f6170692f81526020017f76302f6461672f6765743f6172673d0000000000000000000000000000000000815250600c908051906020019061203d929190613b7d565b506020604051908101604052806000815250600d9080519060200190612064929190613b7d565b5080601060006101000a81548173ffffffffffffffffffffffffffffffffffffffff021916908373ffffffffffffffffffffffffffffffffffffffff1602179055508173ffffffffffffffffffffffffffffffffffffffff166040516024016040516020818303038152906040527f592e6f59000000000000000000000000000000000000000000000000000000007bffffffffffffffffffffffffffffffffffffffffffffffffffffffff19166020820180517bffffffffffffffffffffffffffffffffffffffffffffffffffffffff838183161783525050505060405180828051906020019080838360005b8381101561216d578082015181840152602081019050612152565b50505050905090810190601f16801561219a5780820380516001836020036101000a031916815260200191505b50915050600060405180830381855af4915050506001601060146101000a81548160ff0219169083151502179055505050565b6000809054906101000a900473ffffffffffffffffffffffffffffffffffffffff1673ffffffffffffffffffffffffffffffffffffffff163373ffffffffffffffffffffffffffffffffffffffff1614151561222857600080fd5b8160006007600083815260200190815260200160002060009054906101000a900473ffffffffffffffffffffffffffffffffffffffff1673ffffffffffffffffffffffffffffffffffffffff161415151561228257600080fd5b81600e600085815260200190815260200160002090805190602001906122a9929190613b7d565b50505050565b3373ffffffffffffffffffffffffffffffffffffffff168273ffffffffffffffffffffffffffffffffffffffff16141515156122ea57600080fd5b80600a60003373ffffffffffffffffffffffffffffffffffffffff1673ffffffffffffffffffffffffffffffffffffffff16815260200190815260200160002060008473ffffffffffffffffffffffffffffffffffffffff1673ffffffffffffffffffffffffffffffffffffffff16815260200190815260200160002060006101000a81548160ff0219169083151502179055508173ffffffffffffffffffffffffffffffffffffffff163373ffffffffffffffffffffffffffffffffffffffff167f17307eab39ab6107e8899845ad3d59bd9653f200f220920489ca2b5937696c3183604051808215151515815260200191505060405180910390a35050565b600f5481565b6000809054906101000a900473ffffffffffffffffffffffffffffffffffffffff1673ffffffffffffffffffffffffffffffffffffffff163373ffffffffffffffffffffffffffffffffffffffff1614151561244c57600080fd5b80600d9080519060200190612462929190613b7d565b5050565b60008360006007600083815260200190815260200160002060009054906101000a900473ffffffffffffffffffffffffffffffffffffffff1673ffffffffffffffffffffffffffffffffffffffff16141515156124c257600080fd5b8686866124ce81612cac565b8061253757503373ffffffffffffffffffffffffffffffffffffffff166009600083815260200190815260200160002060009054906101000a900473ffffffffffffffffffffffffffffffffffffffff1673ffffffffffffffffffffffffffffffffffffffff16145b151561254257600080fd5b8273ffffffffffffffffffffffffffffffffffffffff166007600083815260200190815260200160002060009054906101000a900473ffffffffffffffffffffffffffffffffffffffff1673ffffffffffffffffffffffffffffffffffffffff161415156125af57600080fd5b60008273ffffffffffffffffffffffffffffffffffffffff16141515156125d557600080fd5b6125e08a8a8a612f41565b883b945060008511156127905763150b7a027c0100000000000000000000000000000000000000000000000000000000027bffffffffffffffffffffffffffffffffffffffffffffffffffffffff19168973ffffffffffffffffffffffffffffffffffffffff1663150b7a02338d8c8c8c6040518663ffffffff167c0100000000000000000000000000000000000000000000000000000000028152600401808673ffffffffffffffffffffffffffffffffffffffff1673ffffffffffffffffffffffffffffffffffffffff1681526020018573ffffffffffffffffffffffffffffffffffffffff1673ffffffffffffffffffffffffffffffffffffffff16815260200184815260200180602001828103825284848281815260200192508082843782019150509650505050505050602060405180830381600087803b15801561272957600080fd5b505af115801561273d573d6000803e3d6000fd5b505050506040513d602081101561275357600080fd5b81019080805190602001909291905050507bffffffffffffffffffffffffffffffffffffffffffffffffffffffff191614151561278f57600080fd5b5b50505050505050505050565b60008060009054906101000a900473ffffffffffffffffffffffffffffffffffffffff1673ffffffffffffffffffffffffffffffffffffffff163373ffffffffffffffffffffffffffffffffffffffff161415156127f957600080fd5b6128038686613015565b9050807fd77a837eeb922067313247d8638ceb6590d3f462cf40aedb03538c2e47d4a1de858585604051808060200180602001848152602001838103835286818151815260200191508051906020019060200280838360005b8381101561287757808201518184015260208101905061285c565b50505050905001838103825285818151815260200191508051906020019060200280838360005b838110156128b957808201518184015260208101905061289e565b505050509050019550505050505060405180910390a295945050505050565b6060612afe612980600d8054600181600116156101000203166002900480601f0160208091040260200160405190810160405280929190818152602001828054600181600116156101000203166002900480156129765780601f1061294b57610100808354040283529160200191612976565b820191906000526020600020905b81548152906001019060200180831161295957829003601f168201915b505050505061373a565b612af0612aeb612a3a600e60008881526020019081526020016000208054600181600116156101000203166002900480601f016020809104026020016040519081016040528092919081815260200182805460018160011615610100020316600290048015612a305780601f10612a0557610100808354040283529160200191612a30565b820191906000526020600020905b815481529060010190602001808311612a1357829003601f168201915b505050505061373a565b612add600c8054600181600116156101000203166002900480601f016020809104026020016040519081016040528092919081815260200182805460018160011615610100020316600290048015612ad35780601f10612aa857610100808354040283529160200191612ad3565b820191906000526020600020905b815481529060010190602001808311612ab657829003601f168201915b505050505061373a565b61376890919063ffffffff16565b61373a565b61376890919063ffffffff16565b9050919050565b6000809054906101000a900473ffffffffffffffffffffffffffffffffffffffff1673ffffffffffffffffffffffffffffffffffffffff163373ffffffffffffffffffffffffffffffffffffffff16141515612b6057600080fd5b80600c9080519060200190612b76929190613b7d565b5050565b600d8054600181600116156101000203166002900480601f016020809104026020016040519081016040528092919081815260200182805460018160011615610100020316600290048015612c105780601f10612be557610100808354040283529160200191612c10565b820191906000526020600020905b815481529060010190602001808311612bf357829003601f168201915b505050505081565b6000600a60008473ffffffffffffffffffffffffffffffffffffffff1673ffffffffffffffffffffffffffffffffffffffff16815260200190815260200160002060008373ffffffffffffffffffffffffffffffffffffffff1673ffffffffffffffffffffffffffffffffffffffff16815260200190815260200160002060009054906101000a900460ff16905092915050565b60003373ffffffffffffffffffffffffffffffffffffffff166007600084815260200190815260200160002060009054906101000a900473ffffffffffffffffffffffffffffffffffffffff1673ffffffffffffffffffffffffffffffffffffffff161480612dd45750600a60006007600085815260200190815260200160002060009054906101000a900473ffffffffffffffffffffffffffffffffffffffff1673ffffffffffffffffffffffffffffffffffffffff1673ffffffffffffffffffffffffffffffffffffffff16815260200190815260200160002060003373ffffffffffffffffffffffffffffffffffffffff1673ffffffffffffffffffffffffffffffffffffffff16815260200190815260200160002060009054906101000a900460ff165b9050919050565b8273ffffffffffffffffffffffffffffffffffffffff168273ffffffffffffffffffffffffffffffffffffffff1614151515612e1657600080fd5b60006009600083815260200190815260200160002060009054906101000a900473ffffffffffffffffffffffffffffffffffffffff1673ffffffffffffffffffffffffffffffffffffffff16148015612e85575060008273ffffffffffffffffffffffffffffffffffffffff16145b15612e8f57600080fd5b816009600083815260200190815260200160002060006101000a81548173ffffffffffffffffffffffffffffffffffffffff021916908373ffffffffffffffffffffffffffffffffffffffff160217905550808273ffffffffffffffffffffffffffffffffffffffff168473ffffffffffffffffffffffffffffffffffffffff167f8c5be1e5ebec7d5bd14f71427d1e84f3dd0314c0f7b2291e5b200ac8c7c3b92560405160405180910390a4505050565b60006009600083815260200190815260200160002060009054906101000a900473ffffffffffffffffffffffffffffffffffffffff1673ffffffffffffffffffffffffffffffffffffffff16141515612fa157612fa083600083612ddb565b5b612fab83826133fe565b612fb582826137ea565b808273ffffffffffffffffffffffffffffffffffffffff168473ffffffffffffffffffffffffffffffffffffffff167fddf252ad1be2c89b69c2b068fc378daa952ba7f163c4a11628f55a4df523b3ef60405160405180910390a4505050565b60008061302e6001600f5461395290919063ffffffff16565b600f81905550600f54905082600e60008381526020019081526020016000209080519060200190613060929190613b7d565b5061306b84826137ea565b807fad88641bd8ec9883a05edcba738abf72feac570215ea7a9361c88f6ddd687b5d8442873360405180806020018581526020018473ffffffffffffffffffffffffffffffffffffffff1673ffffffffffffffffffffffffffffffffffffffff1681526020018373ffffffffffffffffffffffffffffffffffffffff1673ffffffffffffffffffffffffffffffffffffffff168152602001828103825286818151815260200191508051906020019080838360005b8381101561313b578082015181840152602081019050613120565b50505050905090810190601f1680156131685780820380516001836020036101000a031916815260200191505b509550505050505060405180910390a28091505092915050565b600080601060009054906101000a900473ffffffffffffffffffffffffffffffffffffffff1673ffffffffffffffffffffffffffffffffffffffff166358836e9f6040518163ffffffff167c0100000000000000000000000000000000000000000000000000000000028152600401602060405180830381600087803b15801561320b57600080fd5b505af115801561321f573d6000803e3d6000fd5b505050506040513d602081101561323557600080fd5b8101908080519060200190929190505050915060008211151561325757600080fd5b60008311151561326657600080fd5b61328c8383670de0b6b3a764000081151561327d57fe5b0461397390919063ffffffff16565b905080341015151561329d57600080fd5b803411156132ef573373ffffffffffffffffffffffffffffffffffffffff166108fc8234039081150290604051600060405180830381858888f193505050501580156132ed573d6000803e3d6000fd5b505b600185511115613309576133048585836139b1565b61332c565b61332b85600081518110151561331b57fe5b9060200190602002015182613abd565b5b857fd77a837eeb922067313247d8638ceb6590d3f462cf40aedb03538c2e47d4a1de868686604051808060200180602001848152602001838103835286818151815260200191508051906020019060200280838360005b8381101561339e578082015181840152602081019050613383565b50505050905001838103825285818151815260200191508051906020019060200280838360005b838110156133e05780820151818401526020810190506133c5565b505050509050019550505050505060405180910390a2505050505050565b60008060008060056000868152602001908152602001600020549350600480549050925060046001840381548110151561343457fe5b906000526020600020015460048581548110151561344e57fe5b9060005260206000200181905550836005600060046001870381548110151561347357fe5b90600052602060002001548152602001908152602001600020819055506004600184038154811015156134a257fe5b906000526020600020016000905560016004818180549050039150816134c89190613bfd565b5060086000868152602001908152602001600020549150600660008773ffffffffffffffffffffffffffffffffffffffff1673ffffffffffffffffffffffffffffffffffffffff168152602001908152602001600020805490509050600660008773ffffffffffffffffffffffffffffffffffffffff1673ffffffffffffffffffffffffffffffffffffffff1681526020019081526020016000206001820381548110151561357357fe5b9060005260206000200154600660008873ffffffffffffffffffffffffffffffffffffffff1673ffffffffffffffffffffffffffffffffffffffff168152602001908152602001600020838154811015156135ca57fe5b90600052602060002001819055508160086000600660008a73ffffffffffffffffffffffffffffffffffffffff1673ffffffffffffffffffffffffffffffffffffffff1681526020019081526020016000206001850381548110151561362c57fe5b9060005260206000200154815260200190815260200160002081905550600660008773ffffffffffffffffffffffffffffffffffffffff1673ffffffffffffffffffffffffffffffffffffffff1681526020019081526020016000206001820381548110151561369857fe5b90600052602060002001600090556001600660008873ffffffffffffffffffffffffffffffffffffffff1673ffffffffffffffffffffffffffffffffffffffff168152602001908152602001600020818180549050039150816136fb9190613bfd565b506007600086815260200190815260200160002060006101000a81549073ffffffffffffffffffffffffffffffffffffffff0219169055505050505050565b613742613c29565b600060208301905060408051908101604052808451815260200182815250915050919050565b606080600083600001518560000151016040519080825280601f01601f1916602001820160405280156137aa5781602001602082028038833980820191505090505b5091506020820190506137c68186602001518760000151613b08565b6137df8560000151820185602001518660000151613b08565b819250505092915050565b60048190806001815401808255809150509060018203906000526020600020016000909192909190915055506001600480549050036005600083815260200190815260200160002081905550816007600083815260200190815260200160002060006101000a81548173ffffffffffffffffffffffffffffffffffffffff021916908373ffffffffffffffffffffffffffffffffffffffff160217905550600660008373ffffffffffffffffffffffffffffffffffffffff1673ffffffffffffffffffffffffffffffffffffffff1681526020019081526020016000208190806001815401808255809150509060018203906000526020600020016000909192909190915055506001600660008473ffffffffffffffffffffffffffffffffffffffff1673ffffffffffffffffffffffffffffffffffffffff168152602001908152602001600020805490500360086000838152602001908152602001600020819055505050565b600080828401905083811015151561396957600080fd5b8091505092915050565b600080600084141561398857600091506139aa565b828402905082848281151561399957fe5b041415156139a657600080fd5b8091505b5092915050565b600080835185511415156139c457600080fd5b60009150600090505b8451811015613aa75784818151811015156139e457fe5b9060200190602002015173ffffffffffffffffffffffffffffffffffffffff166108fc613a446064613a36878987815181101515613a1e57fe5b9060200190602002015161397390919063ffffffff16565b613b5390919063ffffffff16565b9081150290604051600060405180830381858888f19350505050158015613a6f573d6000803e3d6000fd5b50613a9a8482815181101515613a8157fe5b906020019060200201518361395290919063ffffffff16565b91506001810190506139cd565b606482141515613ab657600080fd5b5050505050565b8173ffffffffffffffffffffffffffffffffffffffff166108fc829081150290604051600060405180830381858888f19350505050158015613b03573d6000803e3d6000fd5b505050565b60005b602082101515613b305782518452602084019350602083019250602082039150613b0b565b6001826020036101000a0390508019835116818551168181178652505050505050565b600080600083111515613b6557600080fd5b8284811515613b7057fe5b0490508091505092915050565b828054600181600116156101000203166002900490600052602060002090601f016020900481019282601f10613bbe57805160ff1916838001178555613bec565b82800160010185558215613bec579182015b82811115613beb578251825591602001919060010190613bd0565b5b509050613bf99190613c43565b5090565b815481835581811115613c2457818360005260206000209182019101613c239190613c43565b5b505050565b604080519081016040528060008152602001600081525090565b613c6591905b80821115613c61576000816000905550600101613c49565b5090565b905600a165627a7a72305820e34ec5df573bb7302e989ed3a14157673bc12ceeef7feca55a8cd625939029930029",
  "source": "pragma solidity ^0.4.24;\nimport \"./utils/SafeMath.sol\";\nimport \"./utils/strings.sol\";\nimport \"./IUSDETHOracle.sol\";\nimport \"./eip721/EIP721.sol\";\n\n\ncontract ProxyState {\n\n    address public owner;\n    address internal delegate;\n\n    /* NOTE:\n    - A brief explanation on how this works and why this is necessary.\n    - Storage is allocated sequentially in Solidity.\n    - Variables names essentially map to a position in storage.\n    - In using delegatecall, it executes the code in the context of the calling contract.\n    - Thus, it will be dereferenced to point to some storage slot based on its position of declaration.\n    - So, if the calling contract has a variable \"owner\" and the and the called contract\n    also has a variable \"owner\", it doesn't mean it will point to the same storage slot.\n    - It will only point to the same storage slot IF, and only IF, the variable \"owner\"\n    was declared in the same position.\n    - In this case, the proxy itself has two allocated storage slots: 1) owner & 2) delegate.\n    - Thus, any contract that is delegatecalled should ONLY be referencing storage *after*\n    the first two declarations.\n    - If you want to use the variables in the proxy's state, the variable declarations doesn't\n    have to be the same, but it helps to read better if they are.\n    - Order matters.\n    - Thus, reading the functions contract: it is proxy vars, then EIP721 vars, then its own.\n    - When the called contract is executed, then it will execute on the calling contract state.\n    - This contract can be interacted on its without being delegated towards, writing to its own storage.\n    - Nothing about writing to its own storage is detrimental to the function of the proxy [unlikely\n    the Parity Wallet hack where the contract could self-destruct].\n    */\n}\n\n\ncontract UjoPatronageBadgesFunctions is ProxyState, EIP721 {\n    using SafeMath for uint256;\n    using strings for *;\n\n    string public tokenURIBase;\n    string public tokenURISuffix;\n    mapping (uint256 => string) public tokenURIIDs;\n\n    uint256 public totalMinted = 0;\n\n    IUSDETHOracle public oracle;\n\n    bool internal setup = false;\n\n    modifier onlyProxyOwner() {\n        require(msg.sender == owner);\n        _;\n    }\n\n    event LogBadgeMinted(uint256 indexed tokenId, string nftcid, uint256 timeMinted, address buyer, address issuer);\n    event LogPaymentProcessed(uint256 indexed tokenId, address[] beneficiaries, uint256[] splits, uint256 usdCostOfBadge);\n\n    // overload inherited tokenURI\n    function tokenURI(uint256 _tokenId) external view returns (string) {\n        return tokenURIBase.toSlice().concat(tokenURIIDs[_tokenId].toSlice()).toSlice().concat(tokenURISuffix.toSlice());\n    }\n\n    function setupBadges(address _initialiseBadges, address _initialOracle) public onlyProxyOwner {\n        require(!setup);\n        name = \"Patronage Badges\";\n        symbol = \"PATRON\";\n        tokenURIBase = \"https://ipfs.infura.io:5001/api/v0/dag/get?arg=\";\n        tokenURISuffix = \"\";\n        oracle = IUSDETHOracle(_initialOracle);\n        // this issues a delegatecall in case there needs to be an initial setup the badges.\n        // eg, creating 100 initial badges for example.\n        _initialiseBadges.delegatecall(abi.encodeWithSignature(\"initialise()\")); // solhint-disable-line avoid-low-level-calls\n        setup = true;\n    }\n\n    // additional helper function not in EIP721.\n    function getAllTokens(address _owner) public view returns (uint256[]) {\n        uint size = ownedTokens[_owner].length;\n        uint[] memory result = new uint256[](size);\n        for (uint i = 0; i < size; i++) {\n            result[i] = ownedTokens[_owner][i];\n        }\n        return result;\n    }\n    /* function testGetDelegate() public view returns(address) {\n        return delegate;\n    } */\n\n    function setOracle(address _oracle) public onlyProxyOwner {\n        oracle = IUSDETHOracle(_oracle);\n    }\n\n    // URI is the CID\n    // solhint-disable-next-line func-param-name-mixedcase\n    function setTokenURIID(uint256 _tokenID, string _newID) public onlyProxyOwner tokenExists(_tokenID) {\n        tokenURIIDs[_tokenID] = _newID;\n    }\n\n    function setTokenURIBase(string _newURIBase) public onlyProxyOwner {\n        tokenURIBase = _newURIBase;\n    }\n\n    function setTokenURISuffix(string _newURISuffix) public onlyProxyOwner {\n        tokenURISuffix = _newURISuffix;\n    }\n\n    /* in the unlikely event that a badge needs to be minted but not paid for */\n    function adminMintWithoutPayment(address _buyer, string _nftCid, address[] _beneficiaries, uint256[] _splits, uint256 _usdCost) public onlyProxyOwner returns (uint256 tokenId) {\n        tokenId = createBadge(_buyer, _nftCid);\n\n        // there's no payment, but log as if it occurred.\n        emit LogPaymentProcessed(tokenId, _beneficiaries, _splits, _usdCost);\n    }\n\n    function mint(address _buyer, string _nftCid, address[] _beneficiaries, uint256[] _splits, uint256 _usdCost) public payable returns (uint256 tokenId) {\n        tokenId = createBadge(_buyer, _nftCid);\n        processETHPayment(tokenId, _beneficiaries, _splits, _usdCost);\n        // note: tokenId is automatically returned due to naming.\n    }\n\n    function burnToken(uint256 _tokenId) public allowedToOperate(_tokenId) {\n        removeToken(msg.sender, _tokenId);\n        emit Transfer(msg.sender, 0, _tokenId);\n    }\n\n    /* internal functions */\n    function processETHPayment(uint256 _tokenId, address[] _beneficiaries, uint256[] _splits, uint256 _usdCost) internal {\n        uint256 exchangeRate = oracle.getUintPrice();\n\n        require(exchangeRate > 0);\n        require(_usdCost > 0);\n\n        // note: division is not done with SafeMath because 1 ether in Solidity is int_const\n        // also: divs impossible to over/underflow\n        uint256 totalWei = (1 ether / exchangeRate).mul(_usdCost);\n        require(msg.value >= totalWei);\n\n        //  Send back remainder.\n        if (msg.value > totalWei) {\n            msg.sender.transfer(msg.value - totalWei);\n        }\n\n        // transfer funds\n        if (_beneficiaries.length > 1) {\n            processETHMultiplePayments(_beneficiaries, _splits, totalWei);\n        } else {\n            proccessETHSinglePayment(_beneficiaries[0], totalWei);\n        }\n\n        emit LogPaymentProcessed(_tokenId, _beneficiaries, _splits, _usdCost);\n    }\n\n    function proccessETHSinglePayment(address _beneficiary, uint256 _totalWei) internal {\n        _beneficiary.transfer(_totalWei);\n    }\n\n    function processETHMultiplePayments(address[] _beneficiaries, uint256[] _splits, uint256 _totalWei) internal {\n        require(_beneficiaries.length == _splits.length);\n\n        // note: allowing a split to be zero.\n\n        uint256 totalSplits = 0;\n        for (uint256 i = 0; i < _beneficiaries.length; i += 1) {\n            _beneficiaries[i].transfer(_splits[i].mul(_totalWei).div(100));\n            totalSplits = totalSplits.add(_splits[i]);\n        }\n\n        require(totalSplits == 100);\n    }\n\n    function createBadge(address _buyer, string _nftCid) internal returns (uint256) {\n        totalMinted = totalMinted.add(1); // basically impossible to overflow, but still keeping SafeMath.\n        uint256 tokenId = totalMinted; // start IDs at 1, since returning 0 could be confusing.\n        tokenURIIDs[tokenId] = _nftCid;\n\n        addToken(_buyer, tokenId);\n        emit LogBadgeMinted(tokenId, _nftCid, now, _buyer, msg.sender); // solhint-disable-line not-rely-on-time\n        return tokenId;\n    }\n}\n",
  "sourcePath": "/Users/simondlr/code/ethereum/contracts-badges/contracts/UjoPatronageBadgesFunctions.sol",
  "compiler": {
    "name": "solc",
    "version": "0.4.24+commit.e67f0147.Emscripten.clang"
  },
  "schemaVersion": "2.0.1",
  "updatedAt": "2018-09-25T18:07:48.028Z"
}