{
  "contractName": "UjoPatronageBadges",
  "abi": [
    {
      "constant": true,
      "inputs": [
        {
          "name": "interfaceID",
          "type": "bytes4"
        }
      ],
      "name": "supportsInterface",
      "outputs": [
        {
          "name": "",
          "type": "bool"
        }
      ],
      "payable": false,
      "stateMutability": "view",
      "type": "function"
    },
    {
      "constant": true,
      "inputs": [],
      "name": "name",
      "outputs": [
        {
          "name": "",
          "type": "string"
        }
      ],
      "payable": false,
      "stateMutability": "view",
      "type": "function"
    },
    {
      "constant": true,
      "inputs": [
        {
          "name": "_tokenId",
          "type": "uint256"
        }
      ],
      "name": "getApproved",
      "outputs": [
        {
          "name": "",
          "type": "address"
        }
      ],
      "payable": false,
      "stateMutability": "view",
      "type": "function"
    },
    {
      "constant": false,
      "inputs": [
        {
          "name": "_approved",
          "type": "address"
        },
        {
          "name": "_tokenId",
          "type": "uint256"
        }
      ],
      "name": "approve",
      "outputs": [],
      "payable": true,
      "stateMutability": "payable",
      "type": "function"
    },
    {
      "constant": true,
      "inputs": [],
      "name": "totalSupply",
      "outputs": [
        {
          "name": "",
          "type": "uint256"
        }
      ],
      "payable": false,
      "stateMutability": "view",
      "type": "function"
    },
    {
      "constant": true,
      "inputs": [
        {
          "name": "",
          "type": "uint256"
        }
      ],
      "name": "tokenURIIDs",
      "outputs": [
        {
          "name": "",
          "type": "string"
        }
      ],
      "payable": false,
      "stateMutability": "view",
      "type": "function"
    },
    {
      "constant": false,
      "inputs": [
        {
          "name": "_from",
          "type": "address"
        },
        {
          "name": "_to",
          "type": "address"
        },
        {
          "name": "_tokenId",
          "type": "uint256"
        }
      ],
      "name": "transferFrom",
      "outputs": [],
      "payable": true,
      "stateMutability": "payable",
      "type": "function"
    },
    {
      "constant": true,
      "inputs": [],
      "name": "tokenURIBase",
      "outputs": [
        {
          "name": "",
          "type": "string"
        }
      ],
      "payable": false,
      "stateMutability": "view",
      "type": "function"
    },
    {
      "constant": true,
      "inputs": [
        {
          "name": "_owner",
          "type": "address"
        },
        {
          "name": "_index",
          "type": "uint256"
        }
      ],
      "name": "tokenOfOwnerByIndex",
      "outputs": [
        {
          "name": "_tokenId",
          "type": "uint256"
        }
      ],
      "payable": false,
      "stateMutability": "view",
      "type": "function"
    },
    {
      "constant": false,
      "inputs": [
        {
          "name": "_from",
          "type": "address"
        },
        {
          "name": "_to",
          "type": "address"
        },
        {
          "name": "_tokenId",
          "type": "uint256"
        }
      ],
      "name": "safeTransferFrom",
      "outputs": [],
      "payable": true,
      "stateMutability": "payable",
      "type": "function"
    },
    {
      "constant": true,
      "inputs": [
        {
          "name": "_index",
          "type": "uint256"
        }
      ],
      "name": "tokenByIndex",
      "outputs": [
        {
          "name": "",
          "type": "uint256"
        }
      ],
      "payable": false,
      "stateMutability": "view",
      "type": "function"
    },
    {
      "constant": true,
      "inputs": [
        {
          "name": "_tokenId",
          "type": "uint256"
        }
      ],
      "name": "ownerOf",
      "outputs": [
        {
          "name": "",
          "type": "address"
        }
      ],
      "payable": false,
      "stateMutability": "view",
      "type": "function"
    },
    {
      "constant": true,
      "inputs": [
        {
          "name": "_owner",
          "type": "address"
        }
      ],
      "name": "balanceOf",
      "outputs": [
        {
          "name": "",
          "type": "uint256"
        }
      ],
      "payable": false,
      "stateMutability": "view",
      "type": "function"
    },
    {
      "constant": true,
      "inputs": [],
      "name": "oracle",
      "outputs": [
        {
          "name": "",
          "type": "address"
        }
      ],
      "payable": false,
      "stateMutability": "view",
      "type": "function"
    },
    {
      "constant": true,
      "inputs": [],
      "name": "symbol",
      "outputs": [
        {
          "name": "",
          "type": "string"
        }
      ],
      "payable": false,
      "stateMutability": "view",
      "type": "function"
    },
    {
      "constant": false,
      "inputs": [
        {
          "name": "_operator",
          "type": "address"
        },
        {
          "name": "_approved",
          "type": "bool"
        }
      ],
      "name": "setApprovalForAll",
      "outputs": [],
      "payable": false,
      "stateMutability": "nonpayable",
      "type": "function"
    },
    {
      "constant": true,
      "inputs": [],
      "name": "totalMinted",
      "outputs": [
        {
          "name": "",
          "type": "uint256"
        }
      ],
      "payable": false,
      "stateMutability": "view",
      "type": "function"
    },
    {
      "constant": false,
      "inputs": [
        {
          "name": "_from",
          "type": "address"
        },
        {
          "name": "_to",
          "type": "address"
        },
        {
          "name": "_tokenId",
          "type": "uint256"
        },
        {
          "name": "data",
          "type": "bytes"
        }
      ],
      "name": "safeTransferFrom",
      "outputs": [],
      "payable": true,
      "stateMutability": "payable",
      "type": "function"
    },
    {
      "constant": true,
      "inputs": [],
      "name": "locked",
      "outputs": [
        {
          "name": "",
          "type": "bool"
        }
      ],
      "payable": false,
      "stateMutability": "view",
      "type": "function"
    },
    {
      "constant": true,
      "inputs": [],
      "name": "tokenURISuffix",
      "outputs": [
        {
          "name": "",
          "type": "string"
        }
      ],
      "payable": false,
      "stateMutability": "view",
      "type": "function"
    },
    {
      "constant": true,
      "inputs": [
        {
          "name": "_owner",
          "type": "address"
        },
        {
          "name": "_operator",
          "type": "address"
        }
      ],
      "name": "isApprovedForAll",
      "outputs": [
        {
          "name": "",
          "type": "bool"
        }
      ],
      "payable": false,
      "stateMutability": "view",
      "type": "function"
    },
    {
      "constant": true,
      "inputs": [],
      "name": "admin",
      "outputs": [
        {
          "name": "",
          "type": "address"
        }
      ],
      "payable": false,
      "stateMutability": "view",
      "type": "function"
    },
    {
      "inputs": [
        {
          "name": "_admin",
          "type": "address"
        },
        {
          "name": "_initialOracle",
          "type": "address"
        }
      ],
      "payable": false,
      "stateMutability": "nonpayable",
      "type": "constructor"
    },
    {
      "anonymous": false,
      "inputs": [
        {
          "indexed": true,
          "name": "tokenId",
          "type": "uint256"
        },
        {
          "indexed": false,
          "name": "mgcid",
          "type": "string"
        },
        {
          "indexed": false,
          "name": "nftcid",
          "type": "string"
        },
        {
          "indexed": true,
          "name": "beneficiaryOfBadge",
          "type": "address"
        },
        {
          "indexed": true,
          "name": "usdCostOfBadge",
          "type": "uint256"
        },
        {
          "indexed": false,
          "name": "timeMinted",
          "type": "uint256"
        },
        {
          "indexed": false,
          "name": "buyer",
          "type": "address"
        },
        {
          "indexed": false,
          "name": "issuer",
          "type": "address"
        }
      ],
      "name": "LogBadgeMinted",
      "type": "event"
    },
    {
      "anonymous": false,
      "inputs": [
        {
          "indexed": true,
          "name": "_from",
          "type": "address"
        },
        {
          "indexed": true,
          "name": "_to",
          "type": "address"
        },
        {
          "indexed": true,
          "name": "_tokenId",
          "type": "uint256"
        }
      ],
      "name": "Transfer",
      "type": "event"
    },
    {
      "anonymous": false,
      "inputs": [
        {
          "indexed": true,
          "name": "_owner",
          "type": "address"
        },
        {
          "indexed": true,
          "name": "_approved",
          "type": "address"
        },
        {
          "indexed": true,
          "name": "_tokenId",
          "type": "uint256"
        }
      ],
      "name": "Approval",
      "type": "event"
    },
    {
      "anonymous": false,
      "inputs": [
        {
          "indexed": true,
          "name": "_owner",
          "type": "address"
        },
        {
          "indexed": true,
          "name": "_operator",
          "type": "address"
        },
        {
          "indexed": false,
          "name": "_approved",
          "type": "bool"
        }
      ],
      "name": "ApprovalForAll",
      "type": "event"
    },
    {
      "constant": false,
      "inputs": [
        {
          "name": "_initialiseBadges",
          "type": "address"
        }
      ],
      "name": "setupBadges",
      "outputs": [],
      "payable": false,
      "stateMutability": "nonpayable",
      "type": "function"
    },
    {
      "constant": true,
      "inputs": [
        {
          "name": "_tokenId",
          "type": "uint256"
        }
      ],
      "name": "tokenURI",
      "outputs": [
        {
          "name": "",
          "type": "string"
        }
      ],
      "payable": false,
      "stateMutability": "view",
      "type": "function"
    },
    {
      "constant": true,
      "inputs": [
        {
          "name": "_owner",
          "type": "address"
        }
      ],
      "name": "getAllTokens",
      "outputs": [
        {
          "name": "",
          "type": "uint256[]"
        }
      ],
      "payable": false,
      "stateMutability": "view",
      "type": "function"
    },
    {
      "constant": false,
      "inputs": [
        {
          "name": "_newAdmin",
          "type": "address"
        }
      ],
      "name": "changeAdmin",
      "outputs": [],
      "payable": false,
      "stateMutability": "nonpayable",
      "type": "function"
    },
    {
      "constant": false,
      "inputs": [
        {
          "name": "_oracle",
          "type": "address"
        }
      ],
      "name": "setOracle",
      "outputs": [],
      "payable": false,
      "stateMutability": "nonpayable",
      "type": "function"
    },
    {
      "constant": false,
      "inputs": [
        {
          "name": "_tokenID",
          "type": "uint256"
        },
        {
          "name": "_newID",
          "type": "string"
        }
      ],
      "name": "setTokenURIID",
      "outputs": [],
      "payable": false,
      "stateMutability": "nonpayable",
      "type": "function"
    },
    {
      "constant": false,
      "inputs": [
        {
          "name": "_newURIBase",
          "type": "string"
        }
      ],
      "name": "setTokenURIBase",
      "outputs": [],
      "payable": false,
      "stateMutability": "nonpayable",
      "type": "function"
    },
    {
      "constant": false,
      "inputs": [
        {
          "name": "_newURISuffix",
          "type": "string"
        }
      ],
      "name": "setTokenURISuffix",
      "outputs": [],
      "payable": false,
      "stateMutability": "nonpayable",
      "type": "function"
    },
    {
      "constant": false,
      "inputs": [
        {
          "name": "_buyer",
          "type": "address"
        },
        {
          "name": "_mgCid",
          "type": "string"
        },
        {
          "name": "_nftCid",
          "type": "string"
        },
        {
          "name": "_beneficiary",
          "type": "address"
        },
        {
          "name": "_usdCost",
          "type": "uint256"
        }
      ],
      "name": "adminCreateBadge",
      "outputs": [
        {
          "name": "tokenId",
          "type": "uint256"
        }
      ],
      "payable": false,
      "stateMutability": "nonpayable",
      "type": "function"
    },
    {
      "constant": false,
      "inputs": [],
      "name": "lockAdmin",
      "outputs": [],
      "payable": false,
      "stateMutability": "nonpayable",
      "type": "function"
    },
    {
      "constant": false,
      "inputs": [
        {
          "name": "_buyer",
          "type": "address"
        },
        {
          "name": "_mgCid",
          "type": "string"
        },
        {
          "name": "_nftCid",
          "type": "string"
        },
        {
          "name": "_beneficiary",
          "type": "address"
        },
        {
          "name": "_usdCost",
          "type": "uint256"
        }
      ],
      "name": "mint",
      "outputs": [
        {
          "name": "tokenId",
          "type": "uint256"
        }
      ],
      "payable": true,
      "stateMutability": "payable",
      "type": "function"
    },
    {
      "constant": false,
      "inputs": [
        {
          "name": "_tokenId",
          "type": "uint256"
        }
      ],
      "name": "burnToken",
      "outputs": [],
      "payable": false,
      "stateMutability": "nonpayable",
      "type": "function"
    }
  ],
  "bytecode": "0x60806040526000600a60146101000a81548160ff0219169083151502179055506000600e556000600f60146101000a81548160ff0219169083151502179055503480156200004c57600080fd5b5060405160408062003df1833981018060405281019080805190602001909291908051906020019092919050505081600a60006101000a81548173ffffffffffffffffffffffffffffffffffffffff021916908373ffffffffffffffffffffffffffffffffffffffff1602179055506040805190810160405280601081526020017f506174726f6e616765204261646765730000000000000000000000000000000081525060009080519060200190620001089291906200023e565b506040805190810160405280600681526020017f504154524f4e000000000000000000000000000000000000000000000000000081525060019080519060200190620001569291906200023e565b50606060405190810160405280602f81526020017f68747470733a2f2f697066732e696e667572612e696f3a353030312f6170692f81526020017f76302f6461672f6765743f6172673d0000000000000000000000000000000000815250600b9080519060200190620001cb9291906200023e565b506020604051908101604052806000815250600c9080519060200190620001f49291906200023e565b5080600f60006101000a81548173ffffffffffffffffffffffffffffffffffffffff021916908373ffffffffffffffffffffffffffffffffffffffff1602179055505050620002ed565b828054600181600116156101000203166002900490600052602060002090601f016020900481019282601f106200028157805160ff1916838001178555620002b2565b82800160010185558215620002b2579182015b82811115620002b157825182559160200191906001019062000294565b5b509050620002c19190620002c5565b5090565b620002ea91905b80821115620002e6576000816000905550600101620002cc565b5090565b90565b613af480620002fd6000396000f3006080604052600436106101ac576000357c0100000000000000000000000000000000000000000000000000000000900463ffffffff16806301ffc9a7146101b157806306fdde0314610215578063081812fc146102a5578063095ea7b31461031257806316fd265d14610352578063178b6de61461036957806318160ddd146104015780631d91efa91461042c57806323a9ec6f146104d257806323b872dd14610515578063261220a3146105755780632f745c5914610605578063427649471461066657806342842e0e146107735780634f6ccce7146107d35780636352211e14610814578063669b6b841461088157806370a08231146109815780637adbf973146109d85780637b47ec1a14610a1b5780637dc0d1d014610a485780638f28397014610a9f57806395d89b4114610ae2578063a111e18414610b72578063a22cb46514610be5578063a2309ff814610c34578063a9852bfb14610c5f578063b88d4fde14610cc8578063c87b56dd14610d40578063cf30901214610de6578063da2bbfc714610e15578063dbbc853b14610e7e578063e985e9c514610f0e578063f851a44014610f89575b600080fd5b3480156101bd57600080fd5b506101fb60048036038101908080357bffffffffffffffffffffffffffffffffffffffffffffffffffffffff19169060200190929190505050610fe0565b604051808215151515815260200191505060405180910390f35b34801561022157600080fd5b5061022a61119f565b6040518080602001828103825283818151815260200191508051906020019080838360005b8381101561026a57808201518184015260208101905061024f565b50505050905090810190601f1680156102975780820380516001836020036101000a031916815260200191505b509250505060405180910390f35b3480156102b157600080fd5b506102d06004803603810190808035906020019092919050505061123d565b604051808273ffffffffffffffffffffffffffffffffffffffff1673ffffffffffffffffffffffffffffffffffffffff16815260200191505060405180910390f35b610350600480360381019080803573ffffffffffffffffffffffffffffffffffffffff169060200190929190803590602001909291905050506112d5565b005b34801561035e57600080fd5b5061036761138e565b005b34801561037557600080fd5b506103aa600480360381019080803573ffffffffffffffffffffffffffffffffffffffff169060200190929190505050611407565b6040518080602001828103825283818151815260200191508051906020019060200280838360005b838110156103ed5780820151818401526020810190506103d2565b505050509050019250505060405180910390f35b34801561040d57600080fd5b5061041661151e565b6040518082815260200191505060405180910390f35b34801561043857600080fd5b506104576004803603810190808035906020019092919050505061152b565b6040518080602001828103825283818151815260200191508051906020019080838360005b8381101561049757808201518184015260208101905061047c565b50505050905090810190601f1680156104c45780820380516001836020036101000a031916815260200191505b509250505060405180910390f35b3480156104de57600080fd5b50610513600480360381019080803573ffffffffffffffffffffffffffffffffffffffff1690602001909291905050506115db565b005b610573600480360381019080803573ffffffffffffffffffffffffffffffffffffffff169060200190929190803573ffffffffffffffffffffffffffffffffffffffff16906020019092919080359060200190929190505050611795565b005b34801561058157600080fd5b5061058a611916565b6040518080602001828103825283818151815260200191508051906020019080838360005b838110156105ca5780820151818401526020810190506105af565b50505050905090810190601f1680156105f75780820380516001836020036101000a031916815260200191505b509250505060405180910390f35b34801561061157600080fd5b50610650600480360381019080803573ffffffffffffffffffffffffffffffffffffffff169060200190929190803590602001909291905050506119b4565b6040518082815260200191505060405180910390f35b34801561067257600080fd5b5061075d600480360381019080803573ffffffffffffffffffffffffffffffffffffffff169060200190929190803590602001908201803590602001908080601f0160208091040260200160405190810160405280939291908181526020018383808284378201915050505050509192919290803590602001908201803590602001908080601f0160208091040260200160405190810160405280939291908181526020018383808284378201915050505050509192919290803573ffffffffffffffffffffffffffffffffffffffff16906020019092919080359060200190929190505050611ac0565b6040518082815260200191505060405180910390f35b6107d1600480360381019080803573ffffffffffffffffffffffffffffffffffffffff169060200190929190803573ffffffffffffffffffffffffffffffffffffffff16906020019092919080359060200190929190505050611b52565b005b3480156107df57600080fd5b506107fe60048036038101908080359060200190929190505050611e78565b6040518082815260200191505060405180910390f35b34801561082057600080fd5b5061083f60048036038101908080359060200190929190505050611eae565b604051808273ffffffffffffffffffffffffffffffffffffffff1673ffffffffffffffffffffffffffffffffffffffff16815260200191505060405180910390f35b61096b600480360381019080803573ffffffffffffffffffffffffffffffffffffffff169060200190929190803590602001908201803590602001908080601f0160208091040260200160405190810160405280939291908181526020018383808284378201915050505050509192919290803590602001908201803590602001908080601f0160208091040260200160405190810160405280939291908181526020018383808284378201915050505050509192919290803573ffffffffffffffffffffffffffffffffffffffff16906020019092919080359060200190929190505050611f46565b6040518082815260200191505060405180910390f35b34801561098d57600080fd5b506109c2600480360381019080803573ffffffffffffffffffffffffffffffffffffffff169060200190929190505050611f6a565b6040518082815260200191505060405180910390f35b3480156109e457600080fd5b50610a19600480360381019080803573ffffffffffffffffffffffffffffffffffffffff169060200190929190505050611fdb565b005b348015610a2757600080fd5b50610a466004803603810190808035906020019092919050505061207b565b005b348015610a5457600080fd5b50610a5d61213b565b604051808273ffffffffffffffffffffffffffffffffffffffff1673ffffffffffffffffffffffffffffffffffffffff16815260200191505060405180910390f35b348015610aab57600080fd5b50610ae0600480360381019080803573ffffffffffffffffffffffffffffffffffffffff169060200190929190505050612161565b005b348015610aee57600080fd5b50610af7612201565b6040518080602001828103825283818151815260200191508051906020019080838360005b83811015610b37578082015181840152602081019050610b1c565b50505050905090810190601f168015610b645780820380516001836020036101000a031916815260200191505b509250505060405180910390f35b348015610b7e57600080fd5b50610be360048036038101908080359060200190929190803590602001908201803590602001908080601f016020809104026020016040519081016040528093929190818152602001838380828437820191505050505050919291929050505061229f565b005b348015610bf157600080fd5b50610c32600480360381019080803573ffffffffffffffffffffffffffffffffffffffff16906020019092919080351515906020019092919050505061239e565b005b348015610c4057600080fd5b50610c496124da565b6040518082815260200191505060405180910390f35b348015610c6b57600080fd5b50610cc6600480360381019080803590602001908201803590602001908080601f01602080910402602001604051908101604052809392919081815260200183838082843782019150505050505091929192905050506124e0565b005b610d3e600480360381019080803573ffffffffffffffffffffffffffffffffffffffff169060200190929190803573ffffffffffffffffffffffffffffffffffffffff16906020019092919080359060200190929190803590602001908201803590602001919091929391929390505050612572565b005b348015610d4c57600080fd5b50610d6b600480360381019080803590602001909291905050506128a8565b6040518080602001828103825283818151815260200191508051906020019080838360005b83811015610dab578082015181840152602081019050610d90565b50505050905090810190601f168015610dd85780820380516001836020036101000a031916815260200191505b509250505060405180910390f35b348015610df257600080fd5b50610dfb612ad5565b604051808215151515815260200191505060405180910390f35b348015610e2157600080fd5b50610e7c600480360381019080803590602001908201803590602001908080601f0160208091040260200160405190810160405280939291908181526020018383808284378201915050505050509192919290505050612ae8565b005b348015610e8a57600080fd5b50610e93612b7a565b6040518080602001828103825283818151815260200191508051906020019080838360005b83811015610ed3578082015181840152602081019050610eb8565b50505050905090810190601f168015610f005780820380516001836020036101000a031916815260200191505b509250505060405180910390f35b348015610f1a57600080fd5b50610f6f600480360381019080803573ffffffffffffffffffffffffffffffffffffffff169060200190929190803573ffffffffffffffffffffffffffffffffffffffff169060200190929190505050612c18565b604051808215151515815260200191505060405180910390f35b348015610f9557600080fd5b50610f9e612cac565b604051808273ffffffffffffffffffffffffffffffffffffffff1673ffffffffffffffffffffffffffffffffffffffff16815260200191505060405180910390f35b60006380ac58cd7c0100000000000000000000000000000000000000000000000000000000027bffffffffffffffffffffffffffffffffffffffffffffffffffffffff1916827bffffffffffffffffffffffffffffffffffffffffffffffffffffffff191614806110b15750635b5e139f7c0100000000000000000000000000000000000000000000000000000000027bffffffffffffffffffffffffffffffffffffffffffffffffffffffff1916827bffffffffffffffffffffffffffffffffffffffffffffffffffffffff1916145b8061111c575063780e9d637c0100000000000000000000000000000000000000000000000000000000027bffffffffffffffffffffffffffffffffffffffffffffffffffffffff1916827bffffffffffffffffffffffffffffffffffffffffffffffffffffffff1916145b8061118757506301ffc9a77c0100000000000000000000000000000000000000000000000000000000027bffffffffffffffffffffffffffffffffffffffffffffffffffffffff1916827bffffffffffffffffffffffffffffffffffffffffffffffffffffffff1916145b15611195576001905061119a565b600090505b919050565b60008054600181600116156101000203166002900480601f0160208091040260200160405190810160405280929190818152602001828054600181600116156101000203166002900480156112355780601f1061120a57610100808354040283529160200191611235565b820191906000526020600020905b81548152906001019060200180831161121857829003601f168201915b505050505081565b60008160006005600083815260200190815260200160002060009054906101000a900473ffffffffffffffffffffffffffffffffffffffff1673ffffffffffffffffffffffffffffffffffffffff161415151561129957600080fd5b6007600084815260200190815260200160002060009054906101000a900473ffffffffffffffffffffffffffffffffffffffff16915050919050565b60008160006005600083815260200190815260200160002060009054906101000a900473ffffffffffffffffffffffffffffffffffffffff1673ffffffffffffffffffffffffffffffffffffffff161415151561133157600080fd5b8261133b81612cd2565b151561134657600080fd5b6005600085815260200190815260200160002060009054906101000a900473ffffffffffffffffffffffffffffffffffffffff169250611387838686612e01565b5050505050565b600a60009054906101000a900473ffffffffffffffffffffffffffffffffffffffff1673ffffffffffffffffffffffffffffffffffffffff163373ffffffffffffffffffffffffffffffffffffffff161415156113ea57600080fd5b6001600a60146101000a81548160ff021916908315150217905550565b6060600060606000600460008673ffffffffffffffffffffffffffffffffffffffff1673ffffffffffffffffffffffffffffffffffffffff168152602001908152602001600020805490509250826040519080825280602002602001820160405280156114835781602001602082028038833980820191505090505b509150600090505b8281101561151357600460008673ffffffffffffffffffffffffffffffffffffffff1673ffffffffffffffffffffffffffffffffffffffff168152602001908152602001600020818154811015156114df57fe5b906000526020600020015482828151811015156114f857fe5b9060200190602002018181525050808060010191505061148b565b819350505050919050565b6000600280549050905090565b600d6020528060005260406000206000915090508054600181600116156101000203166002900480601f0160208091040260200160405190810160405280929190818152602001828054600181600116156101000203166002900480156115d35780601f106115a8576101008083540402835291602001916115d3565b820191906000526020600020905b8154815290600101906020018083116115b657829003601f168201915b505050505081565b600a60009054906101000a900473ffffffffffffffffffffffffffffffffffffffff1673ffffffffffffffffffffffffffffffffffffffff163373ffffffffffffffffffffffffffffffffffffffff1614151561163757600080fd5b600a60149054906101000a900460ff1615151561165357600080fd5b600f60149054906101000a900460ff1615151561166f57600080fd5b8073ffffffffffffffffffffffffffffffffffffffff166040516024016040516020818303038152906040527f592e6f59000000000000000000000000000000000000000000000000000000007bffffffffffffffffffffffffffffffffffffffffffffffffffffffff19166020820180517bffffffffffffffffffffffffffffffffffffffffffffffffffffffff838183161783525050505060405180828051906020019080838360005b8381101561173657808201518184015260208101905061171b565b50505050905090810190601f1680156117635780820380516001836020036101000a031916815260200191505b50915050600060405180830381855af4915050506001600f60146101000a81548160ff02191690831515021790555050565b8060006005600083815260200190815260200160002060009054906101000a900473ffffffffffffffffffffffffffffffffffffffff1673ffffffffffffffffffffffffffffffffffffffff16141515156117ef57600080fd5b8383836117fb81612cd2565b8061186457503373ffffffffffffffffffffffffffffffffffffffff166007600083815260200190815260200160002060009054906101000a900473ffffffffffffffffffffffffffffffffffffffff1673ffffffffffffffffffffffffffffffffffffffff16145b151561186f57600080fd5b8273ffffffffffffffffffffffffffffffffffffffff166005600083815260200190815260200160002060009054906101000a900473ffffffffffffffffffffffffffffffffffffffff1673ffffffffffffffffffffffffffffffffffffffff161415156118dc57600080fd5b60008273ffffffffffffffffffffffffffffffffffffffff161415151561190257600080fd5b61190d878787612f67565b50505050505050565b600b8054600181600116156101000203166002900480601f0160208091040260200160405190810160405280929190818152602001828054600181600116156101000203166002900480156119ac5780601f10611981576101008083540402835291602001916119ac565b820191906000526020600020905b81548152906001019060200180831161198f57829003601f168201915b505050505081565b60008060006005600083815260200190815260200160002060009054906101000a900473ffffffffffffffffffffffffffffffffffffffff1673ffffffffffffffffffffffffffffffffffffffff1614151515611a1057600080fd5b600460008573ffffffffffffffffffffffffffffffffffffffff1673ffffffffffffffffffffffffffffffffffffffff1681526020019081526020016000208054905083101515611a6057600080fd5b600460008573ffffffffffffffffffffffffffffffffffffffff1673ffffffffffffffffffffffffffffffffffffffff16815260200190815260200160002083815481101515611aac57fe5b906000526020600020015491505092915050565b6000600a60009054906101000a900473ffffffffffffffffffffffffffffffffffffffff1673ffffffffffffffffffffffffffffffffffffffff163373ffffffffffffffffffffffffffffffffffffffff16141515611b1e57600080fd5b600a60149054906101000a900460ff16151515611b3a57600080fd5b611b47868686868661303b565b905095945050505050565b60008160006005600083815260200190815260200160002060009054906101000a900473ffffffffffffffffffffffffffffffffffffffff1673ffffffffffffffffffffffffffffffffffffffff1614151515611bae57600080fd5b848484611bba81612cd2565b80611c2357503373ffffffffffffffffffffffffffffffffffffffff166007600083815260200190815260200160002060009054906101000a900473ffffffffffffffffffffffffffffffffffffffff1673ffffffffffffffffffffffffffffffffffffffff16145b1515611c2e57600080fd5b8273ffffffffffffffffffffffffffffffffffffffff166005600083815260200190815260200160002060009054906101000a900473ffffffffffffffffffffffffffffffffffffffff1673ffffffffffffffffffffffffffffffffffffffff16141515611c9b57600080fd5b60008273ffffffffffffffffffffffffffffffffffffffff1614151515611cc157600080fd5b611ccc888888612f67565b863b94506000851115611e6e5763150b7a027c0100000000000000000000000000000000000000000000000000000000027bffffffffffffffffffffffffffffffffffffffffffffffffffffffff19168773ffffffffffffffffffffffffffffffffffffffff1663150b7a02338b8a6040518463ffffffff167c0100000000000000000000000000000000000000000000000000000000028152600401808473ffffffffffffffffffffffffffffffffffffffff1673ffffffffffffffffffffffffffffffffffffffff1681526020018373ffffffffffffffffffffffffffffffffffffffff1673ffffffffffffffffffffffffffffffffffffffff16815260200182815260200180602001828103825260008152602001602001945050505050602060405180830381600087803b158015611e0757600080fd5b505af1158015611e1b573d6000803e3d6000fd5b505050506040513d6020811015611e3157600080fd5b81019080805190602001909291905050507bffffffffffffffffffffffffffffffffffffffffffffffffffffffff1916141515611e6d57600080fd5b5b5050505050505050565b600060028054905082101515611e8d57600080fd5b600282815481101515611e9c57fe5b90600052602060002001549050919050565b60008160006005600083815260200190815260200160002060009054906101000a900473ffffffffffffffffffffffffffffffffffffffff1673ffffffffffffffffffffffffffffffffffffffff1614151515611f0a57600080fd5b6005600084815260200190815260200160002060009054906101000a900473ffffffffffffffffffffffffffffffffffffffff16915050919050565b6000611f528383613230565b611f5f868686868661303b565b905095945050505050565b6000808273ffffffffffffffffffffffffffffffffffffffff1614151515611f9157600080fd5b600460008373ffffffffffffffffffffffffffffffffffffffff1673ffffffffffffffffffffffffffffffffffffffff168152602001908152602001600020805490509050919050565b600a60009054906101000a900473ffffffffffffffffffffffffffffffffffffffff1673ffffffffffffffffffffffffffffffffffffffff163373ffffffffffffffffffffffffffffffffffffffff1614151561203757600080fd5b80600f60006101000a81548173ffffffffffffffffffffffffffffffffffffffff021916908373ffffffffffffffffffffffffffffffffffffffff16021790555050565b3373ffffffffffffffffffffffffffffffffffffffff166005600083815260200190815260200160002060009054906101000a900473ffffffffffffffffffffffffffffffffffffffff1673ffffffffffffffffffffffffffffffffffffffff161415156120e857600080fd5b6120f233826133ea565b8060003373ffffffffffffffffffffffffffffffffffffffff167fddf252ad1be2c89b69c2b068fc378daa952ba7f163c4a11628f55a4df523b3ef60405160405180910390a450565b600f60009054906101000a900473ffffffffffffffffffffffffffffffffffffffff1681565b600a60009054906101000a900473ffffffffffffffffffffffffffffffffffffffff1673ffffffffffffffffffffffffffffffffffffffff163373ffffffffffffffffffffffffffffffffffffffff161415156121bd57600080fd5b80600a60006101000a81548173ffffffffffffffffffffffffffffffffffffffff021916908373ffffffffffffffffffffffffffffffffffffffff16021790555050565b60018054600181600116156101000203166002900480601f0160208091040260200160405190810160405280929190818152602001828054600181600116156101000203166002900480156122975780601f1061226c57610100808354040283529160200191612297565b820191906000526020600020905b81548152906001019060200180831161227a57829003601f168201915b505050505081565b600a60009054906101000a900473ffffffffffffffffffffffffffffffffffffffff1673ffffffffffffffffffffffffffffffffffffffff163373ffffffffffffffffffffffffffffffffffffffff161415156122fb57600080fd5b600a60149054906101000a900460ff1615151561231757600080fd5b8160006005600083815260200190815260200160002060009054906101000a900473ffffffffffffffffffffffffffffffffffffffff1673ffffffffffffffffffffffffffffffffffffffff161415151561237157600080fd5b81600d600085815260200190815260200160002090805190602001906123989291906139dd565b50505050565b3373ffffffffffffffffffffffffffffffffffffffff168273ffffffffffffffffffffffffffffffffffffffff16141515156123d957600080fd5b80600860003373ffffffffffffffffffffffffffffffffffffffff1673ffffffffffffffffffffffffffffffffffffffff16815260200190815260200160002060008473ffffffffffffffffffffffffffffffffffffffff1673ffffffffffffffffffffffffffffffffffffffff16815260200190815260200160002060006101000a81548160ff0219169083151502179055508173ffffffffffffffffffffffffffffffffffffffff163373ffffffffffffffffffffffffffffffffffffffff167f17307eab39ab6107e8899845ad3d59bd9653f200f220920489ca2b5937696c3183604051808215151515815260200191505060405180910390a35050565b600e5481565b600a60009054906101000a900473ffffffffffffffffffffffffffffffffffffffff1673ffffffffffffffffffffffffffffffffffffffff163373ffffffffffffffffffffffffffffffffffffffff1614151561253c57600080fd5b600a60149054906101000a900460ff1615151561255857600080fd5b80600c908051906020019061256e9291906139dd565b5050565b60008360006005600083815260200190815260200160002060009054906101000a900473ffffffffffffffffffffffffffffffffffffffff1673ffffffffffffffffffffffffffffffffffffffff16141515156125ce57600080fd5b8686866125da81612cd2565b8061264357503373ffffffffffffffffffffffffffffffffffffffff166007600083815260200190815260200160002060009054906101000a900473ffffffffffffffffffffffffffffffffffffffff1673ffffffffffffffffffffffffffffffffffffffff16145b151561264e57600080fd5b8273ffffffffffffffffffffffffffffffffffffffff166005600083815260200190815260200160002060009054906101000a900473ffffffffffffffffffffffffffffffffffffffff1673ffffffffffffffffffffffffffffffffffffffff161415156126bb57600080fd5b60008273ffffffffffffffffffffffffffffffffffffffff16141515156126e157600080fd5b6126ec8a8a8a612f67565b883b9450600085111561289c5763150b7a027c0100000000000000000000000000000000000000000000000000000000027bffffffffffffffffffffffffffffffffffffffffffffffffffffffff19168973ffffffffffffffffffffffffffffffffffffffff1663150b7a02338d8c8c8c6040518663ffffffff167c0100000000000000000000000000000000000000000000000000000000028152600401808673ffffffffffffffffffffffffffffffffffffffff1673ffffffffffffffffffffffffffffffffffffffff1681526020018573ffffffffffffffffffffffffffffffffffffffff1673ffffffffffffffffffffffffffffffffffffffff16815260200184815260200180602001828103825284848281815260200192508082843782019150509650505050505050602060405180830381600087803b15801561283557600080fd5b505af1158015612849573d6000803e3d6000fd5b505050506040513d602081101561285f57600080fd5b81019080805190602001909291905050507bffffffffffffffffffffffffffffffffffffffffffffffffffffffff191614151561289b57600080fd5b5b50505050505050505050565b6060612ace612950600c8054600181600116156101000203166002900480601f0160208091040260200160405190810160405280929190818152602001828054600181600116156101000203166002900480156129465780601f1061291b57610100808354040283529160200191612946565b820191906000526020600020905b81548152906001019060200180831161292957829003601f168201915b5050505050613726565b612ac0612abb612a0a600d60008881526020019081526020016000208054600181600116156101000203166002900480601f016020809104026020016040519081016040528092919081815260200182805460018160011615610100020316600290048015612a005780601f106129d557610100808354040283529160200191612a00565b820191906000526020600020905b8154815290600101906020018083116129e357829003601f168201915b5050505050613726565b612aad600b8054600181600116156101000203166002900480601f016020809104026020016040519081016040528092919081815260200182805460018160011615610100020316600290048015612aa35780601f10612a7857610100808354040283529160200191612aa3565b820191906000526020600020905b815481529060010190602001808311612a8657829003601f168201915b5050505050613726565b61375490919063ffffffff16565b613726565b61375490919063ffffffff16565b9050919050565b600a60149054906101000a900460ff1681565b600a60009054906101000a900473ffffffffffffffffffffffffffffffffffffffff1673ffffffffffffffffffffffffffffffffffffffff163373ffffffffffffffffffffffffffffffffffffffff16141515612b4457600080fd5b600a60149054906101000a900460ff16151515612b6057600080fd5b80600b9080519060200190612b769291906139dd565b5050565b600c8054600181600116156101000203166002900480601f016020809104026020016040519081016040528092919081815260200182805460018160011615610100020316600290048015612c105780601f10612be557610100808354040283529160200191612c10565b820191906000526020600020905b815481529060010190602001808311612bf357829003601f168201915b505050505081565b6000600860008473ffffffffffffffffffffffffffffffffffffffff1673ffffffffffffffffffffffffffffffffffffffff16815260200190815260200160002060008373ffffffffffffffffffffffffffffffffffffffff1673ffffffffffffffffffffffffffffffffffffffff16815260200190815260200160002060009054906101000a900460ff16905092915050565b600a60009054906101000a900473ffffffffffffffffffffffffffffffffffffffff1681565b60003373ffffffffffffffffffffffffffffffffffffffff166005600084815260200190815260200160002060009054906101000a900473ffffffffffffffffffffffffffffffffffffffff1673ffffffffffffffffffffffffffffffffffffffff161480612dfa5750600860006005600085815260200190815260200160002060009054906101000a900473ffffffffffffffffffffffffffffffffffffffff1673ffffffffffffffffffffffffffffffffffffffff1673ffffffffffffffffffffffffffffffffffffffff16815260200190815260200160002060003373ffffffffffffffffffffffffffffffffffffffff1673ffffffffffffffffffffffffffffffffffffffff16815260200190815260200160002060009054906101000a900460ff165b9050919050565b8273ffffffffffffffffffffffffffffffffffffffff168273ffffffffffffffffffffffffffffffffffffffff1614151515612e3c57600080fd5b60006007600083815260200190815260200160002060009054906101000a900473ffffffffffffffffffffffffffffffffffffffff1673ffffffffffffffffffffffffffffffffffffffff16148015612eab575060008273ffffffffffffffffffffffffffffffffffffffff16145b15612eb557600080fd5b816007600083815260200190815260200160002060006101000a81548173ffffffffffffffffffffffffffffffffffffffff021916908373ffffffffffffffffffffffffffffffffffffffff160217905550808273ffffffffffffffffffffffffffffffffffffffff168473ffffffffffffffffffffffffffffffffffffffff167f8c5be1e5ebec7d5bd14f71427d1e84f3dd0314c0f7b2291e5b200ac8c7c3b92560405160405180910390a4505050565b60006007600083815260200190815260200160002060009054906101000a900473ffffffffffffffffffffffffffffffffffffffff1673ffffffffffffffffffffffffffffffffffffffff16141515612fc757612fc683600083612e01565b5b612fd183826133ea565b612fdb82826137d6565b808273ffffffffffffffffffffffffffffffffffffffff168473ffffffffffffffffffffffffffffffffffffffff167fddf252ad1be2c89b69c2b068fc378daa952ba7f163c4a11628f55a4df523b3ef60405160405180910390a4505050565b600080600e5490506130596001600e5461393e90919063ffffffff16565b600e8190555084600d600083815260200190815260200160002090805190602001906130869291906139dd565b5061309187826137d6565b828473ffffffffffffffffffffffffffffffffffffffff16827f489b218822f267e3e021451c532d15255c9d15dbfae1a42cd4d5c4faf325b0288989428d336040518080602001806020018681526020018573ffffffffffffffffffffffffffffffffffffffff1673ffffffffffffffffffffffffffffffffffffffff1681526020018473ffffffffffffffffffffffffffffffffffffffff1673ffffffffffffffffffffffffffffffffffffffff168152602001838103835288818151815260200191508051906020019080838360005b8381101561317e578082015181840152602081019050613163565b50505050905090810190601f1680156131ab5780820380516001836020036101000a031916815260200191505b50838103825287818151815260200191508051906020019080838360005b838110156131e45780820151818401526020810190506131c9565b50505050905090810190601f1680156132115780820380516001836020036101000a031916815260200191505b5097505050505050505060405180910390a48091505095945050505050565b600080600f60009054906101000a900473ffffffffffffffffffffffffffffffffffffffff1673ffffffffffffffffffffffffffffffffffffffff166358836e9f6040518163ffffffff167c0100000000000000000000000000000000000000000000000000000000028152600401602060405180830381600087803b1580156132b957600080fd5b505af11580156132cd573d6000803e3d6000fd5b505050506040513d60208110156132e357600080fd5b8101908080519060200190929190505050915060008211151561330557600080fd5b60008311151561331457600080fd5b61333a8383670de0b6b3a764000081151561332b57fe5b0461395a90919063ffffffff16565b905080341015151561334b57600080fd5b8034111561339d573373ffffffffffffffffffffffffffffffffffffffff166108fc8234039081150290604051600060405180830381858888f1935050505015801561339b573d6000803e3d6000fd5b505b8373ffffffffffffffffffffffffffffffffffffffff166108fc829081150290604051600060405180830381858888f193505050501580156133e3573d6000803e3d6000fd5b5050505050565b60008060008060036000868152602001908152602001600020549350600280549050925060026001840381548110151561342057fe5b906000526020600020015460028581548110151561343a57fe5b9060005260206000200181905550836003600060026001870381548110151561345f57fe5b906000526020600020015481526020019081526020016000208190555060026001840381548110151561348e57fe5b906000526020600020016000905560016002818180549050039150816134b49190613a5d565b5060066000868152602001908152602001600020549150600460008773ffffffffffffffffffffffffffffffffffffffff1673ffffffffffffffffffffffffffffffffffffffff168152602001908152602001600020805490509050600460008773ffffffffffffffffffffffffffffffffffffffff1673ffffffffffffffffffffffffffffffffffffffff1681526020019081526020016000206001820381548110151561355f57fe5b9060005260206000200154600460008873ffffffffffffffffffffffffffffffffffffffff1673ffffffffffffffffffffffffffffffffffffffff168152602001908152602001600020838154811015156135b657fe5b90600052602060002001819055508160066000600460008a73ffffffffffffffffffffffffffffffffffffffff1673ffffffffffffffffffffffffffffffffffffffff1681526020019081526020016000206001850381548110151561361857fe5b9060005260206000200154815260200190815260200160002081905550600460008773ffffffffffffffffffffffffffffffffffffffff1673ffffffffffffffffffffffffffffffffffffffff1681526020019081526020016000206001820381548110151561368457fe5b90600052602060002001600090556001600460008873ffffffffffffffffffffffffffffffffffffffff1673ffffffffffffffffffffffffffffffffffffffff168152602001908152602001600020818180549050039150816136e79190613a5d565b506005600086815260200190815260200160002060006101000a81549073ffffffffffffffffffffffffffffffffffffffff0219169055505050505050565b61372e613a89565b600060208301905060408051908101604052808451815260200182815250915050919050565b606080600083600001518560000151016040519080825280601f01601f1916602001820160405280156137965781602001602082028038833980820191505090505b5091506020820190506137b28186602001518760000151613992565b6137cb8560000151820185602001518660000151613992565b819250505092915050565b60028190806001815401808255809150509060018203906000526020600020016000909192909190915055506001600280549050036003600083815260200190815260200160002081905550816005600083815260200190815260200160002060006101000a81548173ffffffffffffffffffffffffffffffffffffffff021916908373ffffffffffffffffffffffffffffffffffffffff160217905550600460008373ffffffffffffffffffffffffffffffffffffffff1673ffffffffffffffffffffffffffffffffffffffff1681526020019081526020016000208190806001815401808255809150509060018203906000526020600020016000909192909190915055506001600460008473ffffffffffffffffffffffffffffffffffffffff1673ffffffffffffffffffffffffffffffffffffffff168152602001908152602001600020805490500360066000838152602001908152602001600020819055505050565b6000818301905082811015151561395157fe5b80905092915050565b60008083141561396d576000905061398c565b818302905081838281151561397e57fe5b0414151561398857fe5b8090505b92915050565b60005b6020821015156139ba5782518452602084019350602083019250602082039150613995565b6001826020036101000a0390508019835116818551168181178652505050505050565b828054600181600116156101000203166002900490600052602060002090601f016020900481019282601f10613a1e57805160ff1916838001178555613a4c565b82800160010185558215613a4c579182015b82811115613a4b578251825591602001919060010190613a30565b5b509050613a599190613aa3565b5090565b815481835581811115613a8457818360005260206000209182019101613a839190613aa3565b5b505050565b604080519081016040528060008152602001600081525090565b613ac591905b80821115613ac1576000816000905550600101613aa9565b5090565b905600a165627a7a7230582089acb803cc808da2d9203ce84c0e04cb587978ba5a9af2ab763dcc94ae57e5240029",
  "source": "pragma solidity ^0.4.24;\nimport \"./eip721/EIP721.sol\";\nimport \"./utils/SafeMath.sol\";\nimport \"./utils/strings.sol\";\nimport \"./IUSDETHOracle.sol\";\n\n/*\nContains refactor of tokenURI\nand badge numbers\n*/\n\ncontract UjoPatronageBadges is EIP721 {\n    using SafeMath for uint256;\n    using strings for *;\n\n    event LogBadgeMinted(uint256 indexed tokenId, string mgcid, string nftcid, address indexed beneficiaryOfBadge, uint256 indexed usdCostOfBadge, uint256 timeMinted, address buyer, address issuer);\n\n    address public admin;\n    bool public locked = false;\n\n    string public tokenURIBase;\n    string public tokenURISuffix;\n    mapping (uint256 => string) public tokenURIIDs;\n\n    uint256 public totalMinted = 0;\n\n    IUSDETHOracle public oracle;\n\n    bool internal setup = false;\n\n    constructor(address _admin, address _initialOracle) public {\n        admin = _admin; // sets oracle used.\n        name = \"Patronage Badges\";\n        symbol = \"PATRON\";\n        tokenURIBase = \"https://ipfs.infura.io:5001/api/v0/dag/get?arg=\";\n        tokenURISuffix = \"\";\n        oracle = IUSDETHOracle(_initialOracle);\n    }\n\n    function setupBadges(address _initialiseBadges) external onlyAdmin notLocked {\n        require(!setup);\n        // this issues a delegatecall in case there needs to be an initial setup the badges.\n        // eg, creating 100 initial badges for example.\n        _initialiseBadges.delegatecall(abi.encodeWithSignature(\"initialise()\")); // solhint-disable-line avoid-low-level-calls\n        setup = true;\n    }\n\n    // overload inherited tokenURI\n    function tokenURI(uint256 _tokenId) external view returns (string) {\n        return tokenURIBase.toSlice().concat(tokenURIIDs[_tokenId].toSlice()).toSlice().concat(tokenURISuffix.toSlice());\n    }\n\n    // additional helper function not in EIP721.\n    function getAllTokens(address _owner) public view returns (uint256[]) {\n        uint size = ownedTokens[_owner].length;\n        uint[] memory result = new uint256[](size);\n        for (uint i = 0; i < size; i++) {\n            result[i] = ownedTokens[_owner][i];\n        }\n        return result;\n    }\n\n    modifier onlyAdmin() {\n        require(msg.sender == admin);\n        _;\n    }\n\n    modifier notLocked() {\n        require(!locked);\n        _;\n    }\n\n    function changeAdmin(address _newAdmin) public onlyAdmin {\n        admin = _newAdmin;\n    }\n\n    function setOracle(address _oracle) public onlyAdmin {\n        oracle = IUSDETHOracle(_oracle);\n    }\n\n    // URI is the CID\n    // solhint-disable-next-line func-param-name-mixedcase\n    function setTokenURIID(uint256 _tokenID, string _newID) public onlyAdmin notLocked tokenExists(_tokenID) {\n        tokenURIIDs[_tokenID] = _newID;\n    }\n\n    function setTokenURIBase(string _newURIBase) public onlyAdmin notLocked {\n        tokenURIBase = _newURIBase;\n    }\n\n    function setTokenURISuffix(string _newURISuffix) public onlyAdmin notLocked {\n        tokenURISuffix = _newURISuffix;\n    }\n\n    /* in the unlikely event that a badge needs to be minted but not paid for */\n    function adminCreateBadge(address _buyer, string _mgCid, string _nftCid, address _beneficiary, uint256 _usdCost) public onlyAdmin notLocked returns (uint256 tokenId) {\n        return createBadge(_buyer, _mgCid, _nftCid, _beneficiary, _usdCost);\n    }\n\n    function lockAdmin() public onlyAdmin {\n        locked = true; // lock admin functionality forever.\n    }\n\n    function mint(address _buyer, string _mgCid, string _nftCid, address _beneficiary, uint256 _usdCost) public payable returns (uint256 tokenId) {\n        processPayment(_beneficiary, _usdCost);\n        return createBadge(_buyer, _mgCid, _nftCid, _beneficiary, _usdCost);\n    }\n\n    function burnToken(uint256 _tokenId) public {\n        require(ownerOfToken[_tokenId] == msg.sender); //token should be in control of owner\n        removeToken(msg.sender, _tokenId);\n        emit Transfer(msg.sender, 0, _tokenId);\n    }\n\n    /* internal functions */\n    function processPayment(address _beneficiary, uint256 _usdCost) internal {\n        uint256 exchangeRate = oracle.getUintPrice();\n\n        require(exchangeRate > 0);\n        require(_usdCost > 0);\n        // note: division is not done with SafeMath because 1 ether in Solidity is int_const\n        // also: impossible to over/underflow\n        uint256 usdCostInWei = (1 ether / exchangeRate).mul(_usdCost);\n        require(msg.value >= usdCostInWei);\n\n        //  check if paid enough through oracle price\n        //  Send back remainder.\n        if (msg.value > usdCostInWei) {\n            msg.sender.transfer(msg.value - usdCostInWei);\n        }\n\n        _beneficiary.transfer(usdCostInWei);\n    }\n\n    function createBadge(address _buyer, string _mgCid, string _nftCid, address _beneficiary, uint256 _usdCost) internal returns (uint256) {\n        uint256 tokenId = totalMinted;\n        totalMinted = totalMinted.add(1); // basically impossible to overflow, but still keeping SafeMath.\n        tokenURIIDs[tokenId] = _nftCid;\n\n        addToken(_buyer, tokenId);\n        emit LogBadgeMinted(tokenId, _mgCid, _nftCid, _beneficiary, _usdCost, now, _buyer, msg.sender); // solhint-disable-line not-rely-on-time\n        return tokenId;\n    }\n}\n",
  "sourcePath": "/Users/simondlr/code/ethereum/contracts-badges/contracts/UjoPatronageBadges.sol",
  "compiler": {
    "name": "solc",
    "version": "0.4.24+commit.e67f0147.Emscripten.clang"
  },
  "schemaVersion": "2.0.1",
  "updatedAt": "2018-08-30T11:23:00.399Z"
}