{
  "contractName": "UjoPatronageBadges",
  "abi": [
    {
      "constant": false,
      "inputs": [],
      "name": "renounceOwnership",
      "outputs": [],
      "payable": false,
      "stateMutability": "nonpayable",
      "type": "function"
    },
    {
      "constant": true,
      "inputs": [],
      "name": "owner",
      "outputs": [
        {
          "name": "",
          "type": "address"
        }
      ],
      "payable": false,
      "stateMutability": "view",
      "type": "function"
    },
    {
      "constant": false,
      "inputs": [
        {
          "name": "_newOwner",
          "type": "address"
        }
      ],
      "name": "transferOwnership",
      "outputs": [],
      "payable": false,
      "stateMutability": "nonpayable",
      "type": "function"
    },
    {
      "inputs": [
        {
          "name": "_owner",
          "type": "address"
        },
        {
          "name": "_delegate",
          "type": "address"
        }
      ],
      "payable": false,
      "stateMutability": "nonpayable",
      "type": "constructor"
    },
    {
      "payable": true,
      "stateMutability": "payable",
      "type": "fallback"
    },
    {
      "anonymous": false,
      "inputs": [
        {
          "indexed": true,
          "name": "previousOwner",
          "type": "address"
        }
      ],
      "name": "OwnershipRenounced",
      "type": "event"
    },
    {
      "anonymous": false,
      "inputs": [
        {
          "indexed": true,
          "name": "previousOwner",
          "type": "address"
        },
        {
          "indexed": true,
          "name": "newOwner",
          "type": "address"
        }
      ],
      "name": "OwnershipTransferred",
      "type": "event"
    },
    {
      "constant": false,
      "inputs": [
        {
          "name": "_delegate",
          "type": "address"
        }
      ],
      "name": "setDelegate",
      "outputs": [],
      "payable": false,
      "stateMutability": "nonpayable",
      "type": "function"
    }
  ],
  "bytecode": "0x608060405234801561001057600080fd5b506040516040806105f0833981018060405281019080805190602001909291908051906020019092919050505081806000806101000a81548173ffffffffffffffffffffffffffffffffffffffff021916908373ffffffffffffffffffffffffffffffffffffffff1602179055505080600160006101000a81548173ffffffffffffffffffffffffffffffffffffffff021916908373ffffffffffffffffffffffffffffffffffffffff160217905550505061051f806100d16000396000f300608060405260043610610062576000357c0100000000000000000000000000000000000000000000000000000000900463ffffffff168063715018a61461006c5780638da5cb5b14610083578063ca5eb5e1146100da578063f2fde38b1461011d575b61006a610160565b005b34801561007857600080fd5b5061008161017a565b005b34801561008f57600080fd5b5061009861027c565b604051808273ffffffffffffffffffffffffffffffffffffffff1673ffffffffffffffffffffffffffffffffffffffff16815260200191505060405180910390f35b3480156100e657600080fd5b5061011b600480360381019080803573ffffffffffffffffffffffffffffffffffffffff1690602001909291905050506102a1565b005b34801561012957600080fd5b5061015e600480360381019080803573ffffffffffffffffffffffffffffffffffffffff169060200190929190505050610340565b005b6101686103a7565b6101786101736103a9565b6103d3565b565b6000809054906101000a900473ffffffffffffffffffffffffffffffffffffffff1673ffffffffffffffffffffffffffffffffffffffff163373ffffffffffffffffffffffffffffffffffffffff161415156101d557600080fd5b6000809054906101000a900473ffffffffffffffffffffffffffffffffffffffff1673ffffffffffffffffffffffffffffffffffffffff167ff8df31144d9c2f0f6b59d69b8b98abd5459d07f2742c4df920b25aae33c6482060405160405180910390a260008060006101000a81548173ffffffffffffffffffffffffffffffffffffffff021916908373ffffffffffffffffffffffffffffffffffffffff160217905550565b6000809054906101000a900473ffffffffffffffffffffffffffffffffffffffff1681565b6000809054906101000a900473ffffffffffffffffffffffffffffffffffffffff1673ffffffffffffffffffffffffffffffffffffffff163373ffffffffffffffffffffffffffffffffffffffff161415156102fc57600080fd5b80600160006101000a81548173ffffffffffffffffffffffffffffffffffffffff021916908373ffffffffffffffffffffffffffffffffffffffff16021790555050565b6000809054906101000a900473ffffffffffffffffffffffffffffffffffffffff1673ffffffffffffffffffffffffffffffffffffffff163373ffffffffffffffffffffffffffffffffffffffff1614151561039b57600080fd5b6103a4816103f9565b50565b565b6000600160009054906101000a900473ffffffffffffffffffffffffffffffffffffffff16905090565b3660008037600080366000845af43d6000803e80600081146103f4573d6000f35b3d6000fd5b600073ffffffffffffffffffffffffffffffffffffffff168173ffffffffffffffffffffffffffffffffffffffff161415151561043557600080fd5b8073ffffffffffffffffffffffffffffffffffffffff166000809054906101000a900473ffffffffffffffffffffffffffffffffffffffff1673ffffffffffffffffffffffffffffffffffffffff167f8be0079c531659141344cd1fd0a4f28419497f9722a3daafe3b4186f6b6457e060405160405180910390a3806000806101000a81548173ffffffffffffffffffffffffffffffffffffffff021916908373ffffffffffffffffffffffffffffffffffffffff160217905550505600a165627a7a72305820928af59aaeb4fd835f8a0f2fcdda6cdde607a7c34aa2ce850b46c5cb7f2475d90029",
  "source": "pragma solidity ^0.4.24;\nimport \"./Proxy.sol\";\nimport \"./Ownable.sol\";\n\n/*\nContains refactor of tokenURI\nand badge numbers\n*/\n\ncontract UjoPatronageBadges is Proxy, Ownable {\n\n    /* --- */\n    address internal delegate;\n    /* --- */\n\n    // solhint-disable-next-line visibility-modifier-order\n    constructor(address _owner, address _delegate) Ownable(_owner) public {\n        delegate = _delegate; //starting delegate.\n    }\n\n    /* upgrade or change functions of badges */\n    function setDelegate(address _delegate) public onlyOwner {\n        delegate = _delegate;\n    }\n\n    function _implementation() internal view returns (address) {\n        return delegate;\n    }\n}\n",
  "sourcePath": "/Users/simondlr/code/ethereum/contracts-badges/contracts/UjoPatronageBadges.sol",
  "compiler": {
    "name": "solc",
    "version": "0.4.24+commit.e67f0147.Emscripten.clang"
  },
  "schemaVersion": "2.0.1",
  "updatedAt": "2018-09-21T15:54:41.887Z"
}