{
  "contractName": "UjoPatronageBadges",
  "abi": [
    {
      "constant": true,
      "inputs": [
        {
          "name": "interfaceID",
          "type": "bytes4"
        }
      ],
      "name": "supportsInterface",
      "outputs": [
        {
          "name": "",
          "type": "bool"
        }
      ],
      "payable": false,
      "stateMutability": "view",
      "type": "function"
    },
    {
      "constant": true,
      "inputs": [],
      "name": "name",
      "outputs": [
        {
          "name": "",
          "type": "string"
        }
      ],
      "payable": false,
      "stateMutability": "view",
      "type": "function"
    },
    {
      "constant": true,
      "inputs": [
        {
          "name": "_tokenId",
          "type": "uint256"
        }
      ],
      "name": "getApproved",
      "outputs": [
        {
          "name": "",
          "type": "address"
        }
      ],
      "payable": false,
      "stateMutability": "view",
      "type": "function"
    },
    {
      "constant": false,
      "inputs": [
        {
          "name": "_approved",
          "type": "address"
        },
        {
          "name": "_tokenId",
          "type": "uint256"
        }
      ],
      "name": "approve",
      "outputs": [],
      "payable": true,
      "stateMutability": "payable",
      "type": "function"
    },
    {
      "constant": true,
      "inputs": [],
      "name": "totalSupply",
      "outputs": [
        {
          "name": "",
          "type": "uint256"
        }
      ],
      "payable": false,
      "stateMutability": "view",
      "type": "function"
    },
    {
      "constant": false,
      "inputs": [
        {
          "name": "_from",
          "type": "address"
        },
        {
          "name": "_to",
          "type": "address"
        },
        {
          "name": "_tokenId",
          "type": "uint256"
        }
      ],
      "name": "transferFrom",
      "outputs": [],
      "payable": true,
      "stateMutability": "payable",
      "type": "function"
    },
    {
      "constant": true,
      "inputs": [
        {
          "name": "",
          "type": "uint256"
        }
      ],
      "name": "usdCostOfBadge",
      "outputs": [
        {
          "name": "",
          "type": "uint256"
        }
      ],
      "payable": false,
      "stateMutability": "view",
      "type": "function"
    },
    {
      "constant": true,
      "inputs": [
        {
          "name": "_owner",
          "type": "address"
        },
        {
          "name": "_index",
          "type": "uint256"
        }
      ],
      "name": "tokenOfOwnerByIndex",
      "outputs": [
        {
          "name": "_tokenId",
          "type": "uint256"
        }
      ],
      "payable": false,
      "stateMutability": "view",
      "type": "function"
    },
    {
      "constant": false,
      "inputs": [
        {
          "name": "_from",
          "type": "address"
        },
        {
          "name": "_to",
          "type": "address"
        },
        {
          "name": "_tokenId",
          "type": "uint256"
        }
      ],
      "name": "safeTransferFrom",
      "outputs": [],
      "payable": true,
      "stateMutability": "payable",
      "type": "function"
    },
    {
      "constant": true,
      "inputs": [
        {
          "name": "_index",
          "type": "uint256"
        }
      ],
      "name": "tokenByIndex",
      "outputs": [
        {
          "name": "",
          "type": "uint256"
        }
      ],
      "payable": false,
      "stateMutability": "view",
      "type": "function"
    },
    {
      "constant": true,
      "inputs": [
        {
          "name": "_tokenId",
          "type": "uint256"
        }
      ],
      "name": "ownerOf",
      "outputs": [
        {
          "name": "",
          "type": "address"
        }
      ],
      "payable": false,
      "stateMutability": "view",
      "type": "function"
    },
    {
      "constant": true,
      "inputs": [
        {
          "name": "",
          "type": "uint256"
        }
      ],
      "name": "badgeNumber",
      "outputs": [
        {
          "name": "",
          "type": "uint256"
        }
      ],
      "payable": false,
      "stateMutability": "view",
      "type": "function"
    },
    {
      "constant": true,
      "inputs": [
        {
          "name": "_owner",
          "type": "address"
        }
      ],
      "name": "balanceOf",
      "outputs": [
        {
          "name": "",
          "type": "uint256"
        }
      ],
      "payable": false,
      "stateMutability": "view",
      "type": "function"
    },
    {
      "constant": true,
      "inputs": [],
      "name": "oracle",
      "outputs": [
        {
          "name": "",
          "type": "address"
        }
      ],
      "payable": false,
      "stateMutability": "view",
      "type": "function"
    },
    {
      "constant": true,
      "inputs": [
        {
          "name": "",
          "type": "uint256"
        }
      ],
      "name": "cidOfBadge",
      "outputs": [
        {
          "name": "",
          "type": "string"
        }
      ],
      "payable": false,
      "stateMutability": "view",
      "type": "function"
    },
    {
      "constant": true,
      "inputs": [],
      "name": "symbol",
      "outputs": [
        {
          "name": "",
          "type": "string"
        }
      ],
      "payable": false,
      "stateMutability": "view",
      "type": "function"
    },
    {
      "constant": false,
      "inputs": [
        {
          "name": "_operator",
          "type": "address"
        },
        {
          "name": "_approved",
          "type": "bool"
        }
      ],
      "name": "setApprovalForAll",
      "outputs": [],
      "payable": false,
      "stateMutability": "nonpayable",
      "type": "function"
    },
    {
      "constant": false,
      "inputs": [
        {
          "name": "_from",
          "type": "address"
        },
        {
          "name": "_to",
          "type": "address"
        },
        {
          "name": "_tokenId",
          "type": "uint256"
        },
        {
          "name": "_data",
          "type": "bytes"
        }
      ],
      "name": "safeTransferFrom",
      "outputs": [],
      "payable": true,
      "stateMutability": "payable",
      "type": "function"
    },
    {
      "constant": true,
      "inputs": [
        {
          "name": "_tokenId",
          "type": "uint256"
        }
      ],
      "name": "tokenURI",
      "outputs": [
        {
          "name": "",
          "type": "string"
        }
      ],
      "payable": false,
      "stateMutability": "view",
      "type": "function"
    },
    {
      "constant": true,
      "inputs": [
        {
          "name": "_owner",
          "type": "address"
        },
        {
          "name": "_operator",
          "type": "address"
        }
      ],
      "name": "isApprovedForAll",
      "outputs": [
        {
          "name": "",
          "type": "bool"
        }
      ],
      "payable": false,
      "stateMutability": "view",
      "type": "function"
    },
    {
      "constant": true,
      "inputs": [
        {
          "name": "",
          "type": "uint256"
        }
      ],
      "name": "beneficiaryOfBadge",
      "outputs": [
        {
          "name": "",
          "type": "address"
        }
      ],
      "payable": false,
      "stateMutability": "view",
      "type": "function"
    },
    {
      "constant": true,
      "inputs": [],
      "name": "admin",
      "outputs": [
        {
          "name": "",
          "type": "address"
        }
      ],
      "payable": false,
      "stateMutability": "view",
      "type": "function"
    },
    {
      "inputs": [
        {
          "name": "_admin",
          "type": "address"
        }
      ],
      "payable": false,
      "stateMutability": "nonpayable",
      "type": "constructor"
    },
    {
      "anonymous": false,
      "inputs": [
        {
          "indexed": true,
          "name": "_from",
          "type": "address"
        },
        {
          "indexed": true,
          "name": "_to",
          "type": "address"
        },
        {
          "indexed": false,
          "name": "_tokenId",
          "type": "uint256"
        }
      ],
      "name": "Transfer",
      "type": "event"
    },
    {
      "anonymous": false,
      "inputs": [
        {
          "indexed": true,
          "name": "_owner",
          "type": "address"
        },
        {
          "indexed": true,
          "name": "_approved",
          "type": "address"
        },
        {
          "indexed": false,
          "name": "_tokenId",
          "type": "uint256"
        }
      ],
      "name": "Approval",
      "type": "event"
    },
    {
      "anonymous": false,
      "inputs": [
        {
          "indexed": true,
          "name": "_owner",
          "type": "address"
        },
        {
          "indexed": true,
          "name": "_operator",
          "type": "address"
        },
        {
          "indexed": false,
          "name": "_approved",
          "type": "bool"
        }
      ],
      "name": "ApprovalForAll",
      "type": "event"
    },
    {
      "constant": false,
      "inputs": [
        {
          "name": "_oracle",
          "type": "address"
        }
      ],
      "name": "setOracle",
      "outputs": [],
      "payable": false,
      "stateMutability": "nonpayable",
      "type": "function"
    },
    {
      "constant": true,
      "inputs": [
        {
          "name": "_owner",
          "type": "address"
        }
      ],
      "name": "getAllTokens",
      "outputs": [
        {
          "name": "",
          "type": "uint256[]"
        }
      ],
      "payable": false,
      "stateMutability": "view",
      "type": "function"
    },
    {
      "constant": false,
      "inputs": [
        {
          "name": "_cid",
          "type": "string"
        },
        {
          "name": "_beneficiary",
          "type": "address"
        },
        {
          "name": "_usdCost",
          "type": "uint256"
        }
      ],
      "name": "mint",
      "outputs": [],
      "payable": true,
      "stateMutability": "payable",
      "type": "function"
    },
    {
      "constant": false,
      "inputs": [
        {
          "name": "_cid",
          "type": "string"
        },
        {
          "name": "_beneficiary",
          "type": "address"
        },
        {
          "name": "_usdCost",
          "type": "uint256"
        },
        {
          "name": "_counter",
          "type": "uint256"
        }
      ],
      "name": "computeID",
      "outputs": [
        {
          "name": "",
          "type": "uint256"
        }
      ],
      "payable": false,
      "stateMutability": "nonpayable",
      "type": "function"
    },
    {
      "constant": false,
      "inputs": [
        {
          "name": "_newAdmin",
          "type": "address"
        }
      ],
      "name": "changeAdmin",
      "outputs": [],
      "payable": false,
      "stateMutability": "nonpayable",
      "type": "function"
    },
    {
      "constant": false,
      "inputs": [
        {
          "name": "_tokenID",
          "type": "uint256"
        },
        {
          "name": "URI",
          "type": "string"
        }
      ],
      "name": "setTokenURI",
      "outputs": [],
      "payable": false,
      "stateMutability": "nonpayable",
      "type": "function"
    },
    {
      "constant": false,
      "inputs": [
        {
          "name": "_tokenId",
          "type": "uint256"
        }
      ],
      "name": "burnToken",
      "outputs": [],
      "payable": false,
      "stateMutability": "nonpayable",
      "type": "function"
    },
    {
      "constant": true,
      "inputs": [
        {
          "name": "_cid",
          "type": "string"
        },
        {
          "name": "_beneficiary",
          "type": "address"
        },
        {
          "name": "_usdCost",
          "type": "uint256"
        }
      ],
      "name": "getTotalMintedPerCombination",
      "outputs": [
        {
          "name": "",
          "type": "uint256"
        }
      ],
      "payable": false,
      "stateMutability": "view",
      "type": "function"
    }
  ],
  "bytecode": "0x60806040523480156200001157600080fd5b50604051602080620037728339810180604052810190808051906020019092919050505080600f60006101000a81548173ffffffffffffffffffffffffffffffffffffffff021916908373ffffffffffffffffffffffffffffffffffffffff1602179055506040805190810160405280601081526020017f506174726f6e616765204261646765730000000000000000000000000000000081525060009080519060200190620000c392919062000119565b506040805190810160405280600681526020017f504154524f4e0000000000000000000000000000000000000000000000000000815250600190805190602001906200011192919062000119565b5050620001c8565b828054600181600116156101000203166002900490600052602060002090601f016020900481019282601f106200015c57805160ff19168380011785556200018d565b828001600101855582156200018d579182015b828111156200018c5782518255916020019190600101906200016f565b5b5090506200019c9190620001a0565b5090565b620001c591905b80821115620001c1576000816000905550600101620001a7565b5090565b90565b61359a80620001d86000396000f300608060405260043610610180576000357c0100000000000000000000000000000000000000000000000000000000900463ffffffff16806301ffc9a71461018557806306fdde03146101e9578063081812fc14610279578063095ea7b3146102e6578063162094c414610326578063178b6de61461039957806318160ddd1461043157806323b872dd1461045c578063253d41e6146104bc5780632bcf3c0d146104fd5780632f745c59146105a457806342842e0e146106055780634f6ccce7146106655780636352211e146106a65780636dc14b6f1461071357806370a08231146107545780637adbf973146107ab5780637b47ec1a146107ee5780637dc0d1d01461081b5780637e0cad02146108725780637e8816b9146109185780638f2839701461099e57806395d89b41146109e1578063a22cb46514610a71578063b88d4fde14610ac0578063c87b56dd14610b38578063e985e9c514610bde578063eb7d5f4114610c59578063f222effd14610cc6578063f851a44014610d77575b600080fd5b34801561019157600080fd5b506101cf60048036038101908080357bffffffffffffffffffffffffffffffffffffffffffffffffffffffff19169060200190929190505050610dce565b604051808215151515815260200191505060405180910390f35b3480156101f557600080fd5b506101fe610f22565b6040518080602001828103825283818151815260200191508051906020019080838360005b8381101561023e578082015181840152602081019050610223565b50505050905090810190601f16801561026b5780820380516001836020036101000a031916815260200191505b509250505060405180910390f35b34801561028557600080fd5b506102a460048036038101908080359060200190929190505050610fc0565b604051808273ffffffffffffffffffffffffffffffffffffffff1673ffffffffffffffffffffffffffffffffffffffff16815260200191505060405180910390f35b610324600480360381019080803573ffffffffffffffffffffffffffffffffffffffff16906020019092919080359060200190929190505050611058565b005b34801561033257600080fd5b5061039760048036038101908080359060200190929190803590602001908201803590602001908080601f0160208091040260200160405190810160405280939291908181526020018383808284378201915050505050509192919290505050611111565b005b3480156103a557600080fd5b506103da600480360381019080803573ffffffffffffffffffffffffffffffffffffffff169060200190929190505050611199565b6040518080602001828103825283818151815260200191508051906020019060200280838360005b8381101561041d578082015181840152602081019050610402565b505050509050019250505060405180910390f35b34801561043d57600080fd5b506104466112b0565b6040518082815260200191505060405180910390f35b6104ba600480360381019080803573ffffffffffffffffffffffffffffffffffffffff169060200190929190803573ffffffffffffffffffffffffffffffffffffffff169060200190929190803590602001909291905050506112bd565b005b3480156104c857600080fd5b506104e76004803603810190808035906020019092919050505061143e565b6040518082815260200191505060405180910390f35b34801561050957600080fd5b5061058e600480360381019080803590602001908201803590602001908080601f0160208091040260200160405190810160405280939291908181526020018383808284378201915050505050509192919290803573ffffffffffffffffffffffffffffffffffffffff16906020019092919080359060200190929190505050611456565b6040518082815260200191505060405180910390f35b3480156105b057600080fd5b506105ef600480360381019080803573ffffffffffffffffffffffffffffffffffffffff1690602001909291908035906020019092919050505061151b565b6040518082815260200191505060405180910390f35b610663600480360381019080803573ffffffffffffffffffffffffffffffffffffffff169060200190929190803573ffffffffffffffffffffffffffffffffffffffff16906020019092919080359060200190929190505050611627565b005b34801561067157600080fd5b50610690600480360381019080803590602001909291905050506118fa565b6040518082815260200191505060405180910390f35b3480156106b257600080fd5b506106d160048036038101908080359060200190929190505050611930565b604051808273ffffffffffffffffffffffffffffffffffffffff1673ffffffffffffffffffffffffffffffffffffffff16815260200191505060405180910390f35b34801561071f57600080fd5b5061073e600480360381019080803590602001909291905050506119c8565b6040518082815260200191505060405180910390f35b34801561076057600080fd5b50610795600480360381019080803573ffffffffffffffffffffffffffffffffffffffff1690602001909291905050506119e0565b6040518082815260200191505060405180910390f35b3480156107b757600080fd5b506107ec600480360381019080803573ffffffffffffffffffffffffffffffffffffffff169060200190929190505050611a51565b005b3480156107fa57600080fd5b5061081960048036038101908080359060200190929190505050611af1565b005b34801561082757600080fd5b50610830611bbb565b604051808273ffffffffffffffffffffffffffffffffffffffff1673ffffffffffffffffffffffffffffffffffffffff16815260200191505060405180910390f35b34801561087e57600080fd5b5061089d60048036038101908080359060200190929190505050611be1565b6040518080602001828103825283818151815260200191508051906020019080838360005b838110156108dd5780820151818401526020810190506108c2565b50505050905090810190601f16801561090a5780820380516001836020036101000a031916815260200191505b509250505060405180910390f35b61099c600480360381019080803590602001908201803590602001908080601f0160208091040260200160405190810160405280939291908181526020018383808284378201915050505050509192919290803573ffffffffffffffffffffffffffffffffffffffff16906020019092919080359060200190929190505050611c91565b005b3480156109aa57600080fd5b506109df600480360381019080803573ffffffffffffffffffffffffffffffffffffffff169060200190929190505050612163565b005b3480156109ed57600080fd5b506109f6612203565b6040518080602001828103825283818151815260200191508051906020019080838360005b83811015610a36578082015181840152602081019050610a1b565b50505050905090810190601f168015610a635780820380516001836020036101000a031916815260200191505b509250505060405180910390f35b348015610a7d57600080fd5b50610abe600480360381019080803573ffffffffffffffffffffffffffffffffffffffff1690602001909291908035151590602001909291905050506122a1565b005b610b36600480360381019080803573ffffffffffffffffffffffffffffffffffffffff169060200190929190803573ffffffffffffffffffffffffffffffffffffffff169060200190929190803590602001909291908035906020019082018035906020019190919293919293905050506123dd565b005b348015610b4457600080fd5b50610b63600480360381019080803590602001909291905050506126df565b6040518080602001828103825283818151815260200191508051906020019080838360005b83811015610ba3578082015181840152602081019050610b88565b50505050905090810190601f168015610bd05780820380516001836020036101000a031916815260200191505b509250505060405180910390f35b348015610bea57600080fd5b50610c3f600480360381019080803573ffffffffffffffffffffffffffffffffffffffff169060200190929190803573ffffffffffffffffffffffffffffffffffffffff169060200190929190505050612794565b604051808215151515815260200191505060405180910390f35b348015610c6557600080fd5b50610c8460048036038101908080359060200190929190505050612828565b604051808273ffffffffffffffffffffffffffffffffffffffff1673ffffffffffffffffffffffffffffffffffffffff16815260200191505060405180910390f35b348015610cd257600080fd5b50610d61600480360381019080803590602001908201803590602001908080601f0160208091040260200160405190810160405280939291908181526020018383808284378201915050505050509192919290803573ffffffffffffffffffffffffffffffffffffffff169060200190929190803590602001909291908035906020019092919050505061285b565b6040518082815260200191505060405180910390f35b348015610d8357600080fd5b50610d8c612952565b604051808273ffffffffffffffffffffffffffffffffffffffff1673ffffffffffffffffffffffffffffffffffffffff16815260200191505060405180910390f35b60006380ac58cd7c0100000000000000000000000000000000000000000000000000000000027bffffffffffffffffffffffffffffffffffffffffffffffffffffffff1916827bffffffffffffffffffffffffffffffffffffffffffffffffffffffff19161480610e9f5750635b5e139f7c0100000000000000000000000000000000000000000000000000000000027bffffffffffffffffffffffffffffffffffffffffffffffffffffffff1916827bffffffffffffffffffffffffffffffffffffffffffffffffffffffff1916145b80610f0a575063780e9d637c0100000000000000000000000000000000000000000000000000000000027bffffffffffffffffffffffffffffffffffffffffffffffffffffffff1916827bffffffffffffffffffffffffffffffffffffffffffffffffffffffff1916145b15610f185760019050610f1d565b600090505b919050565b60008054600181600116156101000203166002900480601f016020809104026020016040519081016040528092919081815260200182805460018160011615610100020316600290048015610fb85780601f10610f8d57610100808354040283529160200191610fb8565b820191906000526020600020905b815481529060010190602001808311610f9b57829003601f168201915b505050505081565b60008160006005600083815260200190815260200160002060009054906101000a900473ffffffffffffffffffffffffffffffffffffffff1673ffffffffffffffffffffffffffffffffffffffff161415151561101c57600080fd5b6007600084815260200190815260200160002060009054906101000a900473ffffffffffffffffffffffffffffffffffffffff16915050919050565b60008160006005600083815260200190815260200160002060009054906101000a900473ffffffffffffffffffffffffffffffffffffffff1673ffffffffffffffffffffffffffffffffffffffff16141515156110b457600080fd5b826110be81612978565b15156110c957600080fd5b6005600085815260200190815260200160002060009054906101000a900473ffffffffffffffffffffffffffffffffffffffff16925061110a838686612aa7565b5050505050565b600f60009054906101000a900473ffffffffffffffffffffffffffffffffffffffff1673ffffffffffffffffffffffffffffffffffffffff163373ffffffffffffffffffffffffffffffffffffffff1614151561116d57600080fd5b80600960008481526020019081526020016000209080519060200190611194929190613483565b505050565b6060600060606000600460008673ffffffffffffffffffffffffffffffffffffffff1673ffffffffffffffffffffffffffffffffffffffff168152602001908152602001600020805490509250826040519080825280602002602001820160405280156112155781602001602082028038833980820191505090505b509150600090505b828110156112a557600460008673ffffffffffffffffffffffffffffffffffffffff1673ffffffffffffffffffffffffffffffffffffffff1681526020019081526020016000208181548110151561127157fe5b9060005260206000200154828281518110151561128a57fe5b9060200190602002018181525050808060010191505061121d565b819350505050919050565b6000600280549050905090565b8060006005600083815260200190815260200160002060009054906101000a900473ffffffffffffffffffffffffffffffffffffffff1673ffffffffffffffffffffffffffffffffffffffff161415151561131757600080fd5b83838361132381612978565b8061138c57503373ffffffffffffffffffffffffffffffffffffffff166007600083815260200190815260200160002060009054906101000a900473ffffffffffffffffffffffffffffffffffffffff1673ffffffffffffffffffffffffffffffffffffffff16145b151561139757600080fd5b8273ffffffffffffffffffffffffffffffffffffffff166005600083815260200190815260200160002060009054906101000a900473ffffffffffffffffffffffffffffffffffffffff1673ffffffffffffffffffffffffffffffffffffffff1614151561140457600080fd5b60008273ffffffffffffffffffffffffffffffffffffffff161415151561142a57600080fd5b611435878787612c17565b50505050505050565b600e6020528060005260406000206000915090505481565b6000600a846040518082805190602001908083835b602083101515611490578051825260208201915060208101905060208303925061146b565b6001836020036101000a038019825116818451168082178552505050505050905001915050908152602001604051809103902060008473ffffffffffffffffffffffffffffffffffffffff1673ffffffffffffffffffffffffffffffffffffffff16815260200190815260200160002060008381526020019081526020016000205490509392505050565b60008060006005600083815260200190815260200160002060009054906101000a900473ffffffffffffffffffffffffffffffffffffffff1673ffffffffffffffffffffffffffffffffffffffff161415151561157757600080fd5b600460008573ffffffffffffffffffffffffffffffffffffffff1673ffffffffffffffffffffffffffffffffffffffff16815260200190815260200160002080549050831015156115c757600080fd5b600460008573ffffffffffffffffffffffffffffffffffffffff1673ffffffffffffffffffffffffffffffffffffffff1681526020019081526020016000208381548110151561161357fe5b906000526020600020015491505092915050565b60008160006005600083815260200190815260200160002060009054906101000a900473ffffffffffffffffffffffffffffffffffffffff1673ffffffffffffffffffffffffffffffffffffffff161415151561168357600080fd5b84848461168f81612978565b806116f857503373ffffffffffffffffffffffffffffffffffffffff166007600083815260200190815260200160002060009054906101000a900473ffffffffffffffffffffffffffffffffffffffff1673ffffffffffffffffffffffffffffffffffffffff16145b151561170357600080fd5b8273ffffffffffffffffffffffffffffffffffffffff166005600083815260200190815260200160002060009054906101000a900473ffffffffffffffffffffffffffffffffffffffff1673ffffffffffffffffffffffffffffffffffffffff1614151561177057600080fd5b60008273ffffffffffffffffffffffffffffffffffffffff161415151561179657600080fd5b6117a1888888612c17565b863b945060008511156118f05763f0b9e5ba7c0100000000000000000000000000000000000000000000000000000000028773ffffffffffffffffffffffffffffffffffffffff1663f0b9e5ba8a896040518363ffffffff167c0100000000000000000000000000000000000000000000000000000000028152600401808373ffffffffffffffffffffffffffffffffffffffff1673ffffffffffffffffffffffffffffffffffffffff168152602001828152602001806020018281038252600081526020016020019350505050602060405180830381600087803b15801561188957600080fd5b505af115801561189d573d6000803e3d6000fd5b505050506040513d60208110156118b357600080fd5b81019080805190602001909291905050507bffffffffffffffffffffffffffffffffffffffffffffffffffffffff19161415156118ef57600080fd5b5b5050505050505050565b60006002805490508210151561190f57600080fd5b60028281548110151561191e57fe5b90600052602060002001549050919050565b60008160006005600083815260200190815260200160002060009054906101000a900473ffffffffffffffffffffffffffffffffffffffff1673ffffffffffffffffffffffffffffffffffffffff161415151561198c57600080fd5b6005600084815260200190815260200160002060009054906101000a900473ffffffffffffffffffffffffffffffffffffffff16915050919050565b600b6020528060005260406000206000915090505481565b6000808273ffffffffffffffffffffffffffffffffffffffff1614151515611a0757600080fd5b600460008373ffffffffffffffffffffffffffffffffffffffff1673ffffffffffffffffffffffffffffffffffffffff168152602001908152602001600020805490509050919050565b600f60009054906101000a900473ffffffffffffffffffffffffffffffffffffffff1673ffffffffffffffffffffffffffffffffffffffff163373ffffffffffffffffffffffffffffffffffffffff16141515611aad57600080fd5b80601060006101000a81548173ffffffffffffffffffffffffffffffffffffffff021916908373ffffffffffffffffffffffffffffffffffffffff16021790555050565b3373ffffffffffffffffffffffffffffffffffffffff166005600083815260200190815260200160002060009054906101000a900473ffffffffffffffffffffffffffffffffffffffff1673ffffffffffffffffffffffffffffffffffffffff16141515611b5e57600080fd5b611b683382612cf5565b60003373ffffffffffffffffffffffffffffffffffffffff167fddf252ad1be2c89b69c2b068fc378daa952ba7f163c4a11628f55a4df523b3ef836040518082815260200191505060405180910390a350565b601060009054906101000a900473ffffffffffffffffffffffffffffffffffffffff1681565b600c6020528060005260406000206000915090508054600181600116156101000203166002900480601f016020809104026020016040519081016040528092919081815260200182805460018160011615610100020316600290048015611c895780601f10611c5e57610100808354040283529160200191611c89565b820191906000526020600020905b815481529060010190602001808311611c6c57829003601f168201915b505050505081565b6000806000601060009054906101000a900473ffffffffffffffffffffffffffffffffffffffff1673ffffffffffffffffffffffffffffffffffffffff166358836e9f6040518163ffffffff167c0100000000000000000000000000000000000000000000000000000000028152600401602060405180830381600087803b158015611d1c57600080fd5b505af1158015611d30573d6000803e3d6000fd5b505050506040513d6020811015611d4657600080fd5b81019080805190602001909291905050509250600083111515611d6857600080fd5b600084111515611d7757600080fd5b8383670de0b6b3a7640000811515611d8b57fe5b04029150813410151515611d9e57600080fd5b611e63868686600a8a6040518082805190602001908083835b602083101515611ddc5780518252602082019150602081019050602083039250611db7565b6001836020036101000a038019825116818451168082178552505050505050905001915050908152602001604051809103902060008a73ffffffffffffffffffffffffffffffffffffffff1673ffffffffffffffffffffffffffffffffffffffff16815260200190815260200160002060008981526020019081526020016000205461285b565b9050600a866040518082805190602001908083835b602083101515611e9d5780518252602082019150602081019050602083039250611e78565b6001836020036101000a038019825116818451168082178552505050505050905001915050908152602001604051809103902060008673ffffffffffffffffffffffffffffffffffffffff1673ffffffffffffffffffffffffffffffffffffffff168152602001908152602001600020600085815260200190815260200160002054600b60008381526020019081526020016000208190555085600c60008381526020019081526020016000209080519060200190611f5d929190613483565b5084600d600083815260200190815260200160002060006101000a81548173ffffffffffffffffffffffffffffffffffffffff021916908373ffffffffffffffffffffffffffffffffffffffff16021790555083600e60008381526020019081526020016000208190555085600960008381526020019081526020016000209080519060200190611fef929190613483565b50611ffa3382613031565b6001600a876040518082805190602001908083835b602083101515612034578051825260208201915060208101905060208303925061200f565b6001836020036101000a038019825116818451168082178552505050505050905001915050908152602001604051809103902060008773ffffffffffffffffffffffffffffffffffffffff1673ffffffffffffffffffffffffffffffffffffffff16815260200190815260200160002060008681526020019081526020016000206000828254019250508190555081341115612114573373ffffffffffffffffffffffffffffffffffffffff166108fc8334039081150290604051600060405180830381858888f19350505050158015612112573d6000803e3d6000fd5b505b8473ffffffffffffffffffffffffffffffffffffffff166108fc839081150290604051600060405180830381858888f1935050505015801561215a573d6000803e3d6000fd5b50505050505050565b600f60009054906101000a900473ffffffffffffffffffffffffffffffffffffffff1673ffffffffffffffffffffffffffffffffffffffff163373ffffffffffffffffffffffffffffffffffffffff161415156121bf57600080fd5b80600f60006101000a81548173ffffffffffffffffffffffffffffffffffffffff021916908373ffffffffffffffffffffffffffffffffffffffff16021790555050565b60018054600181600116156101000203166002900480601f0160208091040260200160405190810160405280929190818152602001828054600181600116156101000203166002900480156122995780601f1061226e57610100808354040283529160200191612299565b820191906000526020600020905b81548152906001019060200180831161227c57829003601f168201915b505050505081565b3373ffffffffffffffffffffffffffffffffffffffff168273ffffffffffffffffffffffffffffffffffffffff16141515156122dc57600080fd5b80600860003373ffffffffffffffffffffffffffffffffffffffff1673ffffffffffffffffffffffffffffffffffffffff16815260200190815260200160002060008473ffffffffffffffffffffffffffffffffffffffff1673ffffffffffffffffffffffffffffffffffffffff16815260200190815260200160002060006101000a81548160ff0219169083151502179055508173ffffffffffffffffffffffffffffffffffffffff163373ffffffffffffffffffffffffffffffffffffffff167f17307eab39ab6107e8899845ad3d59bd9653f200f220920489ca2b5937696c3183604051808215151515815260200191505060405180910390a35050565b60008360006005600083815260200190815260200160002060009054906101000a900473ffffffffffffffffffffffffffffffffffffffff1673ffffffffffffffffffffffffffffffffffffffff161415151561243957600080fd5b86868661244581612978565b806124ae57503373ffffffffffffffffffffffffffffffffffffffff166007600083815260200190815260200160002060009054906101000a900473ffffffffffffffffffffffffffffffffffffffff1673ffffffffffffffffffffffffffffffffffffffff16145b15156124b957600080fd5b8273ffffffffffffffffffffffffffffffffffffffff166005600083815260200190815260200160002060009054906101000a900473ffffffffffffffffffffffffffffffffffffffff1673ffffffffffffffffffffffffffffffffffffffff1614151561252657600080fd5b60008273ffffffffffffffffffffffffffffffffffffffff161415151561254c57600080fd5b6125578a8a8a612c17565b883b945060008511156126d35763f0b9e5ba7c0100000000000000000000000000000000000000000000000000000000027bffffffffffffffffffffffffffffffffffffffffffffffffffffffff19168973ffffffffffffffffffffffffffffffffffffffff1663f0b9e5ba8c8b8b8b6040518563ffffffff167c0100000000000000000000000000000000000000000000000000000000028152600401808573ffffffffffffffffffffffffffffffffffffffff1673ffffffffffffffffffffffffffffffffffffffff168152602001848152602001806020018281038252848482818152602001925080828437820191505095505050505050602060405180830381600087803b15801561266c57600080fd5b505af1158015612680573d6000803e3d6000fd5b505050506040513d602081101561269657600080fd5b81019080805190602001909291905050507bffffffffffffffffffffffffffffffffffffffffffffffffffffffff19161415156126d257600080fd5b5b50505050505050505050565b6060600960008381526020019081526020016000208054600181600116156101000203166002900480601f0160208091040260200160405190810160405280929190818152602001828054600181600116156101000203166002900480156127885780601f1061275d57610100808354040283529160200191612788565b820191906000526020600020905b81548152906001019060200180831161276b57829003601f168201915b50505050509050919050565b6000600860008473ffffffffffffffffffffffffffffffffffffffff1673ffffffffffffffffffffffffffffffffffffffff16815260200190815260200160002060008373ffffffffffffffffffffffffffffffffffffffff1673ffffffffffffffffffffffffffffffffffffffff16815260200190815260200160002060009054906101000a900460ff16905092915050565b600d6020528060005260406000206000915054906101000a900473ffffffffffffffffffffffffffffffffffffffff1681565b60006128e261287461286f84600102613199565b61329c565b6128d46128cf61288e61288988600102613199565b61329c565b6128c16128bc6128a56128a08c6132ca565b61329c565b6128ae8d61329c565b6133b690919063ffffffff16565b61329c565b6133b690919063ffffffff16565b61329c565b6133b690919063ffffffff16565b6040518082805190602001908083835b60208310151561291757805182526020820191506020810190506020830392506128f2565b6001836020036101000a0380198251168184511680821785525050505050509050019150506040518091039020600190049050949350505050565b600f60009054906101000a900473ffffffffffffffffffffffffffffffffffffffff1681565b60003373ffffffffffffffffffffffffffffffffffffffff166005600084815260200190815260200160002060009054906101000a900473ffffffffffffffffffffffffffffffffffffffff1673ffffffffffffffffffffffffffffffffffffffff161480612aa05750600860006005600085815260200190815260200160002060009054906101000a900473ffffffffffffffffffffffffffffffffffffffff1673ffffffffffffffffffffffffffffffffffffffff1673ffffffffffffffffffffffffffffffffffffffff16815260200190815260200160002060003373ffffffffffffffffffffffffffffffffffffffff1673ffffffffffffffffffffffffffffffffffffffff16815260200190815260200160002060009054906101000a900460ff165b9050919050565b8273ffffffffffffffffffffffffffffffffffffffff168273ffffffffffffffffffffffffffffffffffffffff1614151515612ae257600080fd5b60006007600083815260200190815260200160002060009054906101000a900473ffffffffffffffffffffffffffffffffffffffff1673ffffffffffffffffffffffffffffffffffffffff16148015612b51575060008273ffffffffffffffffffffffffffffffffffffffff16145b15612b5b57600080fd5b816007600083815260200190815260200160002060006101000a81548173ffffffffffffffffffffffffffffffffffffffff021916908373ffffffffffffffffffffffffffffffffffffffff1602179055508173ffffffffffffffffffffffffffffffffffffffff168373ffffffffffffffffffffffffffffffffffffffff167f8c5be1e5ebec7d5bd14f71427d1e84f3dd0314c0f7b2291e5b200ac8c7c3b925836040518082815260200191505060405180910390a3505050565b60006007600083815260200190815260200160002060009054906101000a900473ffffffffffffffffffffffffffffffffffffffff1673ffffffffffffffffffffffffffffffffffffffff16141515612c7757612c7683600083612aa7565b5b612c818382612cf5565b612c8b8282613031565b8173ffffffffffffffffffffffffffffffffffffffff168373ffffffffffffffffffffffffffffffffffffffff167fddf252ad1be2c89b69c2b068fc378daa952ba7f163c4a11628f55a4df523b3ef836040518082815260200191505060405180910390a3505050565b600080600080600360008681526020019081526020016000205493506002805490509250600260018403815481101515612d2b57fe5b9060005260206000200154600285815481101515612d4557fe5b90600052602060002001819055508360036000600260018703815481101515612d6a57fe5b9060005260206000200154815260200190815260200160002081905550600260018403815481101515612d9957fe5b90600052602060002001600090556001600281818054905003915081612dbf9190613503565b5060066000868152602001908152602001600020549150600460008773ffffffffffffffffffffffffffffffffffffffff1673ffffffffffffffffffffffffffffffffffffffff168152602001908152602001600020805490509050600460008773ffffffffffffffffffffffffffffffffffffffff1673ffffffffffffffffffffffffffffffffffffffff16815260200190815260200160002060018203815481101515612e6a57fe5b9060005260206000200154600460008873ffffffffffffffffffffffffffffffffffffffff1673ffffffffffffffffffffffffffffffffffffffff16815260200190815260200160002083815481101515612ec157fe5b90600052602060002001819055508160066000600460008a73ffffffffffffffffffffffffffffffffffffffff1673ffffffffffffffffffffffffffffffffffffffff16815260200190815260200160002060018503815481101515612f2357fe5b9060005260206000200154815260200190815260200160002081905550600460008773ffffffffffffffffffffffffffffffffffffffff1673ffffffffffffffffffffffffffffffffffffffff16815260200190815260200160002060018203815481101515612f8f57fe5b90600052602060002001600090556001600460008873ffffffffffffffffffffffffffffffffffffffff1673ffffffffffffffffffffffffffffffffffffffff16815260200190815260200160002081818054905003915081612ff29190613503565b506005600086815260200190815260200160002060006101000a81549073ffffffffffffffffffffffffffffffffffffffff0219169055505050505050565b60028190806001815401808255809150509060018203906000526020600020016000909192909190915055506001600280549050036003600083815260200190815260200160002081905550816005600083815260200190815260200160002060006101000a81548173ffffffffffffffffffffffffffffffffffffffff021916908373ffffffffffffffffffffffffffffffffffffffff160217905550600460008373ffffffffffffffffffffffffffffffffffffffff1673ffffffffffffffffffffffffffffffffffffffff1681526020019081526020016000208190806001815401808255809150509060018203906000526020600020016000909192909190915055506001600460008473ffffffffffffffffffffffffffffffffffffffff1673ffffffffffffffffffffffffffffffffffffffff168152602001908152602001600020805490500360066000838152602001908152602001600020819055505050565b60608060008060206040519080825280601f01601f1916602001820160405280156131d35781602001602082028038833980820191505090505b509250600091505b6020821015613291578160080260020a856001900402600102905060007f010000000000000000000000000000000000000000000000000000000000000002817effffffffffffffffffffffffffffffffffffffffffffffffffffffffffffff19161415156132845780838381518110151561325357fe5b9060200101907effffffffffffffffffffffffffffffffffffffffffffffffffffffffffffff1916908160001a9053505b81806001019250506131db565b829350505050919050565b6132a461352f565b600060208301905060408051908101604052808451815260200182815250915050919050565b606080600060146040519080825280601f01601f1916602001820160405280156133035781602001602082028038833980820191505090505b509150600090505b60148110156133ac578060130360080260020a8473ffffffffffffffffffffffffffffffffffffffff1681151561333e57fe5b047f010000000000000000000000000000000000000000000000000000000000000002828281518110151561336f57fe5b9060200101907effffffffffffffffffffffffffffffffffffffffffffffffffffffffffffff1916908160001a905350808060010191505061330b565b8192505050919050565b606080600083600001518560000151016040519080825280601f01601f1916602001820160405280156133f85781602001602082028038833980820191505090505b5091506020820190506134148186602001518760000151613438565b61342d8560000151820185602001518660000151613438565b819250505092915050565b60005b602082101515613460578251845260208401935060208301925060208203915061343b565b6001826020036101000a0390508019835116818551168181178652505050505050565b828054600181600116156101000203166002900490600052602060002090601f016020900481019282601f106134c457805160ff19168380011785556134f2565b828001600101855582156134f2579182015b828111156134f15782518255916020019190600101906134d6565b5b5090506134ff9190613549565b5090565b81548183558181111561352a578183600052602060002091820191016135299190613549565b5b505050565b604080519081016040528060008152602001600081525090565b61356b91905b8082111561356757600081600090555060010161354f565b5090565b905600a165627a7a7230582032c37bacc8d95961a4be31ebcdbe9d12b46a4445b7c2967c3ceb0367d9bc55b20029",
  "source": "pragma solidity ^0.4.21;\nimport \"./eip721/EIP721.sol\";\nimport \"./utils/strings.sol\";\nimport \"./IUSDETHOracle.sol\";\n\n\ncontract UjoPatronageBadges is EIP721 {\n    using strings for *;\n    // enumeration\n\n    // cid -> beneficiary -> usd -> total\n    mapping (string => mapping(address => mapping(uint256 => uint256))) internal totalMintedBadgesPerCombination;\n\n    // token ID -> badge number (derived when it is minted).\n    mapping (uint256 => uint256) public badgeNumber;\n\n    // token ID -> what CID it pertains to.\n    mapping (uint256 => string) public cidOfBadge;\n\n    // token ID -> what beneficiary it pertains to.\n    mapping (uint256 => address) public beneficiaryOfBadge;\n\n    // token ID -> what usd cost it pertains to.\n    mapping (uint256 => uint256) public usdCostOfBadge;\n\n    address public admin;\n\n    IUSDETHOracle public oracle;\n\n    function UjoPatronageBadges(address _admin) public {\n        admin = _admin; // sets oracle used.\n        name = \"Patronage Badges\";\n        symbol = \"PATRON\";\n    }\n\n    function setOracle(address _oracle) public onlyAdmin {\n        oracle = IUSDETHOracle(_oracle);\n    }\n\n    // additional helper function not in EIP721.\n    function getAllTokens(address _owner) public view returns (uint256[]) {\n        uint size = ownedTokens[_owner].length;\n        uint[] memory result = new uint256[](size);\n        for (uint i = 0; i < size; i++) {\n            result[i] = ownedTokens[_owner][i];\n        }\n        return result;\n    }\n\n    modifier onlyAdmin() {\n        require(msg.sender == admin);\n        _;\n    }\n\n    // cid == any IPFS object\n    function mint(string _cid, address _beneficiary, uint256 _usdCost) public payable {\n        //price of one wei for calculation purposes\n        uint256 exchangeRate = oracle.getUintPrice(); // todo: what if this is broken?\n        require(exchangeRate > 0);\n        require(_usdCost > 0);\n        uint usdCostInWei = (1 ether / exchangeRate) * _usdCost;\n\n        require(msg.value >= usdCostInWei);\n\n        // compute badge information & mint it.\n        uint256 tokenId = computeID(_cid, _beneficiary, _usdCost, totalMintedBadgesPerCombination[_cid][_beneficiary][_usdCost]);\n        badgeNumber[tokenId] = totalMintedBadgesPerCombination[_cid][_beneficiary][_usdCost];\n        cidOfBadge[tokenId] = _cid;\n        beneficiaryOfBadge[tokenId] = _beneficiary;\n        usdCostOfBadge[tokenId] = _usdCost;\n        tokenURIs[tokenId] = _cid;\n        addToken(msg.sender, tokenId);\n\n        totalMintedBadgesPerCombination[_cid][_beneficiary][_usdCost] += 1;\n\n        //  check if paid enough through oracle price\n        //  only type now is: > $5 via oracle. Send back remainder.\n        //  forward ETH equivalent to $5.\n        //  send back remainder.\n        // if less than $5, revert.\n        if (msg.value > usdCostInWei) {\n            msg.sender.transfer(msg.value - usdCostInWei);\n        }\n\n        _beneficiary.transfer(usdCostInWei);\n    }\n\n    function computeID(string _cid, address _beneficiary, uint256 _usdCost, uint256 _counter) public returns (uint256) {\n        // determine unique uint ID combining the CID with the number per CID.\n        // this is to ensure that we also track the number of badges per artist.\n        // steps as it unfolds:\n        // 1) turn integer counter into a string\n        // 2) turn beneficiary address into a string\n        // 3) concatenate the cid + beneficiary + counter\n        // 4) get a hash of the combination.\n        // 5) get integer value of hash.\n\n        // solhint-disable-next-line max-line-length\n        return uint256(keccak256(_cid.toSlice().concat(toString(_beneficiary).toSlice()).toSlice().concat(bytes32ToString(bytes32(_usdCost)).toSlice()).toSlice().concat(bytes32ToString(bytes32(_counter)).toSlice()))); // concatenate cid + beneficiary + counter\n    }\n\n    function changeAdmin(address _newAdmin) public onlyAdmin {\n        admin = _newAdmin;\n    }\n\n    // URI is the CID\n    // solhint-disable-next-line func-param-name-mixedcase\n    function setTokenURI(uint256 _tokenID, string URI) public {\n        require(msg.sender == admin);\n        tokenURIs[_tokenID] = URI;\n    }\n\n    function burnToken(uint256 _tokenId) public {\n        require(ownerOfToken[_tokenId] == msg.sender); //token should be in control of owner\n        removeToken(msg.sender, _tokenId);\n        emit Transfer(msg.sender, 0, _tokenId);\n    }\n\n    function getTotalMintedPerCombination(string _cid, address _beneficiary, uint256 _usdCost) public view returns (uint256) {\n        return totalMintedBadgesPerCombination[_cid][_beneficiary][_usdCost];\n    }\n\n    /*-- internal functions for string CID generation --*/\n    function bytes32ToString (bytes32 data) internal returns (string) {\n        bytes memory bytesString = new bytes(32);\n        for (uint j=0; j < 32; j++) {\n            byte char = byte(bytes32(uint(data) * 2 ** (8 * j)));\n            if (char != 0) {\n                bytesString[j] = char;\n            }\n        }\n        return string(bytesString);\n    }\n\n    function toString(address x) internal returns (string) {\n        bytes memory b = new bytes(20);\n        for (uint i = 0; i < 20; i++)\n            b[i] = byte(uint8(uint(x) / (2**(8*(19 - i)))));\n        return string(b);\n    }\n}\n",
  "sourcePath": "/Users/simondlr/code/ethereum/contracts-badges/contracts/UjoPatronageBadges.sol",
  "compiler": {
    "name": "solc",
    "version": "0.4.23+commit.124ca40d.Emscripten.clang"
  },
  "schemaVersion": "2.0.0",
  "updatedAt": "2018-06-27T08:52:37.794Z"
}